{
	"contracts/TodoList.sol": {
		"TodoList": {
			"abi": [
				{
					"inputs": [],
					"stateMutability": "nonpayable",
					"type": "constructor"
				},
				{
					"anonymous": false,
					"inputs": [
						{
							"indexed": false,
							"internalType": "uint256",
							"name": "id",
							"type": "uint256"
						},
						{
							"indexed": false,
							"internalType": "string",
							"name": "content",
							"type": "string"
						}
					],
					"name": "TodoAdded",
					"type": "event"
				},
				{
					"anonymous": false,
					"inputs": [
						{
							"indexed": false,
							"internalType": "uint256",
							"name": "id",
							"type": "uint256"
						},
						{
							"indexed": false,
							"internalType": "string",
							"name": "newContent",
							"type": "string"
						}
					],
					"name": "TodoContentUpdated",
					"type": "event"
				},
				{
					"anonymous": false,
					"inputs": [
						{
							"indexed": false,
							"internalType": "uint256",
							"name": "id",
							"type": "uint256"
						}
					],
					"name": "TodoDeleted",
					"type": "event"
				},
				{
					"anonymous": false,
					"inputs": [
						{
							"indexed": false,
							"internalType": "uint256",
							"name": "id",
							"type": "uint256"
						},
						{
							"indexed": false,
							"internalType": "enum TodoList.TodoStatus",
							"name": "status",
							"type": "uint8"
						}
					],
					"name": "TodoStatusUpdated",
					"type": "event"
				},
				{
					"inputs": [
						{
							"internalType": "string",
							"name": "_content",
							"type": "string"
						}
					],
					"name": "addTodo",
					"outputs": [],
					"stateMutability": "nonpayable",
					"type": "function"
				},
				{
					"inputs": [
						{
							"internalType": "uint256",
							"name": "_id",
							"type": "uint256"
						}
					],
					"name": "deleteTodo",
					"outputs": [],
					"stateMutability": "nonpayable",
					"type": "function"
				},
				{
					"inputs": [],
					"name": "getAllTodoIds",
					"outputs": [
						{
							"internalType": "uint256[]",
							"name": "",
							"type": "uint256[]"
						}
					],
					"stateMutability": "view",
					"type": "function"
				},
				{
					"inputs": [],
					"name": "getAllTodos",
					"outputs": [
						{
							"components": [
								{
									"internalType": "uint256",
									"name": "id",
									"type": "uint256"
								},
								{
									"internalType": "string",
									"name": "content",
									"type": "string"
								},
								{
									"internalType": "enum TodoList.TodoStatus",
									"name": "status",
									"type": "uint8"
								},
								{
									"internalType": "bool",
									"name": "isDeleted",
									"type": "bool"
								}
							],
							"internalType": "struct TodoList.Todo[]",
							"name": "",
							"type": "tuple[]"
						}
					],
					"stateMutability": "view",
					"type": "function"
				},
				{
					"inputs": [
						{
							"internalType": "uint256",
							"name": "_id",
							"type": "uint256"
						}
					],
					"name": "getTodo",
					"outputs": [
						{
							"internalType": "uint256",
							"name": "id",
							"type": "uint256"
						},
						{
							"internalType": "string",
							"name": "content",
							"type": "string"
						},
						{
							"internalType": "enum TodoList.TodoStatus",
							"name": "status",
							"type": "uint8"
						},
						{
							"internalType": "bool",
							"name": "isDeleted",
							"type": "bool"
						}
					],
					"stateMutability": "view",
					"type": "function"
				},
				{
					"inputs": [],
					"name": "getTotalTodos",
					"outputs": [
						{
							"internalType": "uint256",
							"name": "",
							"type": "uint256"
						}
					],
					"stateMutability": "view",
					"type": "function"
				},
				{
					"inputs": [
						{
							"internalType": "uint256",
							"name": "",
							"type": "uint256"
						}
					],
					"name": "todoIds",
					"outputs": [
						{
							"internalType": "uint256",
							"name": "",
							"type": "uint256"
						}
					],
					"stateMutability": "view",
					"type": "function"
				},
				{
					"inputs": [
						{
							"internalType": "uint256",
							"name": "_id",
							"type": "uint256"
						},
						{
							"internalType": "string",
							"name": "_newContent",
							"type": "string"
						}
					],
					"name": "updateContent",
					"outputs": [],
					"stateMutability": "nonpayable",
					"type": "function"
				},
				{
					"inputs": [
						{
							"internalType": "uint256",
							"name": "_id",
							"type": "uint256"
						},
						{
							"internalType": "enum TodoList.TodoStatus",
							"name": "_status",
							"type": "uint8"
						}
					],
					"name": "updateStatus",
					"outputs": [],
					"stateMutability": "nonpayable",
					"type": "function"
				}
			],
			"devdoc": {
				"details": "This contract is basically my life organized on the blockchain. It's a todo list for a 21-year-old navigating life, code, and vibes. It allows adding, updating, and managing daily tasks on the blockchain.",
				"kind": "dev",
				"methods": {
					"addTodo(string)": {
						"details": "Adds a new task to the list. Public facing function.",
						"params": {
							"_content": "The description of the task. Cannot be an empty string."
						}
					},
					"constructor": {
						"details": "Constructor: Contract created! Let's pre-fill some realistic tasks. This is where the daily grind gets listed."
					},
					"deleteTodo(uint256)": {
						"details": "Marks a todo as deleted. On blockchain, we usually mark instead of truly deleting.",
						"params": {
							"_id": "The ID of the task to delete."
						}
					},
					"getAllTodoIds()": {
						"details": "Gets all the todo IDs. Useful for frontends to iterate through tasks.",
						"returns": {
							"_0": "An array of all todo IDs."
						}
					},
					"getAllTodos()": {
						"details": "Gets all todo items. This iterates through all IDs and fetches each todo. Note: This can be gas-intensive for a very large number of todos.",
						"returns": {
							"_0": "An array of all Todo structs."
						}
					},
					"getTodo(uint256)": {
						"details": "Gets the details of a specific task.",
						"params": {
							"_id": "The ID of the task to retrieve."
						},
						"returns": {
							"content": "The task description.",
							"id": "The task ID.",
							"isDeleted": "Whether the task is marked as deleted.",
							"status": "The current status of the task."
						}
					},
					"getTotalTodos()": {
						"details": "Gets the total number of tasks in the list (including deleted ones).",
						"returns": {
							"_0": "The total count of tasks added."
						}
					},
					"updateContent(uint256,string)": {
						"details": "Updates the content of a task. Need to rephrase something?",
						"params": {
							"_id": "The ID of the task to update.",
							"_newContent": "The new description of the task. Cannot be an empty string."
						}
					},
					"updateStatus(uint256,uint8)": {
						"details": "Updates the status of a task. Did I finish it? Am I working on it?",
						"params": {
							"_id": "The ID of the task to update.",
							"_status": "The new status (Pending, InProgress, Completed, Deleted)."
						}
					}
				},
				"title": "TodoList",
				"version": 1
			},
			"evm": {
				"assembly": "    /* \"contracts/TodoList.sol\":354:9885  contract TodoList {\r... */\n  mstore(0x40, 0x80)\n    /* \"contracts/TodoList.sol\":2230:3929  constructor() {\r... */\n  callvalue\n  dup1\n  iszero\n  tag_1\n  jumpi\n  0x00\n  dup1\n  revert\ntag_1:\n  pop\n    /* \"contracts/TodoList.sol\":2268:2269  0 */\n  0x00\n    /* \"contracts/TodoList.sol\":2255:2265  nextTodoId */\n  0x02\n    /* \"contracts/TodoList.sol\":2255:2269  nextTodoId = 0 */\n  dup2\n  swap1\n  sstore\n  pop\n    /* \"contracts/TodoList.sol\":2365:2466  _addTodoInternal(\"07:15 - Okay, ACTUALLY get out of bed. Make it look presentable, mom might check.\") */\n  tag_4\n  mload(0x40)\n  dup1\n  0x80\n  add\n  0x40\n  mstore\n  dup1\n  0x51\n  dup2\n  mstore\n  0x20\n  add\n  data_594fd42faeb7b2f257e5d221097ab872bb568909dfd5c696e93b702536305df8\n  0x51\n  swap2\n  codecopy\n    /* \"contracts/TodoList.sol\":2365:2381  _addTodoInternal */\n  shl(0x20, tag_5)\n    /* \"contracts/TodoList.sol\":2365:2466  _addTodoInternal(\"07:15 - Okay, ACTUALLY get out of bed. Make it look presentable, mom might check.\") */\n  0x20\n  shr\n  jump\t// in\ntag_4:\n    /* \"contracts/TodoList.sol\":2477:2564  _addTodoInternal(\"07:30 - Shower time! Gotta look fresh for the world (or just Zoom).\") */\n  tag_6\n  mload(0x40)\n  dup1\n  0x80\n  add\n  0x40\n  mstore\n  dup1\n  0x43\n  dup2\n  mstore\n  0x20\n  add\n  data_210688df644915defe621f78d3b567f4b7e214ba04898c7779d4dd8a92391dc2\n  0x43\n  swap2\n  codecopy\n    /* \"contracts/TodoList.sol\":2477:2493  _addTodoInternal */\n  shl(0x20, tag_5)\n    /* \"contracts/TodoList.sol\":2477:2564  _addTodoInternal(\"07:30 - Shower time! Gotta look fresh for the world (or just Zoom).\") */\n  0x20\n  shr\n  jump\t// in\ntag_6:\n    /* \"contracts/TodoList.sol\":2575:2654  _addTodoInternal(\"08:00 - Quick breakfast. Cereal? Toast? Whatever's fastest.\") */\n  tag_7\n  mload(0x40)\n  dup1\n  0x60\n  add\n  0x40\n  mstore\n  dup1\n  0x3b\n  dup2\n  mstore\n  0x20\n  add\n  data_15e6fb0cfd53e17addb0d53a53a9b8b2a3c851660b8ae975399c7e121ba9b26e\n  0x3b\n  swap2\n  codecopy\n    /* \"contracts/TodoList.sol\":2575:2591  _addTodoInternal */\n  shl(0x20, tag_5)\n    /* \"contracts/TodoList.sol\":2575:2654  _addTodoInternal(\"08:00 - Quick breakfast. Cereal? Toast? Whatever's fastest.\") */\n  0x20\n  shr\n  jump\t// in\ntag_7:\n    /* \"contracts/TodoList.sol\":2665:2749  _addTodoInternal(\"08:30 - Commute/Get ready for online classes. Vibe check: ready.\") */\n  tag_8\n  mload(0x40)\n  dup1\n  0x60\n  add\n  0x40\n  mstore\n  dup1\n  0x40\n  dup2\n  mstore\n  0x20\n  add\n  data_365b935bcddce1a58d47fafa3fb150c99c2840d0c82a7134525ed4c3eb595d68\n  0x40\n  swap2\n  codecopy\n    /* \"contracts/TodoList.sol\":2665:2681  _addTodoInternal */\n  shl(0x20, tag_5)\n    /* \"contracts/TodoList.sol\":2665:2749  _addTodoInternal(\"08:30 - Commute/Get ready for online classes. Vibe check: ready.\") */\n  0x20\n  shr\n  jump\t// in\ntag_8:\n    /* \"contracts/TodoList.sol\":2760:2835  _addTodoInternal(\"09:00 - Attend Morning Classes. Try not to fall asleep.\") */\n  tag_9\n  mload(0x40)\n  dup1\n  0x60\n  add\n  0x40\n  mstore\n  dup1\n  0x37\n  dup2\n  mstore\n  0x20\n  add\n  data_86e3b7c3616e148ccd8108d4e3ed5a7749d2c918ac73fcdf9109a92b662b3150\n  0x37\n  swap2\n  codecopy\n    /* \"contracts/TodoList.sol\":2760:2776  _addTodoInternal */\n  shl(0x20, tag_5)\n    /* \"contracts/TodoList.sol\":2760:2835  _addTodoInternal(\"09:00 - Attend Morning Classes. Try not to fall asleep.\") */\n  0x20\n  shr\n  jump\t// in\ntag_9:\n    /* \"contracts/TodoList.sol\":2846:2916  _addTodoInternal(\"12:00 - Lunch break! Refuel time. What's cooking? \") */\n  tag_10\n  mload(0x40)\n  dup1\n  0x60\n  add\n  0x40\n  mstore\n  dup1\n  0x32\n  dup2\n  mstore\n  0x20\n  add\n  data_a5868f56de258f6d893b94b863a2fdbbf9f3d263a7d2bb57cb8c286b715eaef1\n  0x32\n  swap2\n  codecopy\n    /* \"contracts/TodoList.sol\":2846:2862  _addTodoInternal */\n  shl(0x20, tag_5)\n    /* \"contracts/TodoList.sol\":2846:2916  _addTodoInternal(\"12:00 - Lunch break! Refuel time. What's cooking? \") */\n  0x20\n  shr\n  jump\t// in\ntag_10:\n    /* \"contracts/TodoList.sol\":2927:3020  _addTodoInternal(\"13:00 - Deep dive into coding. 4 hours minimum grind. Bug hunting season!\") */\n  tag_11\n  mload(0x40)\n  dup1\n  0x80\n  add\n  0x40\n  mstore\n  dup1\n  0x49\n  dup2\n  mstore\n  0x20\n  add\n  data_6f06f8a8efce5ab835d3f2dc0708794b08e530be73c668239190a08f09c8bb51\n  0x49\n  swap2\n  codecopy\n    /* \"contracts/TodoList.sol\":2927:2943  _addTodoInternal */\n  shl(0x20, tag_5)\n    /* \"contracts/TodoList.sol\":2927:3020  _addTodoInternal(\"13:00 - Deep dive into coding. 4 hours minimum grind. Bug hunting season!\") */\n  0x20\n  shr\n  jump\t// in\ntag_11:\n    /* \"contracts/TodoList.sol\":3031:3114  _addTodoInternal(\"17:00 - Break time! Scroll TikTok, hydrate, stretch. Recharge. \") */\n  tag_12\n  mload(0x40)\n  dup1\n  0x60\n  add\n  0x40\n  mstore\n  dup1\n  0x3f\n  dup2\n  mstore\n  0x20\n  add\n  data_f5845e454d2b668eeb87c7d73a1d77b25a4beb4a8aee4623eb016f2d9195e8ab\n  0x3f\n  swap2\n  codecopy\n    /* \"contracts/TodoList.sol\":3031:3047  _addTodoInternal */\n  shl(0x20, tag_5)\n    /* \"contracts/TodoList.sol\":3031:3114  _addTodoInternal(\"17:00 - Break time! Scroll TikTok, hydrate, stretch. Recharge. \") */\n  0x20\n  shr\n  jump\t// in\ntag_12:\n    /* \"contracts/TodoList.sol\":3125:3222  _addTodoInternal(\"18:00 - Lisk Africa Bootcamp Class! Time to level up those blockchain skills.\") */\n  tag_13\n  mload(0x40)\n  dup1\n  0x80\n  add\n  0x40\n  mstore\n  dup1\n  0x4d\n  dup2\n  mstore\n  0x20\n  add\n  data_3e0a84a540ee87f88feb800081793e17fa8a5b4881fd45b66c6ed46db7c338fb\n  0x4d\n  swap2\n  codecopy\n    /* \"contracts/TodoList.sol\":3125:3141  _addTodoInternal */\n  shl(0x20, tag_5)\n    /* \"contracts/TodoList.sol\":3125:3222  _addTodoInternal(\"18:00 - Lisk Africa Bootcamp Class! Time to level up those blockchain skills.\") */\n  0x20\n  shr\n  jump\t// in\ntag_13:\n    /* \"contracts/TodoList.sol\":3233:3333  _addTodoInternal(\"19:00 - Dinner time. Maybe cook something, maybe order in. Decisions, decisions.\") */\n  tag_14\n  mload(0x40)\n  dup1\n  0x80\n  add\n  0x40\n  mstore\n  dup1\n  0x50\n  dup2\n  mstore\n  0x20\n  add\n  data_7f7399612f7f5567c1c6be93ddf462bc10553c95b0e5d80bea49fddd7e5be826\n  0x50\n  swap2\n  codecopy\n    /* \"contracts/TodoList.sol\":3233:3249  _addTodoInternal */\n  shl(0x20, tag_5)\n    /* \"contracts/TodoList.sol\":3233:3333  _addTodoInternal(\"19:00 - Dinner time. Maybe cook something, maybe order in. Decisions, decisions.\") */\n  0x20\n  shr\n  jump\t// in\ntag_14:\n    /* \"contracts/TodoList.sol\":3344:3463  _addTodoInternal(\"20:00 - Learn a NEW skill. Could be a new coding concept, drawing, language... something different!\") */\n  tag_15\n  mload(0x40)\n  dup1\n  0xa0\n  add\n  0x40\n  mstore\n  dup1\n  0x63\n  dup2\n  mstore\n  0x20\n  add\n  data_5d5df31ceddef050c9d49d88dc295be31cd99333ba6799d39eb15db35fe9c986\n  0x63\n  swap2\n  codecopy\n    /* \"contracts/TodoList.sol\":3344:3360  _addTodoInternal */\n  shl(0x20, tag_5)\n    /* \"contracts/TodoList.sol\":3344:3463  _addTodoInternal(\"20:00 - Learn a NEW skill. Could be a new coding concept, drawing, language... something different!\") */\n  0x20\n  shr\n  jump\t// in\ntag_15:\n    /* \"contracts/TodoList.sol\":3474:3581  _addTodoInternal(\"21:00 - Chill time / Screen time. Binge a show, game, or just vibe with friends online.\") */\n  tag_16\n  mload(0x40)\n  dup1\n  0x80\n  add\n  0x40\n  mstore\n  dup1\n  0x57\n  dup2\n  mstore\n  0x20\n  add\n  data_e5a0086adff866cafc29fe087d28f7854f144179b6ed1a711badeab8675d3f00\n  0x57\n  swap2\n  codecopy\n    /* \"contracts/TodoList.sol\":3474:3490  _addTodoInternal */\n  shl(0x20, tag_5)\n    /* \"contracts/TodoList.sol\":3474:3581  _addTodoInternal(\"21:00 - Chill time / Screen time. Binge a show, game, or just vibe with friends online.\") */\n  0x20\n  shr\n  jump\t// in\ntag_16:\n    /* \"contracts/TodoList.sol\":3592:3691  _addTodoInternal(\"22:30 - OFF SCREEN time. Put the phone AWAY. Read a book, journal, just exist. \") */\n  tag_17\n  mload(0x40)\n  dup1\n  0x80\n  add\n  0x40\n  mstore\n  dup1\n  0x4f\n  dup2\n  mstore\n  0x20\n  add\n  data_9c6d6d6985aa5fa3fad08781a98e1084fc5a066ba25a712d379f6abd5ba06b26\n  0x4f\n  swap2\n  codecopy\n    /* \"contracts/TodoList.sol\":3592:3608  _addTodoInternal */\n  shl(0x20, tag_5)\n    /* \"contracts/TodoList.sol\":3592:3691  _addTodoInternal(\"22:30 - OFF SCREEN time. Put the phone AWAY. Read a book, journal, just exist. \") */\n  0x20\n  shr\n  jump\t// in\ntag_17:\n    /* \"contracts/TodoList.sol\":3702:3786  _addTodoInternal(\"23:00 - Wind down routine. Get ready for bed. Another day done! \") */\n  tag_18\n  mload(0x40)\n  dup1\n  0x60\n  add\n  0x40\n  mstore\n  dup1\n  0x40\n  dup2\n  mstore\n  0x20\n  add\n  data_cc15f2ae1b442bc3acdcd194ef868578b59762058ecc78aa03ab982d27eec6f7\n  0x40\n  swap2\n  codecopy\n    /* \"contracts/TodoList.sol\":3702:3718  _addTodoInternal */\n  shl(0x20, tag_5)\n    /* \"contracts/TodoList.sol\":3702:3786  _addTodoInternal(\"23:00 - Wind down routine. Get ready for bed. Another day done! \") */\n  0x20\n  shr\n  jump\t// in\ntag_18:\n    /* \"contracts/TodoList.sol\":3797:3848  _addTodoInternal(\"23:30 - Sleep. Finally. Zzzz...\") */\n  tag_19\n  mload(0x40)\n  dup1\n  0x40\n  add\n  0x40\n  mstore\n  dup1\n  0x1f\n  dup2\n  mstore\n  0x20\n  add\n  0x32333a3330202d20536c6565702e2046696e616c6c792e205a7a7a7a2e2e2e00\n  dup2\n  mstore\n  pop\n    /* \"contracts/TodoList.sol\":3797:3813  _addTodoInternal */\n  shl(0x20, tag_5)\n    /* \"contracts/TodoList.sol\":3797:3848  _addTodoInternal(\"23:30 - Sleep. Finally. Zzzz...\") */\n  0x20\n  shr\n  jump\t// in\ntag_19:\n    /* \"contracts/TodoList.sol\":354:9885  contract TodoList {\r... */\n  jump(tag_20)\n    /* \"contracts/TodoList.sol\":4098:4571  function _addTodoInternal(string memory _content) internal {\r... */\ntag_5:\n    /* \"contracts/TodoList.sol\":4264:4317  Todo(nextTodoId, _content, TodoStatus.Pending, false) */\n  mload(0x40)\n  dup1\n  0x80\n  add\n  0x40\n  mstore\n  dup1\n    /* \"contracts/TodoList.sol\":4269:4279  nextTodoId */\n  sload(0x02)\n    /* \"contracts/TodoList.sol\":4264:4317  Todo(nextTodoId, _content, TodoStatus.Pending, false) */\n  dup2\n  mstore\n  0x20\n  add\n    /* \"contracts/TodoList.sol\":4281:4289  _content */\n  dup3\n    /* \"contracts/TodoList.sol\":4264:4317  Todo(nextTodoId, _content, TodoStatus.Pending, false) */\n  dup2\n  mstore\n  0x20\n  add\n    /* \"contracts/TodoList.sol\":4291:4309  TodoStatus.Pending */\n  0x00\n    /* \"contracts/TodoList.sol\":4264:4317  Todo(nextTodoId, _content, TodoStatus.Pending, false) */\n  0x03\n  dup2\n  gt\n  iszero\n  tag_22\n  jumpi\n  mstore(0x00, 0x4e487b7100000000000000000000000000000000000000000000000000000000)\n  mstore(0x04, 0x21)\n  revert(0x00, 0x24)\ntag_22:\n  dup2\n  mstore\n  0x20\n  add\n    /* \"contracts/TodoList.sol\":4311:4316  false */\n  0x00\n    /* \"contracts/TodoList.sol\":4264:4317  Todo(nextTodoId, _content, TodoStatus.Pending, false) */\n  iszero\n  iszero\n  dup2\n  mstore\n  pop\n    /* \"contracts/TodoList.sol\":4244:4249  todos */\n  0x00\n    /* \"contracts/TodoList.sol\":4244:4261  todos[nextTodoId] */\n  dup1\n    /* \"contracts/TodoList.sol\":4250:4260  nextTodoId */\n  sload(0x02)\n    /* \"contracts/TodoList.sol\":4244:4261  todos[nextTodoId] */\n  dup2\n  mstore\n  0x20\n  add\n  swap1\n  dup2\n  mstore\n  0x20\n  add\n  0x00\n  keccak256\n    /* \"contracts/TodoList.sol\":4244:4317  todos[nextTodoId] = Todo(nextTodoId, _content, TodoStatus.Pending, false) */\n  0x00\n  dup3\n  add\n  mload\n  dup2\n  0x00\n  add\n  sstore\n  0x20\n  dup3\n  add\n  mload\n  dup2\n  0x01\n  add\n  swap1\n  dup1\n  mload\n  swap1\n  0x20\n  add\n  swap1\n  tag_23\n  swap3\n  swap2\n  swap1\n  tag_24\n  jump\t// in\ntag_23:\n  pop\n  0x40\n  dup3\n  add\n  mload\n  dup2\n  0x02\n  add\n  exp(0x0100, 0x00)\n  dup2\n  sload\n  dup2\n  0xff\n  mul\n  not\n  and\n  swap1\n  dup4\n  0x03\n  dup2\n  gt\n  iszero\n  tag_25\n  jumpi\n  mstore(0x00, 0x4e487b7100000000000000000000000000000000000000000000000000000000)\n  mstore(0x04, 0x21)\n  revert(0x00, 0x24)\ntag_25:\n  mul\n  or\n  swap1\n  sstore\n  pop\n  0x60\n  dup3\n  add\n  mload\n  dup2\n  0x02\n  add\n  exp(0x0100, 0x01)\n  dup2\n  sload\n  dup2\n  0xff\n  mul\n  not\n  and\n  swap1\n  dup4\n  iszero\n  iszero\n  mul\n  or\n  swap1\n  sstore\n  pop\n  swap1\n  pop\n  pop\n    /* \"contracts/TodoList.sol\":4381:4388  todoIds */\n  0x01\n    /* \"contracts/TodoList.sol\":4394:4404  nextTodoId */\n  sload(0x02)\n    /* \"contracts/TodoList.sol\":4381:4405  todoIds.push(nextTodoId) */\n  swap1\n  dup1\n  0x01\n  dup2\n  sload\n  add\n  dup1\n  dup3\n  sstore\n  dup1\n  swap2\n  pop\n  pop\n  0x01\n  swap1\n  sub\n  swap1\n  0x00\n  mstore\n  keccak256(0x00, 0x20)\n  add\n  0x00\n  swap1\n  swap2\n  swap1\n  swap2\n  swap1\n  swap2\n  pop\n  sstore\n    /* \"contracts/TodoList.sol\":4456:4487  TodoAdded(nextTodoId, _content) */\n  0x606222d2d9b2ffe82e59c226d772a363312cfce0027119e88e27c4db155e882d\n    /* \"contracts/TodoList.sol\":4466:4476  nextTodoId */\n  sload(0x02)\n    /* \"contracts/TodoList.sol\":4478:4486  _content */\n  dup3\n    /* \"contracts/TodoList.sol\":4456:4487  TodoAdded(nextTodoId, _content) */\n  mload(0x40)\n  tag_27\n  swap3\n  swap2\n  swap1\n  tag_28\n  jump\t// in\ntag_27:\n  mload(0x40)\n  dup1\n  swap2\n  sub\n  swap1\n  log1\n    /* \"contracts/TodoList.sol\":4551:4561  nextTodoId */\n  0x02\n  0x00\n    /* \"contracts/TodoList.sol\":4551:4563  nextTodoId++ */\n  dup2\n  sload\n  dup1\n  swap3\n  swap2\n  swap1\n  tag_29\n  swap1\n  tag_30\n  jump\t// in\ntag_29:\n  swap2\n  swap1\n  pop\n  sstore\n  pop\n    /* \"contracts/TodoList.sol\":4098:4571  function _addTodoInternal(string memory _content) internal {\r... */\n  pop\n  jump\t// out\n    /* \"contracts/TodoList.sol\":354:9885  contract TodoList {\r... */\ntag_24:\n  dup3\n  dup1\n  sload\n  tag_31\n  swap1\n  tag_32\n  jump\t// in\ntag_31:\n  swap1\n  0x00\n  mstore\n  keccak256(0x00, 0x20)\n  swap1\n  0x1f\n  add\n  0x20\n  swap1\n  div\n  dup2\n  add\n  swap3\n  dup3\n  tag_34\n  jumpi\n  0x00\n  dup6\n  sstore\n  jump(tag_33)\ntag_34:\n  dup3\n  0x1f\n  lt\n  tag_35\n  jumpi\n  dup1\n  mload\n  not(0xff)\n  and\n  dup4\n  dup1\n  add\n  or\n  dup6\n  sstore\n  jump(tag_33)\ntag_35:\n  dup3\n  dup1\n  add\n  0x01\n  add\n  dup6\n  sstore\n  dup3\n  iszero\n  tag_33\n  jumpi\n  swap2\n  dup3\n  add\ntag_36:\n  dup3\n  dup2\n  gt\n  iszero\n  tag_37\n  jumpi\n  dup3\n  mload\n  dup3\n  sstore\n  swap2\n  0x20\n  add\n  swap2\n  swap1\n  0x01\n  add\n  swap1\n  jump(tag_36)\ntag_37:\ntag_33:\n  pop\n  swap1\n  pop\n  tag_38\n  swap2\n  swap1\n  tag_39\n  jump\t// in\ntag_38:\n  pop\n  swap1\n  jump\t// out\ntag_39:\ntag_40:\n  dup1\n  dup3\n  gt\n  iszero\n  tag_41\n  jumpi\n  0x00\n  dup2\n  0x00\n  swap1\n  sstore\n  pop\n  0x01\n  add\n  jump(tag_40)\ntag_41:\n  pop\n  swap1\n  jump\t// out\n    /* \"#utility.yul\":7:371   */\ntag_43:\n  0x00\n    /* \"#utility.yul\":123:162   */\n  tag_45\n    /* \"#utility.yul\":156:161   */\n  dup3\n    /* \"#utility.yul\":123:162   */\n  tag_46\n  jump\t// in\ntag_45:\n    /* \"#utility.yul\":178:249   */\n  tag_47\n    /* \"#utility.yul\":242:248   */\n  dup2\n    /* \"#utility.yul\":237:240   */\n  dup6\n    /* \"#utility.yul\":178:249   */\n  tag_48\n  jump\t// in\ntag_47:\n    /* \"#utility.yul\":171:249   */\n  swap4\n  pop\n    /* \"#utility.yul\":258:310   */\n  tag_49\n    /* \"#utility.yul\":303:309   */\n  dup2\n    /* \"#utility.yul\":298:301   */\n  dup6\n    /* \"#utility.yul\":291:295   */\n  0x20\n    /* \"#utility.yul\":284:289   */\n  dup7\n    /* \"#utility.yul\":280:296   */\n  add\n    /* \"#utility.yul\":258:310   */\n  tag_50\n  jump\t// in\ntag_49:\n    /* \"#utility.yul\":335:364   */\n  tag_51\n    /* \"#utility.yul\":357:363   */\n  dup2\n    /* \"#utility.yul\":335:364   */\n  tag_52\n  jump\t// in\ntag_51:\n    /* \"#utility.yul\":330:333   */\n  dup5\n    /* \"#utility.yul\":326:365   */\n  add\n    /* \"#utility.yul\":319:365   */\n  swap2\n  pop\n    /* \"#utility.yul\":99:371   */\n  pop\n  swap3\n  swap2\n  pop\n  pop\n  jump\t// out\n    /* \"#utility.yul\":377:495   */\ntag_53:\n    /* \"#utility.yul\":464:488   */\n  tag_55\n    /* \"#utility.yul\":482:487   */\n  dup2\n    /* \"#utility.yul\":464:488   */\n  tag_56\n  jump\t// in\ntag_55:\n    /* \"#utility.yul\":459:462   */\n  dup3\n    /* \"#utility.yul\":452:489   */\n  mstore\n    /* \"#utility.yul\":442:495   */\n  pop\n  pop\n  jump\t// out\n    /* \"#utility.yul\":501:924   */\ntag_28:\n  0x00\n    /* \"#utility.yul\":680:682   */\n  0x40\n    /* \"#utility.yul\":669:678   */\n  dup3\n    /* \"#utility.yul\":665:683   */\n  add\n    /* \"#utility.yul\":657:683   */\n  swap1\n  pop\n    /* \"#utility.yul\":693:764   */\n  tag_58\n    /* \"#utility.yul\":761:762   */\n  0x00\n    /* \"#utility.yul\":750:759   */\n  dup4\n    /* \"#utility.yul\":746:763   */\n  add\n    /* \"#utility.yul\":737:743   */\n  dup6\n    /* \"#utility.yul\":693:764   */\n  tag_53\n  jump\t// in\ntag_58:\n    /* \"#utility.yul\":811:820   */\n  dup2\n    /* \"#utility.yul\":805:809   */\n  dup2\n    /* \"#utility.yul\":801:821   */\n  sub\n    /* \"#utility.yul\":796:798   */\n  0x20\n    /* \"#utility.yul\":785:794   */\n  dup4\n    /* \"#utility.yul\":781:799   */\n  add\n    /* \"#utility.yul\":774:822   */\n  mstore\n    /* \"#utility.yul\":839:917   */\n  tag_59\n    /* \"#utility.yul\":912:916   */\n  dup2\n    /* \"#utility.yul\":903:909   */\n  dup5\n    /* \"#utility.yul\":839:917   */\n  tag_43\n  jump\t// in\ntag_59:\n    /* \"#utility.yul\":831:917   */\n  swap1\n  pop\n    /* \"#utility.yul\":647:924   */\n  swap4\n  swap3\n  pop\n  pop\n  pop\n  jump\t// out\n    /* \"#utility.yul\":930:1029   */\ntag_46:\n  0x00\n    /* \"#utility.yul\":1016:1021   */\n  dup2\n    /* \"#utility.yul\":1010:1022   */\n  mload\n    /* \"#utility.yul\":1000:1022   */\n  swap1\n  pop\n    /* \"#utility.yul\":989:1029   */\n  swap2\n  swap1\n  pop\n  jump\t// out\n    /* \"#utility.yul\":1035:1204   */\ntag_48:\n  0x00\n    /* \"#utility.yul\":1153:1159   */\n  dup3\n    /* \"#utility.yul\":1148:1151   */\n  dup3\n    /* \"#utility.yul\":1141:1160   */\n  mstore\n    /* \"#utility.yul\":1193:1197   */\n  0x20\n    /* \"#utility.yul\":1188:1191   */\n  dup3\n    /* \"#utility.yul\":1184:1198   */\n  add\n    /* \"#utility.yul\":1169:1198   */\n  swap1\n  pop\n    /* \"#utility.yul\":1131:1204   */\n  swap3\n  swap2\n  pop\n  pop\n  jump\t// out\n    /* \"#utility.yul\":1210:1287   */\ntag_56:\n  0x00\n    /* \"#utility.yul\":1276:1281   */\n  dup2\n    /* \"#utility.yul\":1265:1281   */\n  swap1\n  pop\n    /* \"#utility.yul\":1255:1287   */\n  swap2\n  swap1\n  pop\n  jump\t// out\n    /* \"#utility.yul\":1293:1600   */\ntag_50:\n    /* \"#utility.yul\":1361:1362   */\n  0x00\n    /* \"#utility.yul\":1371:1484   */\ntag_64:\n    /* \"#utility.yul\":1385:1391   */\n  dup4\n    /* \"#utility.yul\":1382:1383   */\n  dup2\n    /* \"#utility.yul\":1379:1392   */\n  lt\n    /* \"#utility.yul\":1371:1484   */\n  iszero\n  tag_66\n  jumpi\n    /* \"#utility.yul\":1470:1471   */\n  dup1\n    /* \"#utility.yul\":1465:1468   */\n  dup3\n    /* \"#utility.yul\":1461:1472   */\n  add\n    /* \"#utility.yul\":1455:1473   */\n  mload\n    /* \"#utility.yul\":1451:1452   */\n  dup2\n    /* \"#utility.yul\":1446:1449   */\n  dup5\n    /* \"#utility.yul\":1442:1453   */\n  add\n    /* \"#utility.yul\":1435:1474   */\n  mstore\n    /* \"#utility.yul\":1407:1409   */\n  0x20\n    /* \"#utility.yul\":1404:1405   */\n  dup2\n    /* \"#utility.yul\":1400:1410   */\n  add\n    /* \"#utility.yul\":1395:1410   */\n  swap1\n  pop\n    /* \"#utility.yul\":1371:1484   */\n  jump(tag_64)\ntag_66:\n    /* \"#utility.yul\":1502:1508   */\n  dup4\n    /* \"#utility.yul\":1499:1500   */\n  dup2\n    /* \"#utility.yul\":1496:1509   */\n  gt\n    /* \"#utility.yul\":1493:1495   */\n  iszero\n  tag_67\n  jumpi\n    /* \"#utility.yul\":1582:1583   */\n  0x00\n    /* \"#utility.yul\":1573:1579   */\n  dup5\n    /* \"#utility.yul\":1568:1571   */\n  dup5\n    /* \"#utility.yul\":1564:1580   */\n  add\n    /* \"#utility.yul\":1557:1584   */\n  mstore\n    /* \"#utility.yul\":1493:1495   */\ntag_67:\n    /* \"#utility.yul\":1342:1600   */\n  pop\n  pop\n  pop\n  pop\n  jump\t// out\n    /* \"#utility.yul\":1606:1926   */\ntag_32:\n  0x00\n    /* \"#utility.yul\":1687:1688   */\n  0x02\n    /* \"#utility.yul\":1681:1685   */\n  dup3\n    /* \"#utility.yul\":1677:1689   */\n  div\n    /* \"#utility.yul\":1667:1689   */\n  swap1\n  pop\n    /* \"#utility.yul\":1734:1735   */\n  0x01\n    /* \"#utility.yul\":1728:1732   */\n  dup3\n    /* \"#utility.yul\":1724:1736   */\n  and\n    /* \"#utility.yul\":1755:1773   */\n  dup1\n    /* \"#utility.yul\":1745:1747   */\n  tag_69\n  jumpi\n    /* \"#utility.yul\":1811:1815   */\n  0x7f\n    /* \"#utility.yul\":1803:1809   */\n  dup3\n    /* \"#utility.yul\":1799:1816   */\n  and\n    /* \"#utility.yul\":1789:1816   */\n  swap2\n  pop\n    /* \"#utility.yul\":1745:1747   */\ntag_69:\n    /* \"#utility.yul\":1873:1875   */\n  0x20\n    /* \"#utility.yul\":1865:1871   */\n  dup3\n    /* \"#utility.yul\":1862:1876   */\n  lt\n    /* \"#utility.yul\":1842:1860   */\n  dup2\n    /* \"#utility.yul\":1839:1877   */\n  eq\n    /* \"#utility.yul\":1836:1838   */\n  iszero\n  tag_70\n  jumpi\n    /* \"#utility.yul\":1892:1910   */\n  tag_71\n  tag_72\n  jump\t// in\ntag_71:\n    /* \"#utility.yul\":1836:1838   */\ntag_70:\n    /* \"#utility.yul\":1657:1926   */\n  pop\n  swap2\n  swap1\n  pop\n  jump\t// out\n    /* \"#utility.yul\":1932:2165   */\ntag_30:\n  0x00\n    /* \"#utility.yul\":1994:2018   */\n  tag_74\n    /* \"#utility.yul\":2012:2017   */\n  dup3\n    /* \"#utility.yul\":1994:2018   */\n  tag_56\n  jump\t// in\ntag_74:\n    /* \"#utility.yul\":1985:2018   */\n  swap2\n  pop\n    /* \"#utility.yul\":2040:2106   */\n  0xffffffffffffffffffffffffffffffffffffffffffffffffffffffffffffffff\n    /* \"#utility.yul\":2033:2038   */\n  dup3\n    /* \"#utility.yul\":2030:2107   */\n  eq\n    /* \"#utility.yul\":2027:2029   */\n  iszero\n  tag_75\n  jumpi\n    /* \"#utility.yul\":2110:2128   */\n  tag_76\n  tag_77\n  jump\t// in\ntag_76:\n    /* \"#utility.yul\":2027:2029   */\ntag_75:\n    /* \"#utility.yul\":2157:2158   */\n  0x01\n    /* \"#utility.yul\":2150:2155   */\n  dup3\n    /* \"#utility.yul\":2146:2159   */\n  add\n    /* \"#utility.yul\":2139:2159   */\n  swap1\n  pop\n    /* \"#utility.yul\":1975:2165   */\n  swap2\n  swap1\n  pop\n  jump\t// out\n    /* \"#utility.yul\":2171:2351   */\ntag_77:\n    /* \"#utility.yul\":2219:2296   */\n  0x4e487b7100000000000000000000000000000000000000000000000000000000\n    /* \"#utility.yul\":2216:2217   */\n  0x00\n    /* \"#utility.yul\":2209:2297   */\n  mstore\n    /* \"#utility.yul\":2316:2320   */\n  0x11\n    /* \"#utility.yul\":2313:2314   */\n  0x04\n    /* \"#utility.yul\":2306:2321   */\n  mstore\n    /* \"#utility.yul\":2340:2344   */\n  0x24\n    /* \"#utility.yul\":2337:2338   */\n  0x00\n    /* \"#utility.yul\":2330:2345   */\n  revert\n    /* \"#utility.yul\":2357:2537   */\ntag_72:\n    /* \"#utility.yul\":2405:2482   */\n  0x4e487b7100000000000000000000000000000000000000000000000000000000\n    /* \"#utility.yul\":2402:2403   */\n  0x00\n    /* \"#utility.yul\":2395:2483   */\n  mstore\n    /* \"#utility.yul\":2502:2506   */\n  0x22\n    /* \"#utility.yul\":2499:2500   */\n  0x04\n    /* \"#utility.yul\":2492:2507   */\n  mstore\n    /* \"#utility.yul\":2526:2530   */\n  0x24\n    /* \"#utility.yul\":2523:2524   */\n  0x00\n    /* \"#utility.yul\":2516:2531   */\n  revert\n    /* \"#utility.yul\":2543:2645   */\ntag_52:\n  0x00\n    /* \"#utility.yul\":2635:2637   */\n  0x1f\n    /* \"#utility.yul\":2631:2638   */\n  not\n    /* \"#utility.yul\":2626:2628   */\n  0x1f\n    /* \"#utility.yul\":2619:2624   */\n  dup4\n    /* \"#utility.yul\":2615:2629   */\n  add\n    /* \"#utility.yul\":2611:2639   */\n  and\n    /* \"#utility.yul\":2601:2639   */\n  swap1\n  pop\n    /* \"#utility.yul\":2591:2645   */\n  swap2\n  swap1\n  pop\n  jump\t// out\n    /* \"contracts/TodoList.sol\":354:9885  contract TodoList {\r... */\ntag_20:\n  dataSize(sub_0)\n  dup1\n  dataOffset(sub_0)\n  0x00\n  codecopy\n  0x00\n  return\nstop\ndata_15e6fb0cfd53e17addb0d53a53a9b8b2a3c851660b8ae975399c7e121ba9b26e 30383a3030202d20517569636b20627265616b666173742e2043657265616c3f20546f6173743f205768617465766572277320666173746573742e\ndata_210688df644915defe621f78d3b567f4b7e214ba04898c7779d4dd8a92391dc2 30373a3330202d2053686f7765722074696d652120476f747461206c6f6f6b20667265736820666f722074686520776f726c6420286f72206a757374205a6f6f6d292e\ndata_365b935bcddce1a58d47fafa3fb150c99c2840d0c82a7134525ed4c3eb595d68 30383a3330202d20436f6d6d7574652f47657420726561647920666f72206f6e6c696e6520636c61737365732e205669626520636865636b3a2072656164792e\ndata_3e0a84a540ee87f88feb800081793e17fa8a5b4881fd45b66c6ed46db7c338fb 31383a3030202d204c69736b2041667269636120426f6f7463616d7020436c617373212054696d6520746f206c6576656c2075702074686f736520626c6f636b636861696e20736b696c6c732e\ndata_594fd42faeb7b2f257e5d221097ab872bb568909dfd5c696e93b702536305df8 30373a3135202d204f6b61792c2041435455414c4c5920676574206f7574206f66206265642e204d616b65206974206c6f6f6b2070726573656e7461626c652c206d6f6d206d6967687420636865636b2e\ndata_5d5df31ceddef050c9d49d88dc295be31cd99333ba6799d39eb15db35fe9c986 32303a3030202d204c6561726e2061204e455720736b696c6c2e20436f756c642062652061206e657720636f64696e6720636f6e636570742c2064726177696e672c206c616e67756167652e2e2e20736f6d657468696e6720646966666572656e7421\ndata_6f06f8a8efce5ab835d3f2dc0708794b08e530be73c668239190a08f09c8bb51 31333a3030202d2044656570206469766520696e746f20636f64696e672e203420686f757273206d696e696d756d206772696e642e204275672068756e74696e6720736561736f6e21\ndata_7f7399612f7f5567c1c6be93ddf462bc10553c95b0e5d80bea49fddd7e5be826 31393a3030202d2044696e6e65722074696d652e204d6179626520636f6f6b20736f6d657468696e672c206d61796265206f7264657220696e2e204465636973696f6e732c206465636973696f6e732e\ndata_86e3b7c3616e148ccd8108d4e3ed5a7749d2c918ac73fcdf9109a92b662b3150 30393a3030202d20417474656e64204d6f726e696e6720436c61737365732e20547279206e6f7420746f2066616c6c2061736c6565702e\ndata_9c6d6d6985aa5fa3fad08781a98e1084fc5a066ba25a712d379f6abd5ba06b26 32323a3330202d204f46462053435245454e2074696d652e20507574207468652070686f6e6520415741592e2052656164206120626f6f6b2c206a6f75726e616c2c206a7573742065786973742e20\ndata_a5868f56de258f6d893b94b863a2fdbbf9f3d263a7d2bb57cb8c286b715eaef1 31323a3030202d204c756e636820627265616b212052656675656c2074696d652e2057686174277320636f6f6b696e673f20\ndata_cc15f2ae1b442bc3acdcd194ef868578b59762058ecc78aa03ab982d27eec6f7 32333a3030202d2057696e6420646f776e20726f7574696e652e2047657420726561647920666f72206265642e20416e6f746865722064617920646f6e652120\ndata_e5a0086adff866cafc29fe087d28f7854f144179b6ed1a711badeab8675d3f00 32313a3030202d204368696c6c2074696d65202f2053637265656e2074696d652e2042696e676520612073686f772c2067616d652c206f72206a7573742076696265207769746820667269656e6473206f6e6c696e652e\ndata_f5845e454d2b668eeb87c7d73a1d77b25a4beb4a8aee4623eb016f2d9195e8ab 31373a3030202d20427265616b2074696d6521205363726f6c6c2054696b546f6b2c20687964726174652c20737472657463682e2052656368617267652e20\n\nsub_0: assembly {\n        /* \"contracts/TodoList.sol\":354:9885  contract TodoList {\r... */\n      mstore(0x40, 0x80)\n      callvalue\n      dup1\n      iszero\n      tag_1\n      jumpi\n      0x00\n      dup1\n      revert\n    tag_1:\n      pop\n      jumpi(tag_2, lt(calldatasize, 0x04))\n      shr(0xe0, calldataload(0x00))\n      dup1\n      0x6e3c6738\n      gt\n      tag_12\n      jumpi\n      dup1\n      0x6e3c6738\n      eq\n      tag_7\n      jumpi\n      dup1\n      0x95ffebf5\n      eq\n      tag_8\n      jumpi\n      dup1\n      0xce2bd5d5\n      eq\n      tag_9\n      jumpi\n      dup1\n      0xd368ca4d\n      eq\n      tag_10\n      jumpi\n      dup1\n      0xdd68afb6\n      eq\n      tag_11\n      jumpi\n      jump(tag_2)\n    tag_12:\n      dup1\n      0x03c5c31f\n      eq\n      tag_3\n      jumpi\n      dup1\n      0x1b928946\n      eq\n      tag_4\n      jumpi\n      dup1\n      0x25612dc6\n      eq\n      tag_5\n      jumpi\n      dup1\n      0x3a1b3d31\n      eq\n      tag_6\n      jumpi\n    tag_2:\n      0x00\n      dup1\n      revert\n        /* \"contracts/TodoList.sol\":1492:1513  uint[] public todoIds */\n    tag_3:\n      tag_13\n      0x04\n      dup1\n      calldatasize\n      sub\n      dup2\n      add\n      swap1\n      tag_14\n      swap2\n      swap1\n      tag_15\n      jump\t// in\n    tag_14:\n      tag_16\n      jump\t// in\n    tag_13:\n      mload(0x40)\n      tag_17\n      swap2\n      swap1\n      tag_18\n      jump\t// in\n    tag_17:\n      mload(0x40)\n      dup1\n      swap2\n      sub\n      swap1\n      return\n        /* \"contracts/TodoList.sol\":8648:8790  function getTotalTodos() public view returns (uint) {\r... */\n    tag_4:\n      tag_19\n      tag_20\n      jump\t// in\n    tag_19:\n      mload(0x40)\n      tag_21\n      swap2\n      swap1\n      tag_18\n      jump\t// in\n    tag_21:\n      mload(0x40)\n      dup1\n      swap2\n      sub\n      swap1\n      return\n        /* \"contracts/TodoList.sol\":6032:6746  function updateContent(uint _id, string memory _newContent) public {\r... */\n    tag_5:\n      tag_22\n      0x04\n      dup1\n      calldatasize\n      sub\n      dup2\n      add\n      swap1\n      tag_23\n      swap2\n      swap1\n      tag_24\n      jump\t// in\n    tag_23:\n      tag_25\n      jump\t// in\n    tag_22:\n      stop\n        /* \"contracts/TodoList.sol\":5254:5798  function updateStatus(uint _id, TodoStatus _status) public {\r... */\n    tag_6:\n      tag_26\n      0x04\n      dup1\n      calldatasize\n      sub\n      dup2\n      add\n      swap1\n      tag_27\n      swap2\n      swap1\n      tag_28\n      jump\t// in\n    tag_27:\n      tag_29\n      jump\t// in\n    tag_26:\n      stop\n        /* \"contracts/TodoList.sol\":6919:7685  function deleteTodo(uint _id) public {\r... */\n    tag_7:\n      tag_30\n      0x04\n      dup1\n      calldatasize\n      sub\n      dup2\n      add\n      swap1\n      tag_31\n      swap2\n      swap1\n      tag_15\n      jump\t// in\n    tag_31:\n      tag_32\n      jump\t// in\n    tag_30:\n      stop\n        /* \"contracts/TodoList.sol\":4745:5018  function addTodo(string memory _content) public {\r... */\n    tag_8:\n      tag_33\n      0x04\n      dup1\n      calldatasize\n      sub\n      dup2\n      add\n      swap1\n      tag_34\n      swap2\n      swap1\n      tag_35\n      jump\t// in\n    tag_34:\n      tag_36\n      jump\t// in\n    tag_33:\n      stop\n        /* \"contracts/TodoList.sol\":9300:9882  function getAllTodos() public view returns (Todo[] memory) {\r... */\n    tag_9:\n      tag_37\n      tag_38\n      jump\t// in\n    tag_37:\n      mload(0x40)\n      tag_39\n      swap2\n      swap1\n      tag_40\n      jump\t// in\n    tag_39:\n      mload(0x40)\n      dup1\n      swap2\n      sub\n      swap1\n      return\n        /* \"contracts/TodoList.sol\":8941:9066  function getAllTodoIds() public view returns (uint[] memory) {\r... */\n    tag_10:\n      tag_41\n      tag_42\n      jump\t// in\n    tag_41:\n      mload(0x40)\n      tag_43\n      swap2\n      swap1\n      tag_44\n      jump\t// in\n    tag_43:\n      mload(0x40)\n      dup1\n      swap2\n      sub\n      swap1\n      return\n        /* \"contracts/TodoList.sol\":8012:8492  function getTodo(uint _id) public view returns (uint id, string memory content, TodoStatus status, bool isDeleted) {\r... */\n    tag_11:\n      tag_45\n      0x04\n      dup1\n      calldatasize\n      sub\n      dup2\n      add\n      swap1\n      tag_46\n      swap2\n      swap1\n      tag_15\n      jump\t// in\n    tag_46:\n      tag_47\n      jump\t// in\n    tag_45:\n      mload(0x40)\n      tag_48\n      swap5\n      swap4\n      swap3\n      swap2\n      swap1\n      tag_49\n      jump\t// in\n    tag_48:\n      mload(0x40)\n      dup1\n      swap2\n      sub\n      swap1\n      return\n        /* \"contracts/TodoList.sol\":1492:1513  uint[] public todoIds */\n    tag_16:\n      0x01\n      dup2\n      dup2\n      sload\n      dup2\n      lt\n      tag_50\n      jumpi\n      0x00\n      dup1\n      revert\n    tag_50:\n      swap1\n      0x00\n      mstore\n      keccak256(0x00, 0x20)\n      add\n      0x00\n      swap2\n      pop\n      swap1\n      pop\n      sload\n      dup2\n      jump\t// out\n        /* \"contracts/TodoList.sol\":8648:8790  function getTotalTodos() public view returns (uint) {\r... */\n    tag_20:\n        /* \"contracts/TodoList.sol\":8694:8698  uint */\n      0x00\n        /* \"contracts/TodoList.sol\":8718:8728  nextTodoId */\n      sload(0x02)\n        /* \"contracts/TodoList.sol\":8711:8728  return nextTodoId */\n      swap1\n      pop\n        /* \"contracts/TodoList.sol\":8648:8790  function getTotalTodos() public view returns (uint) {\r... */\n      swap1\n      jump\t// out\n        /* \"contracts/TodoList.sol\":6032:6746  function updateContent(uint _id, string memory _newContent) public {\r... */\n    tag_25:\n        /* \"contracts/TodoList.sol\":6220:6230  nextTodoId */\n      sload(0x02)\n        /* \"contracts/TodoList.sol\":6214:6217  _id */\n      dup3\n        /* \"contracts/TodoList.sol\":6214:6230  _id < nextTodoId */\n      lt\n        /* \"contracts/TodoList.sol\":6206:6288  require(_id < nextTodoId, \"TodoList: Invalid todo ID. Does that task even exist?\") */\n      tag_54\n      jumpi\n      mload(0x40)\n      0x08c379a000000000000000000000000000000000000000000000000000000000\n      dup2\n      mstore\n      0x04\n      add\n      tag_55\n      swap1\n      tag_56\n      jump\t// in\n    tag_55:\n      mload(0x40)\n      dup1\n      swap2\n      sub\n      swap1\n      revert\n    tag_54:\n        /* \"contracts/TodoList.sol\":6308:6313  todos */\n      0x00\n        /* \"contracts/TodoList.sol\":6308:6318  todos[_id] */\n      dup1\n        /* \"contracts/TodoList.sol\":6314:6317  _id */\n      dup4\n        /* \"contracts/TodoList.sol\":6308:6318  todos[_id] */\n      dup2\n      mstore\n      0x20\n      add\n      swap1\n      dup2\n      mstore\n      0x20\n      add\n      0x00\n      keccak256\n        /* \"contracts/TodoList.sol\":6308:6328  todos[_id].isDeleted */\n      0x02\n      add\n      0x01\n      swap1\n      sload\n      swap1\n      0x0100\n      exp\n      swap1\n      div\n      0xff\n      and\n        /* \"contracts/TodoList.sol\":6307:6328  !todos[_id].isDeleted */\n      iszero\n        /* \"contracts/TodoList.sol\":6299:6383  require(!todos[_id].isDeleted, \"TodoList: Cannot update content of a deleted todo.\") */\n      tag_57\n      jumpi\n      mload(0x40)\n      0x08c379a000000000000000000000000000000000000000000000000000000000\n      dup2\n      mstore\n      0x04\n      add\n      tag_58\n      swap1\n      tag_59\n      jump\t// in\n    tag_58:\n      mload(0x40)\n      dup1\n      swap2\n      sub\n      swap1\n      revert\n    tag_57:\n        /* \"contracts/TodoList.sol\":6503:6504  0 */\n      0x00\n        /* \"contracts/TodoList.sol\":6481:6492  _newContent */\n      dup2\n        /* \"contracts/TodoList.sol\":6475:6500  bytes(_newContent).length */\n      mload\n        /* \"contracts/TodoList.sol\":6475:6504  bytes(_newContent).length > 0 */\n      gt\n        /* \"contracts/TodoList.sol\":6467:6547  require(bytes(_newContent).length > 0, \"TodoList: New content cannot be empty.\") */\n      tag_60\n      jumpi\n      mload(0x40)\n      0x08c379a000000000000000000000000000000000000000000000000000000000\n      dup2\n      mstore\n      0x04\n      add\n      tag_61\n      swap1\n      tag_62\n      jump\t// in\n    tag_61:\n      mload(0x40)\n      dup1\n      swap2\n      sub\n      swap1\n      revert\n    tag_60:\n        /* \"contracts/TodoList.sol\":6625:6636  _newContent */\n      dup1\n        /* \"contracts/TodoList.sol\":6604:6609  todos */\n      0x00\n        /* \"contracts/TodoList.sol\":6604:6614  todos[_id] */\n      dup1\n        /* \"contracts/TodoList.sol\":6610:6613  _id */\n      dup5\n        /* \"contracts/TodoList.sol\":6604:6614  todos[_id] */\n      dup2\n      mstore\n      0x20\n      add\n      swap1\n      dup2\n      mstore\n      0x20\n      add\n      0x00\n      keccak256\n        /* \"contracts/TodoList.sol\":6604:6622  todos[_id].content */\n      0x01\n      add\n        /* \"contracts/TodoList.sol\":6604:6636  todos[_id].content = _newContent */\n      swap1\n      dup1\n      mload\n      swap1\n      0x20\n      add\n      swap1\n      tag_63\n      swap3\n      swap2\n      swap1\n      tag_64\n      jump\t// in\n    tag_63:\n      pop\n        /* \"contracts/TodoList.sol\":6702:6738  TodoContentUpdated(_id, _newContent) */\n      0xc478b8a63a4158def2751d2a6fc5f39261df9570cbe0dc92d17dd079ad14904a\n        /* \"contracts/TodoList.sol\":6721:6724  _id */\n      dup3\n        /* \"contracts/TodoList.sol\":6726:6737  _newContent */\n      dup3\n        /* \"contracts/TodoList.sol\":6702:6738  TodoContentUpdated(_id, _newContent) */\n      mload(0x40)\n      tag_65\n      swap3\n      swap2\n      swap1\n      tag_66\n      jump\t// in\n    tag_65:\n      mload(0x40)\n      dup1\n      swap2\n      sub\n      swap1\n      log1\n        /* \"contracts/TodoList.sol\":6032:6746  function updateContent(uint _id, string memory _newContent) public {\r... */\n      pop\n      pop\n      jump\t// out\n        /* \"contracts/TodoList.sol\":5254:5798  function updateStatus(uint _id, TodoStatus _status) public {\r... */\n    tag_29:\n        /* \"contracts/TodoList.sol\":5433:5443  nextTodoId */\n      sload(0x02)\n        /* \"contracts/TodoList.sol\":5427:5430  _id */\n      dup3\n        /* \"contracts/TodoList.sol\":5427:5443  _id < nextTodoId */\n      lt\n        /* \"contracts/TodoList.sol\":5419:5502  require(_id < nextTodoId, \"TodoList: Invalid todo ID. Does that task even exist? \") */\n      tag_68\n      jumpi\n      mload(0x40)\n      0x08c379a000000000000000000000000000000000000000000000000000000000\n      dup2\n      mstore\n      0x04\n      add\n      tag_69\n      swap1\n      tag_70\n      jump\t// in\n    tag_69:\n      mload(0x40)\n      dup1\n      swap2\n      sub\n      swap1\n      revert\n    tag_68:\n        /* \"contracts/TodoList.sol\":5522:5527  todos */\n      0x00\n        /* \"contracts/TodoList.sol\":5522:5532  todos[_id] */\n      dup1\n        /* \"contracts/TodoList.sol\":5528:5531  _id */\n      dup4\n        /* \"contracts/TodoList.sol\":5522:5532  todos[_id] */\n      dup2\n      mstore\n      0x20\n      add\n      swap1\n      dup2\n      mstore\n      0x20\n      add\n      0x00\n      keccak256\n        /* \"contracts/TodoList.sol\":5522:5542  todos[_id].isDeleted */\n      0x02\n      add\n      0x01\n      swap1\n      sload\n      swap1\n      0x0100\n      exp\n      swap1\n      div\n      0xff\n      and\n        /* \"contracts/TodoList.sol\":5521:5542  !todos[_id].isDeleted */\n      iszero\n        /* \"contracts/TodoList.sol\":5513:5596  require(!todos[_id].isDeleted, \"TodoList: Cannot update status of a deleted todo.\") */\n      tag_71\n      jumpi\n      mload(0x40)\n      0x08c379a000000000000000000000000000000000000000000000000000000000\n      dup2\n      mstore\n      0x04\n      add\n      tag_72\n      swap1\n      tag_73\n      jump\t// in\n    tag_72:\n      mload(0x40)\n      dup1\n      swap2\n      sub\n      swap1\n      revert\n    tag_71:\n        /* \"contracts/TodoList.sol\":5687:5694  _status */\n      dup1\n        /* \"contracts/TodoList.sol\":5667:5672  todos */\n      0x00\n        /* \"contracts/TodoList.sol\":5667:5677  todos[_id] */\n      dup1\n        /* \"contracts/TodoList.sol\":5673:5676  _id */\n      dup5\n        /* \"contracts/TodoList.sol\":5667:5677  todos[_id] */\n      dup2\n      mstore\n      0x20\n      add\n      swap1\n      dup2\n      mstore\n      0x20\n      add\n      0x00\n      keccak256\n        /* \"contracts/TodoList.sol\":5667:5684  todos[_id].status */\n      0x02\n      add\n      0x00\n        /* \"contracts/TodoList.sol\":5667:5694  todos[_id].status = _status */\n      0x0100\n      exp\n      dup2\n      sload\n      dup2\n      0xff\n      mul\n      not\n      and\n      swap1\n      dup4\n      0x03\n      dup2\n      gt\n      iszero\n      tag_74\n      jumpi\n      mstore(0x00, 0x4e487b7100000000000000000000000000000000000000000000000000000000)\n      mstore(0x04, 0x21)\n      revert(0x00, 0x24)\n    tag_74:\n      mul\n      or\n      swap1\n      sstore\n      pop\n        /* \"contracts/TodoList.sol\":5759:5790  TodoStatusUpdated(_id, _status) */\n      0xa2ac6e13d73f6324f71f35c45e0c9a3e0678b88f564555fb214e1219f073a4d9\n        /* \"contracts/TodoList.sol\":5777:5780  _id */\n      dup3\n        /* \"contracts/TodoList.sol\":5782:5789  _status */\n      dup3\n        /* \"contracts/TodoList.sol\":5759:5790  TodoStatusUpdated(_id, _status) */\n      mload(0x40)\n      tag_75\n      swap3\n      swap2\n      swap1\n      tag_76\n      jump\t// in\n    tag_75:\n      mload(0x40)\n      dup1\n      swap2\n      sub\n      swap1\n      log1\n        /* \"contracts/TodoList.sol\":5254:5798  function updateStatus(uint _id, TodoStatus _status) public {\r... */\n      pop\n      pop\n      jump\t// out\n        /* \"contracts/TodoList.sol\":6919:7685  function deleteTodo(uint _id) public {\r... */\n    tag_32:\n        /* \"contracts/TodoList.sol\":7076:7086  nextTodoId */\n      sload(0x02)\n        /* \"contracts/TodoList.sol\":7070:7073  _id */\n      dup2\n        /* \"contracts/TodoList.sol\":7070:7086  _id < nextTodoId */\n      lt\n        /* \"contracts/TodoList.sol\":7062:7144  require(_id < nextTodoId, \"TodoList: Invalid todo ID. Does that task even exist?\") */\n      tag_78\n      jumpi\n      mload(0x40)\n      0x08c379a000000000000000000000000000000000000000000000000000000000\n      dup2\n      mstore\n      0x04\n      add\n      tag_79\n      swap1\n      tag_56\n      jump\t// in\n    tag_79:\n      mload(0x40)\n      dup1\n      swap2\n      sub\n      swap1\n      revert\n    tag_78:\n        /* \"contracts/TodoList.sol\":7164:7169  todos */\n      0x00\n        /* \"contracts/TodoList.sol\":7164:7174  todos[_id] */\n      dup1\n        /* \"contracts/TodoList.sol\":7170:7173  _id */\n      dup3\n        /* \"contracts/TodoList.sol\":7164:7174  todos[_id] */\n      dup2\n      mstore\n      0x20\n      add\n      swap1\n      dup2\n      mstore\n      0x20\n      add\n      0x00\n      keccak256\n        /* \"contracts/TodoList.sol\":7164:7184  todos[_id].isDeleted */\n      0x02\n      add\n      0x01\n      swap1\n      sload\n      swap1\n      0x0100\n      exp\n      swap1\n      div\n      0xff\n      and\n        /* \"contracts/TodoList.sol\":7163:7184  !todos[_id].isDeleted */\n      iszero\n        /* \"contracts/TodoList.sol\":7155:7223  require(!todos[_id].isDeleted, \"TodoList: Todo is already deleted.\") */\n      tag_80\n      jumpi\n      mload(0x40)\n      0x08c379a000000000000000000000000000000000000000000000000000000000\n      dup2\n      mstore\n      0x04\n      add\n      tag_81\n      swap1\n      tag_82\n      jump\t// in\n    tag_81:\n      mload(0x40)\n      dup1\n      swap2\n      sub\n      swap1\n      revert\n    tag_80:\n        /* \"contracts/TodoList.sol\":7297:7301  true */\n      0x01\n        /* \"contracts/TodoList.sol\":7274:7279  todos */\n      0x00\n        /* \"contracts/TodoList.sol\":7274:7284  todos[_id] */\n      dup1\n        /* \"contracts/TodoList.sol\":7280:7283  _id */\n      dup4\n        /* \"contracts/TodoList.sol\":7274:7284  todos[_id] */\n      dup2\n      mstore\n      0x20\n      add\n      swap1\n      dup2\n      mstore\n      0x20\n      add\n      0x00\n      keccak256\n        /* \"contracts/TodoList.sol\":7274:7294  todos[_id].isDeleted */\n      0x02\n      add\n      0x01\n        /* \"contracts/TodoList.sol\":7274:7301  todos[_id].isDeleted = true */\n      0x0100\n      exp\n      dup2\n      sload\n      dup2\n      0xff\n      mul\n      not\n      and\n      swap1\n      dup4\n      iszero\n      iszero\n      mul\n      or\n      swap1\n      sstore\n      pop\n        /* \"contracts/TodoList.sol\":7391:7409  TodoStatus.Deleted */\n      0x03\n        /* \"contracts/TodoList.sol\":7371:7376  todos */\n      0x00\n        /* \"contracts/TodoList.sol\":7371:7381  todos[_id] */\n      dup1\n        /* \"contracts/TodoList.sol\":7377:7380  _id */\n      dup4\n        /* \"contracts/TodoList.sol\":7371:7381  todos[_id] */\n      dup2\n      mstore\n      0x20\n      add\n      swap1\n      dup2\n      mstore\n      0x20\n      add\n      0x00\n      keccak256\n        /* \"contracts/TodoList.sol\":7371:7388  todos[_id].status */\n      0x02\n      add\n      0x00\n        /* \"contracts/TodoList.sol\":7371:7409  todos[_id].status = TodoStatus.Deleted */\n      0x0100\n      exp\n      dup2\n      sload\n      dup2\n      0xff\n      mul\n      not\n      and\n      swap1\n      dup4\n      0x03\n      dup2\n      gt\n      iszero\n      tag_83\n      jumpi\n      mstore(0x00, 0x4e487b7100000000000000000000000000000000000000000000000000000000)\n      mstore(0x04, 0x21)\n      revert(0x00, 0x24)\n    tag_83:\n      mul\n      or\n      swap1\n      sstore\n      pop\n        /* \"contracts/TodoList.sol\":7471:7487  TodoDeleted(_id) */\n      0x1072e4eeea43a52d09f5b6dfc870a079948f706133840ce9239aebc57fabb65f\n        /* \"contracts/TodoList.sol\":7483:7486  _id */\n      dup2\n        /* \"contracts/TodoList.sol\":7471:7487  TodoDeleted(_id) */\n      mload(0x40)\n      tag_84\n      swap2\n      swap1\n      tag_18\n      jump\t// in\n    tag_84:\n      mload(0x40)\n      dup1\n      swap2\n      sub\n      swap1\n      log1\n        /* \"contracts/TodoList.sol\":6919:7685  function deleteTodo(uint _id) public {\r... */\n      pop\n      jump\t// out\n        /* \"contracts/TodoList.sol\":4745:5018  function addTodo(string memory _content) public {\r... */\n    tag_36:\n        /* \"contracts/TodoList.sol\":4906:4907  0 */\n      0x00\n        /* \"contracts/TodoList.sol\":4887:4895  _content */\n      dup2\n        /* \"contracts/TodoList.sol\":4881:4903  bytes(_content).length */\n      mload\n        /* \"contracts/TodoList.sol\":4881:4907  bytes(_content).length > 0 */\n      gt\n        /* \"contracts/TodoList.sol\":4873:4946  require(bytes(_content).length > 0, \"TodoList: Content cannot be empty.\") */\n      tag_86\n      jumpi\n      mload(0x40)\n      0x08c379a000000000000000000000000000000000000000000000000000000000\n      dup2\n      mstore\n      0x04\n      add\n      tag_87\n      swap1\n      tag_88\n      jump\t// in\n    tag_87:\n      mload(0x40)\n      dup1\n      swap2\n      sub\n      swap1\n      revert\n    tag_86:\n        /* \"contracts/TodoList.sol\":4957:4983  _addTodoInternal(_content) */\n      tag_89\n        /* \"contracts/TodoList.sol\":4974:4982  _content */\n      dup2\n        /* \"contracts/TodoList.sol\":4957:4973  _addTodoInternal */\n      tag_90\n        /* \"contracts/TodoList.sol\":4957:4983  _addTodoInternal(_content) */\n      jump\t// in\n    tag_89:\n        /* \"contracts/TodoList.sol\":4745:5018  function addTodo(string memory _content) public {\r... */\n      pop\n      jump\t// out\n        /* \"contracts/TodoList.sol\":9300:9882  function getAllTodos() public view returns (Todo[] memory) {\r... */\n    tag_38:\n        /* \"contracts/TodoList.sol\":9344:9357  Todo[] memory */\n      0x60\n        /* \"contracts/TodoList.sol\":9498:9520  Todo[] memory allTodos */\n      0x00\n        /* \"contracts/TodoList.sol\":9534:9544  nextTodoId */\n      sload(0x02)\n        /* \"contracts/TodoList.sol\":9523:9545  new Todo[](nextTodoId) */\n      0xffffffffffffffff\n      dup2\n      gt\n      iszero\n      tag_92\n      jumpi\n      mstore(0x00, 0x4e487b7100000000000000000000000000000000000000000000000000000000)\n      mstore(0x04, 0x41)\n      revert(0x00, 0x24)\n    tag_92:\n      mload(0x40)\n      swap1\n      dup1\n      dup3\n      mstore\n      dup1\n      0x20\n      mul\n      0x20\n      add\n      dup3\n      add\n      0x40\n      mstore\n      dup1\n      iszero\n      tag_93\n      jumpi\n      dup2\n      0x20\n      add\n    tag_94:\n      tag_95\n      tag_96\n      jump\t// in\n    tag_95:\n      dup2\n      mstore\n      0x20\n      add\n      swap1\n      0x01\n      swap1\n      sub\n      swap1\n      dup2\n      tag_94\n      jumpi\n      swap1\n      pop\n    tag_93:\n      pop\n        /* \"contracts/TodoList.sol\":9498:9545  Todo[] memory allTodos = new Todo[](nextTodoId) */\n      swap1\n      pop\n        /* \"contracts/TodoList.sol\":9636:9642  uint i */\n      0x00\n        /* \"contracts/TodoList.sol\":9631:9789  for (uint i = 0; i < nextTodoId; i++) {\r... */\n    tag_97:\n        /* \"contracts/TodoList.sol\":9652:9662  nextTodoId */\n      sload(0x02)\n        /* \"contracts/TodoList.sol\":9648:9649  i */\n      dup2\n        /* \"contracts/TodoList.sol\":9648:9662  i < nextTodoId */\n      lt\n        /* \"contracts/TodoList.sol\":9631:9789  for (uint i = 0; i < nextTodoId; i++) {\r... */\n      iszero\n      tag_98\n      jumpi\n        /* \"contracts/TodoList.sol\":9769:9774  todos */\n      0x00\n        /* \"contracts/TodoList.sol\":9769:9777  todos[i] */\n      dup1\n        /* \"contracts/TodoList.sol\":9775:9776  i */\n      dup3\n        /* \"contracts/TodoList.sol\":9769:9777  todos[i] */\n      dup2\n      mstore\n      0x20\n      add\n      swap1\n      dup2\n      mstore\n      0x20\n      add\n      0x00\n      keccak256\n        /* \"contracts/TodoList.sol\":9755:9777  allTodos[i] = todos[i] */\n      mload(0x40)\n      dup1\n      0x80\n      add\n      0x40\n      mstore\n      swap1\n      dup2\n      0x00\n      dup3\n      add\n      sload\n      dup2\n      mstore\n      0x20\n      add\n      0x01\n      dup3\n      add\n      dup1\n      sload\n      tag_100\n      swap1\n      tag_101\n      jump\t// in\n    tag_100:\n      dup1\n      0x1f\n      add\n      0x20\n      dup1\n      swap2\n      div\n      mul\n      0x20\n      add\n      mload(0x40)\n      swap1\n      dup2\n      add\n      0x40\n      mstore\n      dup1\n      swap3\n      swap2\n      swap1\n      dup2\n      dup2\n      mstore\n      0x20\n      add\n      dup3\n      dup1\n      sload\n      tag_102\n      swap1\n      tag_101\n      jump\t// in\n    tag_102:\n      dup1\n      iszero\n      tag_103\n      jumpi\n      dup1\n      0x1f\n      lt\n      tag_104\n      jumpi\n      0x0100\n      dup1\n      dup4\n      sload\n      div\n      mul\n      dup4\n      mstore\n      swap2\n      0x20\n      add\n      swap2\n      jump(tag_103)\n    tag_104:\n      dup3\n      add\n      swap2\n      swap1\n      0x00\n      mstore\n      keccak256(0x00, 0x20)\n      swap1\n    tag_105:\n      dup2\n      sload\n      dup2\n      mstore\n      swap1\n      0x01\n      add\n      swap1\n      0x20\n      add\n      dup1\n      dup4\n      gt\n      tag_105\n      jumpi\n      dup3\n      swap1\n      sub\n      0x1f\n      and\n      dup3\n      add\n      swap2\n    tag_103:\n      pop\n      pop\n      pop\n      pop\n      pop\n      dup2\n      mstore\n      0x20\n      add\n      0x02\n      dup3\n      add\n      0x00\n      swap1\n      sload\n      swap1\n      0x0100\n      exp\n      swap1\n      div\n      0xff\n      and\n      0x03\n      dup2\n      gt\n      iszero\n      tag_106\n      jumpi\n      mstore(0x00, 0x4e487b7100000000000000000000000000000000000000000000000000000000)\n      mstore(0x04, 0x21)\n      revert(0x00, 0x24)\n    tag_106:\n      0x03\n      dup2\n      gt\n      iszero\n      tag_107\n      jumpi\n      mstore(0x00, 0x4e487b7100000000000000000000000000000000000000000000000000000000)\n      mstore(0x04, 0x21)\n      revert(0x00, 0x24)\n    tag_107:\n      dup2\n      mstore\n      0x20\n      add\n      0x02\n      dup3\n      add\n      0x01\n      swap1\n      sload\n      swap1\n      0x0100\n      exp\n      swap1\n      div\n      0xff\n      and\n      iszero\n      iszero\n      iszero\n      iszero\n      dup2\n      mstore\n      pop\n      pop\n        /* \"contracts/TodoList.sol\":9755:9763  allTodos */\n      dup3\n        /* \"contracts/TodoList.sol\":9764:9765  i */\n      dup3\n        /* \"contracts/TodoList.sol\":9755:9766  allTodos[i] */\n      dup2\n      mload\n      dup2\n      lt\n      tag_108\n      jumpi\n      mstore(0x00, 0x4e487b7100000000000000000000000000000000000000000000000000000000)\n      mstore(0x04, 0x32)\n      revert(0x00, 0x24)\n    tag_108:\n      0x20\n      mul\n      0x20\n      add\n      add\n        /* \"contracts/TodoList.sol\":9755:9777  allTodos[i] = todos[i] */\n      dup2\n      swap1\n      mstore\n      pop\n        /* \"contracts/TodoList.sol\":9664:9667  i++ */\n      dup1\n      dup1\n      tag_109\n      swap1\n      tag_110\n      jump\t// in\n    tag_109:\n      swap2\n      pop\n      pop\n        /* \"contracts/TodoList.sol\":9631:9789  for (uint i = 0; i < nextTodoId; i++) {\r... */\n      jump(tag_97)\n    tag_98:\n      pop\n        /* \"contracts/TodoList.sol\":9866:9874  allTodos */\n      dup1\n        /* \"contracts/TodoList.sol\":9859:9874  return allTodos */\n      swap2\n      pop\n      pop\n        /* \"contracts/TodoList.sol\":9300:9882  function getAllTodos() public view returns (Todo[] memory) {\r... */\n      swap1\n      jump\t// out\n        /* \"contracts/TodoList.sol\":8941:9066  function getAllTodoIds() public view returns (uint[] memory) {\r... */\n    tag_42:\n        /* \"contracts/TodoList.sol\":8987:9000  uint[] memory */\n      0x60\n        /* \"contracts/TodoList.sol\":9020:9027  todoIds */\n      0x01\n        /* \"contracts/TodoList.sol\":9013:9027  return todoIds */\n      dup1\n      sload\n      dup1\n      0x20\n      mul\n      0x20\n      add\n      mload(0x40)\n      swap1\n      dup2\n      add\n      0x40\n      mstore\n      dup1\n      swap3\n      swap2\n      swap1\n      dup2\n      dup2\n      mstore\n      0x20\n      add\n      dup3\n      dup1\n      sload\n      dup1\n      iszero\n      tag_112\n      jumpi\n      0x20\n      mul\n      dup3\n      add\n      swap2\n      swap1\n      0x00\n      mstore\n      keccak256(0x00, 0x20)\n      swap1\n    tag_113:\n      dup2\n      sload\n      dup2\n      mstore\n      0x20\n      add\n      swap1\n      0x01\n      add\n      swap1\n      dup1\n      dup4\n      gt\n      tag_113\n      jumpi\n    tag_112:\n      pop\n      pop\n      pop\n      pop\n      pop\n      swap1\n      pop\n        /* \"contracts/TodoList.sol\":8941:9066  function getAllTodoIds() public view returns (uint[] memory) {\r... */\n      swap1\n      jump\t// out\n        /* \"contracts/TodoList.sol\":8012:8492  function getTodo(uint _id) public view returns (uint id, string memory content, TodoStatus status, bool isDeleted) {\r... */\n    tag_47:\n        /* \"contracts/TodoList.sol\":8060:8067  uint id */\n      0x00\n        /* \"contracts/TodoList.sol\":8069:8090  string memory content */\n      0x60\n        /* \"contracts/TodoList.sol\":8092:8109  TodoStatus status */\n      0x00\n        /* \"contracts/TodoList.sol\":8111:8125  bool isDeleted */\n      dup1\n        /* \"contracts/TodoList.sol\":8204:8214  nextTodoId */\n      sload(0x02)\n        /* \"contracts/TodoList.sol\":8198:8201  _id */\n      dup6\n        /* \"contracts/TodoList.sol\":8198:8214  _id < nextTodoId */\n      lt\n        /* \"contracts/TodoList.sol\":8190:8271  require(_id < nextTodoId, \"TodoList: Invalid todo ID. Seriously, does it exist?\") */\n      tag_115\n      jumpi\n      mload(0x40)\n      0x08c379a000000000000000000000000000000000000000000000000000000000\n      dup2\n      mstore\n      0x04\n      add\n      tag_116\n      swap1\n      tag_117\n      jump\t// in\n    tag_116:\n      mload(0x40)\n      dup1\n      swap2\n      sub\n      swap1\n      revert\n    tag_115:\n        /* \"contracts/TodoList.sol\":8321:8338  Todo storage todo */\n      0x00\n        /* \"contracts/TodoList.sol\":8341:8346  todos */\n      dup1\n        /* \"contracts/TodoList.sol\":8341:8351  todos[_id] */\n      0x00\n        /* \"contracts/TodoList.sol\":8347:8350  _id */\n      dup8\n        /* \"contracts/TodoList.sol\":8341:8351  todos[_id] */\n      dup2\n      mstore\n      0x20\n      add\n      swap1\n      dup2\n      mstore\n      0x20\n      add\n      0x00\n      keccak256\n        /* \"contracts/TodoList.sol\":8321:8351  Todo storage todo = todos[_id] */\n      swap1\n      pop\n        /* \"contracts/TodoList.sol\":8433:8437  todo */\n      dup1\n        /* \"contracts/TodoList.sol\":8433:8440  todo.id */\n      0x00\n      add\n      sload\n        /* \"contracts/TodoList.sol\":8442:8446  todo */\n      dup2\n        /* \"contracts/TodoList.sol\":8442:8454  todo.content */\n      0x01\n      add\n        /* \"contracts/TodoList.sol\":8456:8460  todo */\n      dup3\n        /* \"contracts/TodoList.sol\":8456:8467  todo.status */\n      0x02\n      add\n      0x00\n      swap1\n      sload\n      swap1\n      0x0100\n      exp\n      swap1\n      div\n      0xff\n      and\n        /* \"contracts/TodoList.sol\":8469:8473  todo */\n      dup4\n        /* \"contracts/TodoList.sol\":8469:8483  todo.isDeleted */\n      0x02\n      add\n      0x01\n      swap1\n      sload\n      swap1\n      0x0100\n      exp\n      swap1\n      div\n      0xff\n      and\n        /* \"contracts/TodoList.sol\":8425:8484  return (todo.id, todo.content, todo.status, todo.isDeleted) */\n      dup3\n      dup1\n      sload\n      tag_118\n      swap1\n      tag_101\n      jump\t// in\n    tag_118:\n      dup1\n      0x1f\n      add\n      0x20\n      dup1\n      swap2\n      div\n      mul\n      0x20\n      add\n      mload(0x40)\n      swap1\n      dup2\n      add\n      0x40\n      mstore\n      dup1\n      swap3\n      swap2\n      swap1\n      dup2\n      dup2\n      mstore\n      0x20\n      add\n      dup3\n      dup1\n      sload\n      tag_119\n      swap1\n      tag_101\n      jump\t// in\n    tag_119:\n      dup1\n      iszero\n      tag_120\n      jumpi\n      dup1\n      0x1f\n      lt\n      tag_121\n      jumpi\n      0x0100\n      dup1\n      dup4\n      sload\n      div\n      mul\n      dup4\n      mstore\n      swap2\n      0x20\n      add\n      swap2\n      jump(tag_120)\n    tag_121:\n      dup3\n      add\n      swap2\n      swap1\n      0x00\n      mstore\n      keccak256(0x00, 0x20)\n      swap1\n    tag_122:\n      dup2\n      sload\n      dup2\n      mstore\n      swap1\n      0x01\n      add\n      swap1\n      0x20\n      add\n      dup1\n      dup4\n      gt\n      tag_122\n      jumpi\n      dup3\n      swap1\n      sub\n      0x1f\n      and\n      dup3\n      add\n      swap2\n    tag_120:\n      pop\n      pop\n      pop\n      pop\n      pop\n      swap3\n      pop\n      swap5\n      pop\n      swap5\n      pop\n      swap5\n      pop\n      swap5\n      pop\n      pop\n        /* \"contracts/TodoList.sol\":8012:8492  function getTodo(uint _id) public view returns (uint id, string memory content, TodoStatus status, bool isDeleted) {\r... */\n      swap2\n      swap4\n      pop\n      swap2\n      swap4\n      jump\t// out\n        /* \"contracts/TodoList.sol\":4098:4571  function _addTodoInternal(string memory _content) internal {\r... */\n    tag_90:\n        /* \"contracts/TodoList.sol\":4264:4317  Todo(nextTodoId, _content, TodoStatus.Pending, false) */\n      mload(0x40)\n      dup1\n      0x80\n      add\n      0x40\n      mstore\n      dup1\n        /* \"contracts/TodoList.sol\":4269:4279  nextTodoId */\n      sload(0x02)\n        /* \"contracts/TodoList.sol\":4264:4317  Todo(nextTodoId, _content, TodoStatus.Pending, false) */\n      dup2\n      mstore\n      0x20\n      add\n        /* \"contracts/TodoList.sol\":4281:4289  _content */\n      dup3\n        /* \"contracts/TodoList.sol\":4264:4317  Todo(nextTodoId, _content, TodoStatus.Pending, false) */\n      dup2\n      mstore\n      0x20\n      add\n        /* \"contracts/TodoList.sol\":4291:4309  TodoStatus.Pending */\n      0x00\n        /* \"contracts/TodoList.sol\":4264:4317  Todo(nextTodoId, _content, TodoStatus.Pending, false) */\n      0x03\n      dup2\n      gt\n      iszero\n      tag_124\n      jumpi\n      mstore(0x00, 0x4e487b7100000000000000000000000000000000000000000000000000000000)\n      mstore(0x04, 0x21)\n      revert(0x00, 0x24)\n    tag_124:\n      dup2\n      mstore\n      0x20\n      add\n        /* \"contracts/TodoList.sol\":4311:4316  false */\n      0x00\n        /* \"contracts/TodoList.sol\":4264:4317  Todo(nextTodoId, _content, TodoStatus.Pending, false) */\n      iszero\n      iszero\n      dup2\n      mstore\n      pop\n        /* \"contracts/TodoList.sol\":4244:4249  todos */\n      0x00\n        /* \"contracts/TodoList.sol\":4244:4261  todos[nextTodoId] */\n      dup1\n        /* \"contracts/TodoList.sol\":4250:4260  nextTodoId */\n      sload(0x02)\n        /* \"contracts/TodoList.sol\":4244:4261  todos[nextTodoId] */\n      dup2\n      mstore\n      0x20\n      add\n      swap1\n      dup2\n      mstore\n      0x20\n      add\n      0x00\n      keccak256\n        /* \"contracts/TodoList.sol\":4244:4317  todos[nextTodoId] = Todo(nextTodoId, _content, TodoStatus.Pending, false) */\n      0x00\n      dup3\n      add\n      mload\n      dup2\n      0x00\n      add\n      sstore\n      0x20\n      dup3\n      add\n      mload\n      dup2\n      0x01\n      add\n      swap1\n      dup1\n      mload\n      swap1\n      0x20\n      add\n      swap1\n      tag_125\n      swap3\n      swap2\n      swap1\n      tag_64\n      jump\t// in\n    tag_125:\n      pop\n      0x40\n      dup3\n      add\n      mload\n      dup2\n      0x02\n      add\n      exp(0x0100, 0x00)\n      dup2\n      sload\n      dup2\n      0xff\n      mul\n      not\n      and\n      swap1\n      dup4\n      0x03\n      dup2\n      gt\n      iszero\n      tag_126\n      jumpi\n      mstore(0x00, 0x4e487b7100000000000000000000000000000000000000000000000000000000)\n      mstore(0x04, 0x21)\n      revert(0x00, 0x24)\n    tag_126:\n      mul\n      or\n      swap1\n      sstore\n      pop\n      0x60\n      dup3\n      add\n      mload\n      dup2\n      0x02\n      add\n      exp(0x0100, 0x01)\n      dup2\n      sload\n      dup2\n      0xff\n      mul\n      not\n      and\n      swap1\n      dup4\n      iszero\n      iszero\n      mul\n      or\n      swap1\n      sstore\n      pop\n      swap1\n      pop\n      pop\n        /* \"contracts/TodoList.sol\":4381:4388  todoIds */\n      0x01\n        /* \"contracts/TodoList.sol\":4394:4404  nextTodoId */\n      sload(0x02)\n        /* \"contracts/TodoList.sol\":4381:4405  todoIds.push(nextTodoId) */\n      swap1\n      dup1\n      0x01\n      dup2\n      sload\n      add\n      dup1\n      dup3\n      sstore\n      dup1\n      swap2\n      pop\n      pop\n      0x01\n      swap1\n      sub\n      swap1\n      0x00\n      mstore\n      keccak256(0x00, 0x20)\n      add\n      0x00\n      swap1\n      swap2\n      swap1\n      swap2\n      swap1\n      swap2\n      pop\n      sstore\n        /* \"contracts/TodoList.sol\":4456:4487  TodoAdded(nextTodoId, _content) */\n      0x606222d2d9b2ffe82e59c226d772a363312cfce0027119e88e27c4db155e882d\n        /* \"contracts/TodoList.sol\":4466:4476  nextTodoId */\n      sload(0x02)\n        /* \"contracts/TodoList.sol\":4478:4486  _content */\n      dup3\n        /* \"contracts/TodoList.sol\":4456:4487  TodoAdded(nextTodoId, _content) */\n      mload(0x40)\n      tag_128\n      swap3\n      swap2\n      swap1\n      tag_66\n      jump\t// in\n    tag_128:\n      mload(0x40)\n      dup1\n      swap2\n      sub\n      swap1\n      log1\n        /* \"contracts/TodoList.sol\":4551:4561  nextTodoId */\n      0x02\n      0x00\n        /* \"contracts/TodoList.sol\":4551:4563  nextTodoId++ */\n      dup2\n      sload\n      dup1\n      swap3\n      swap2\n      swap1\n      tag_129\n      swap1\n      tag_110\n      jump\t// in\n    tag_129:\n      swap2\n      swap1\n      pop\n      sstore\n      pop\n        /* \"contracts/TodoList.sol\":4098:4571  function _addTodoInternal(string memory _content) internal {\r... */\n      pop\n      jump\t// out\n    tag_64:\n      dup3\n      dup1\n      sload\n      tag_130\n      swap1\n      tag_101\n      jump\t// in\n    tag_130:\n      swap1\n      0x00\n      mstore\n      keccak256(0x00, 0x20)\n      swap1\n      0x1f\n      add\n      0x20\n      swap1\n      div\n      dup2\n      add\n      swap3\n      dup3\n      tag_132\n      jumpi\n      0x00\n      dup6\n      sstore\n      jump(tag_131)\n    tag_132:\n      dup3\n      0x1f\n      lt\n      tag_133\n      jumpi\n      dup1\n      mload\n      not(0xff)\n      and\n      dup4\n      dup1\n      add\n      or\n      dup6\n      sstore\n      jump(tag_131)\n    tag_133:\n      dup3\n      dup1\n      add\n      0x01\n      add\n      dup6\n      sstore\n      dup3\n      iszero\n      tag_131\n      jumpi\n      swap2\n      dup3\n      add\n    tag_134:\n      dup3\n      dup2\n      gt\n      iszero\n      tag_135\n      jumpi\n      dup3\n      mload\n      dup3\n      sstore\n      swap2\n      0x20\n      add\n      swap2\n      swap1\n      0x01\n      add\n      swap1\n      jump(tag_134)\n    tag_135:\n    tag_131:\n      pop\n      swap1\n      pop\n      tag_136\n      swap2\n      swap1\n      tag_137\n      jump\t// in\n    tag_136:\n      pop\n      swap1\n      jump\t// out\n    tag_96:\n      mload(0x40)\n      dup1\n      0x80\n      add\n      0x40\n      mstore\n      dup1\n      0x00\n      dup2\n      mstore\n      0x20\n      add\n      0x60\n      dup2\n      mstore\n      0x20\n      add\n      0x00\n      0x03\n      dup2\n      gt\n      iszero\n      tag_138\n      jumpi\n      mstore(0x00, 0x4e487b7100000000000000000000000000000000000000000000000000000000)\n      mstore(0x04, 0x21)\n      revert(0x00, 0x24)\n    tag_138:\n      dup2\n      mstore\n      0x20\n      add\n      iszero(iszero(0x00))\n      dup2\n      mstore\n      pop\n      swap1\n      jump\t// out\n    tag_137:\n    tag_139:\n      dup1\n      dup3\n      gt\n      iszero\n      tag_140\n      jumpi\n      0x00\n      dup2\n      0x00\n      swap1\n      sstore\n      pop\n      0x01\n      add\n      jump(tag_139)\n    tag_140:\n      pop\n      swap1\n      jump\t// out\n        /* \"#utility.yul\":7:351   */\n    tag_142:\n      0x00\n        /* \"#utility.yul\":110:175   */\n      tag_144\n        /* \"#utility.yul\":125:174   */\n      tag_145\n        /* \"#utility.yul\":167:173   */\n      dup5\n        /* \"#utility.yul\":125:174   */\n      tag_146\n      jump\t// in\n    tag_145:\n        /* \"#utility.yul\":110:175   */\n      tag_147\n      jump\t// in\n    tag_144:\n        /* \"#utility.yul\":101:175   */\n      swap1\n      pop\n        /* \"#utility.yul\":198:204   */\n      dup3\n        /* \"#utility.yul\":191:196   */\n      dup2\n        /* \"#utility.yul\":184:205   */\n      mstore\n        /* \"#utility.yul\":236:240   */\n      0x20\n        /* \"#utility.yul\":229:234   */\n      dup2\n        /* \"#utility.yul\":225:241   */\n      add\n        /* \"#utility.yul\":274:277   */\n      dup5\n        /* \"#utility.yul\":265:271   */\n      dup5\n        /* \"#utility.yul\":260:263   */\n      dup5\n        /* \"#utility.yul\":256:272   */\n      add\n        /* \"#utility.yul\":253:278   */\n      gt\n        /* \"#utility.yul\":250:252   */\n      iszero\n      tag_148\n      jumpi\n        /* \"#utility.yul\":291:292   */\n      0x00\n        /* \"#utility.yul\":288:289   */\n      dup1\n        /* \"#utility.yul\":281:293   */\n      revert\n        /* \"#utility.yul\":250:252   */\n    tag_148:\n        /* \"#utility.yul\":304:345   */\n      tag_149\n        /* \"#utility.yul\":338:344   */\n      dup5\n        /* \"#utility.yul\":333:336   */\n      dup3\n        /* \"#utility.yul\":328:331   */\n      dup6\n        /* \"#utility.yul\":304:345   */\n      tag_150\n      jump\t// in\n    tag_149:\n        /* \"#utility.yul\":91:351   */\n      pop\n      swap4\n      swap3\n      pop\n      pop\n      pop\n      jump\t// out\n        /* \"#utility.yul\":357:520   */\n    tag_151:\n      0x00\n        /* \"#utility.yul\":453:459   */\n      dup2\n        /* \"#utility.yul\":440:460   */\n      calldataload\n        /* \"#utility.yul\":431:460   */\n      swap1\n      pop\n        /* \"#utility.yul\":469:514   */\n      tag_153\n        /* \"#utility.yul\":508:513   */\n      dup2\n        /* \"#utility.yul\":469:514   */\n      tag_154\n      jump\t// in\n    tag_153:\n        /* \"#utility.yul\":421:520   */\n      swap3\n      swap2\n      pop\n      pop\n      jump\t// out\n        /* \"#utility.yul\":540:813   */\n    tag_155:\n      0x00\n        /* \"#utility.yul\":645:648   */\n      dup3\n        /* \"#utility.yul\":638:642   */\n      0x1f\n        /* \"#utility.yul\":630:636   */\n      dup4\n        /* \"#utility.yul\":626:643   */\n      add\n        /* \"#utility.yul\":622:649   */\n      slt\n        /* \"#utility.yul\":612:614   */\n      tag_157\n      jumpi\n        /* \"#utility.yul\":663:664   */\n      0x00\n        /* \"#utility.yul\":660:661   */\n      dup1\n        /* \"#utility.yul\":653:665   */\n      revert\n        /* \"#utility.yul\":612:614   */\n    tag_157:\n        /* \"#utility.yul\":703:709   */\n      dup2\n        /* \"#utility.yul\":690:710   */\n      calldataload\n        /* \"#utility.yul\":728:807   */\n      tag_158\n        /* \"#utility.yul\":803:806   */\n      dup5\n        /* \"#utility.yul\":795:801   */\n      dup3\n        /* \"#utility.yul\":788:792   */\n      0x20\n        /* \"#utility.yul\":780:786   */\n      dup7\n        /* \"#utility.yul\":776:793   */\n      add\n        /* \"#utility.yul\":728:807   */\n      tag_142\n      jump\t// in\n    tag_158:\n        /* \"#utility.yul\":719:807   */\n      swap2\n      pop\n        /* \"#utility.yul\":602:813   */\n      pop\n      swap3\n      swap2\n      pop\n      pop\n      jump\t// out\n        /* \"#utility.yul\":819:958   */\n    tag_159:\n      0x00\n        /* \"#utility.yul\":903:909   */\n      dup2\n        /* \"#utility.yul\":890:910   */\n      calldataload\n        /* \"#utility.yul\":881:910   */\n      swap1\n      pop\n        /* \"#utility.yul\":919:952   */\n      tag_161\n        /* \"#utility.yul\":946:951   */\n      dup2\n        /* \"#utility.yul\":919:952   */\n      tag_162\n      jump\t// in\n    tag_161:\n        /* \"#utility.yul\":871:958   */\n      swap3\n      swap2\n      pop\n      pop\n      jump\t// out\n        /* \"#utility.yul\":964:1339   */\n    tag_35:\n      0x00\n        /* \"#utility.yul\":1082:1084   */\n      0x20\n        /* \"#utility.yul\":1070:1079   */\n      dup3\n        /* \"#utility.yul\":1061:1068   */\n      dup5\n        /* \"#utility.yul\":1057:1080   */\n      sub\n        /* \"#utility.yul\":1053:1085   */\n      slt\n        /* \"#utility.yul\":1050:1052   */\n      iszero\n      tag_164\n      jumpi\n        /* \"#utility.yul\":1098:1099   */\n      0x00\n        /* \"#utility.yul\":1095:1096   */\n      dup1\n        /* \"#utility.yul\":1088:1100   */\n      revert\n        /* \"#utility.yul\":1050:1052   */\n    tag_164:\n        /* \"#utility.yul\":1169:1170   */\n      0x00\n        /* \"#utility.yul\":1158:1167   */\n      dup3\n        /* \"#utility.yul\":1154:1171   */\n      add\n        /* \"#utility.yul\":1141:1172   */\n      calldataload\n        /* \"#utility.yul\":1199:1217   */\n      0xffffffffffffffff\n        /* \"#utility.yul\":1191:1197   */\n      dup2\n        /* \"#utility.yul\":1188:1218   */\n      gt\n        /* \"#utility.yul\":1185:1187   */\n      iszero\n      tag_165\n      jumpi\n        /* \"#utility.yul\":1231:1232   */\n      0x00\n        /* \"#utility.yul\":1228:1229   */\n      dup1\n        /* \"#utility.yul\":1221:1233   */\n      revert\n        /* \"#utility.yul\":1185:1187   */\n    tag_165:\n        /* \"#utility.yul\":1259:1322   */\n      tag_166\n        /* \"#utility.yul\":1314:1321   */\n      dup5\n        /* \"#utility.yul\":1305:1311   */\n      dup3\n        /* \"#utility.yul\":1294:1303   */\n      dup6\n        /* \"#utility.yul\":1290:1312   */\n      add\n        /* \"#utility.yul\":1259:1322   */\n      tag_155\n      jump\t// in\n    tag_166:\n        /* \"#utility.yul\":1249:1322   */\n      swap2\n      pop\n        /* \"#utility.yul\":1112:1332   */\n      pop\n        /* \"#utility.yul\":1040:1339   */\n      swap3\n      swap2\n      pop\n      pop\n      jump\t// out\n        /* \"#utility.yul\":1345:1607   */\n    tag_15:\n      0x00\n        /* \"#utility.yul\":1453:1455   */\n      0x20\n        /* \"#utility.yul\":1441:1450   */\n      dup3\n        /* \"#utility.yul\":1432:1439   */\n      dup5\n        /* \"#utility.yul\":1428:1451   */\n      sub\n        /* \"#utility.yul\":1424:1456   */\n      slt\n        /* \"#utility.yul\":1421:1423   */\n      iszero\n      tag_168\n      jumpi\n        /* \"#utility.yul\":1469:1470   */\n      0x00\n        /* \"#utility.yul\":1466:1467   */\n      dup1\n        /* \"#utility.yul\":1459:1471   */\n      revert\n        /* \"#utility.yul\":1421:1423   */\n    tag_168:\n        /* \"#utility.yul\":1512:1513   */\n      0x00\n        /* \"#utility.yul\":1537:1590   */\n      tag_169\n        /* \"#utility.yul\":1582:1589   */\n      dup5\n        /* \"#utility.yul\":1573:1579   */\n      dup3\n        /* \"#utility.yul\":1562:1571   */\n      dup6\n        /* \"#utility.yul\":1558:1580   */\n      add\n        /* \"#utility.yul\":1537:1590   */\n      tag_159\n      jump\t// in\n    tag_169:\n        /* \"#utility.yul\":1527:1590   */\n      swap2\n      pop\n        /* \"#utility.yul\":1483:1600   */\n      pop\n        /* \"#utility.yul\":1411:1607   */\n      swap3\n      swap2\n      pop\n      pop\n      jump\t// out\n        /* \"#utility.yul\":1613:2044   */\n    tag_28:\n      0x00\n      dup1\n        /* \"#utility.yul\":1750:1752   */\n      0x40\n        /* \"#utility.yul\":1738:1747   */\n      dup4\n        /* \"#utility.yul\":1729:1736   */\n      dup6\n        /* \"#utility.yul\":1725:1748   */\n      sub\n        /* \"#utility.yul\":1721:1753   */\n      slt\n        /* \"#utility.yul\":1718:1720   */\n      iszero\n      tag_171\n      jumpi\n        /* \"#utility.yul\":1766:1767   */\n      0x00\n        /* \"#utility.yul\":1763:1764   */\n      dup1\n        /* \"#utility.yul\":1756:1768   */\n      revert\n        /* \"#utility.yul\":1718:1720   */\n    tag_171:\n        /* \"#utility.yul\":1809:1810   */\n      0x00\n        /* \"#utility.yul\":1834:1887   */\n      tag_172\n        /* \"#utility.yul\":1879:1886   */\n      dup6\n        /* \"#utility.yul\":1870:1876   */\n      dup3\n        /* \"#utility.yul\":1859:1868   */\n      dup7\n        /* \"#utility.yul\":1855:1877   */\n      add\n        /* \"#utility.yul\":1834:1887   */\n      tag_159\n      jump\t// in\n    tag_172:\n        /* \"#utility.yul\":1824:1887   */\n      swap3\n      pop\n        /* \"#utility.yul\":1780:1897   */\n      pop\n        /* \"#utility.yul\":1936:1938   */\n      0x20\n        /* \"#utility.yul\":1962:2027   */\n      tag_173\n        /* \"#utility.yul\":2019:2026   */\n      dup6\n        /* \"#utility.yul\":2010:2016   */\n      dup3\n        /* \"#utility.yul\":1999:2008   */\n      dup7\n        /* \"#utility.yul\":1995:2017   */\n      add\n        /* \"#utility.yul\":1962:2027   */\n      tag_151\n      jump\t// in\n    tag_173:\n        /* \"#utility.yul\":1952:2027   */\n      swap2\n      pop\n        /* \"#utility.yul\":1907:2037   */\n      pop\n        /* \"#utility.yul\":1708:2044   */\n      swap3\n      pop\n      swap3\n      swap1\n      pop\n      jump\t// out\n        /* \"#utility.yul\":2050:2570   */\n    tag_24:\n      0x00\n      dup1\n        /* \"#utility.yul\":2185:2187   */\n      0x40\n        /* \"#utility.yul\":2173:2182   */\n      dup4\n        /* \"#utility.yul\":2164:2171   */\n      dup6\n        /* \"#utility.yul\":2160:2183   */\n      sub\n        /* \"#utility.yul\":2156:2188   */\n      slt\n        /* \"#utility.yul\":2153:2155   */\n      iszero\n      tag_175\n      jumpi\n        /* \"#utility.yul\":2201:2202   */\n      0x00\n        /* \"#utility.yul\":2198:2199   */\n      dup1\n        /* \"#utility.yul\":2191:2203   */\n      revert\n        /* \"#utility.yul\":2153:2155   */\n    tag_175:\n        /* \"#utility.yul\":2244:2245   */\n      0x00\n        /* \"#utility.yul\":2269:2322   */\n      tag_176\n        /* \"#utility.yul\":2314:2321   */\n      dup6\n        /* \"#utility.yul\":2305:2311   */\n      dup3\n        /* \"#utility.yul\":2294:2303   */\n      dup7\n        /* \"#utility.yul\":2290:2312   */\n      add\n        /* \"#utility.yul\":2269:2322   */\n      tag_159\n      jump\t// in\n    tag_176:\n        /* \"#utility.yul\":2259:2322   */\n      swap3\n      pop\n        /* \"#utility.yul\":2215:2332   */\n      pop\n        /* \"#utility.yul\":2399:2401   */\n      0x20\n        /* \"#utility.yul\":2388:2397   */\n      dup4\n        /* \"#utility.yul\":2384:2402   */\n      add\n        /* \"#utility.yul\":2371:2403   */\n      calldataload\n        /* \"#utility.yul\":2430:2448   */\n      0xffffffffffffffff\n        /* \"#utility.yul\":2422:2428   */\n      dup2\n        /* \"#utility.yul\":2419:2449   */\n      gt\n        /* \"#utility.yul\":2416:2418   */\n      iszero\n      tag_177\n      jumpi\n        /* \"#utility.yul\":2462:2463   */\n      0x00\n        /* \"#utility.yul\":2459:2460   */\n      dup1\n        /* \"#utility.yul\":2452:2464   */\n      revert\n        /* \"#utility.yul\":2416:2418   */\n    tag_177:\n        /* \"#utility.yul\":2490:2553   */\n      tag_178\n        /* \"#utility.yul\":2545:2552   */\n      dup6\n        /* \"#utility.yul\":2536:2542   */\n      dup3\n        /* \"#utility.yul\":2525:2534   */\n      dup7\n        /* \"#utility.yul\":2521:2543   */\n      add\n        /* \"#utility.yul\":2490:2553   */\n      tag_155\n      jump\t// in\n    tag_178:\n        /* \"#utility.yul\":2480:2553   */\n      swap2\n      pop\n        /* \"#utility.yul\":2342:2563   */\n      pop\n        /* \"#utility.yul\":2143:2570   */\n      swap3\n      pop\n      swap3\n      swap1\n      pop\n      jump\t// out\n        /* \"#utility.yul\":2576:2812   */\n    tag_179:\n      0x00\n        /* \"#utility.yul\":2720:2806   */\n      tag_181\n        /* \"#utility.yul\":2802:2805   */\n      dup4\n        /* \"#utility.yul\":2794:2800   */\n      dup4\n        /* \"#utility.yul\":2720:2806   */\n      tag_182\n      jump\t// in\n    tag_181:\n        /* \"#utility.yul\":2706:2806   */\n      swap1\n      pop\n        /* \"#utility.yul\":2696:2812   */\n      swap3\n      swap2\n      pop\n      pop\n      jump\t// out\n        /* \"#utility.yul\":2818:2997   */\n    tag_183:\n      0x00\n        /* \"#utility.yul\":2908:2954   */\n      tag_185\n        /* \"#utility.yul\":2950:2953   */\n      dup4\n        /* \"#utility.yul\":2942:2948   */\n      dup4\n        /* \"#utility.yul\":2908:2954   */\n      tag_186\n      jump\t// in\n    tag_185:\n        /* \"#utility.yul\":2986:2990   */\n      0x20\n        /* \"#utility.yul\":2981:2984   */\n      dup4\n        /* \"#utility.yul\":2977:2991   */\n      add\n        /* \"#utility.yul\":2963:2991   */\n      swap1\n      pop\n        /* \"#utility.yul\":2898:2997   */\n      swap3\n      swap2\n      pop\n      pop\n      jump\t// out\n        /* \"#utility.yul\":3059:4130   */\n    tag_187:\n      0x00\n        /* \"#utility.yul\":3247:3321   */\n      tag_189\n        /* \"#utility.yul\":3315:3320   */\n      dup3\n        /* \"#utility.yul\":3247:3321   */\n      tag_190\n      jump\t// in\n    tag_189:\n        /* \"#utility.yul\":3337:3443   */\n      tag_191\n        /* \"#utility.yul\":3436:3442   */\n      dup2\n        /* \"#utility.yul\":3431:3434   */\n      dup6\n        /* \"#utility.yul\":3337:3443   */\n      tag_192\n      jump\t// in\n    tag_191:\n        /* \"#utility.yul\":3330:3443   */\n      swap4\n      pop\n        /* \"#utility.yul\":3469:3472   */\n      dup4\n        /* \"#utility.yul\":3514:3518   */\n      0x20\n        /* \"#utility.yul\":3506:3512   */\n      dup3\n        /* \"#utility.yul\":3502:3519   */\n      mul\n        /* \"#utility.yul\":3497:3500   */\n      dup6\n        /* \"#utility.yul\":3493:3520   */\n      add\n        /* \"#utility.yul\":3544:3620   */\n      tag_193\n        /* \"#utility.yul\":3614:3619   */\n      dup6\n        /* \"#utility.yul\":3544:3620   */\n      tag_194\n      jump\t// in\n    tag_193:\n        /* \"#utility.yul\":3643:3650   */\n      dup1\n        /* \"#utility.yul\":3674:3675   */\n      0x00\n        /* \"#utility.yul\":3659:4085   */\n    tag_195:\n        /* \"#utility.yul\":3684:3690   */\n      dup6\n        /* \"#utility.yul\":3681:3682   */\n      dup2\n        /* \"#utility.yul\":3678:3691   */\n      lt\n        /* \"#utility.yul\":3659:4085   */\n      iszero\n      tag_197\n      jumpi\n        /* \"#utility.yul\":3755:3764   */\n      dup5\n        /* \"#utility.yul\":3749:3753   */\n      dup5\n        /* \"#utility.yul\":3745:3765   */\n      sub\n        /* \"#utility.yul\":3740:3743   */\n      dup10\n        /* \"#utility.yul\":3733:3766   */\n      mstore\n        /* \"#utility.yul\":3806:3812   */\n      dup2\n        /* \"#utility.yul\":3800:3813   */\n      mload\n        /* \"#utility.yul\":3834:3938   */\n      tag_198\n        /* \"#utility.yul\":3933:3937   */\n      dup6\n        /* \"#utility.yul\":3918:3931   */\n      dup3\n        /* \"#utility.yul\":3834:3938   */\n      tag_179\n      jump\t// in\n    tag_198:\n        /* \"#utility.yul\":3826:3938   */\n      swap5\n      pop\n        /* \"#utility.yul\":3961:4041   */\n      tag_199\n        /* \"#utility.yul\":4034:4040   */\n      dup4\n        /* \"#utility.yul\":3961:4041   */\n      tag_200\n      jump\t// in\n    tag_199:\n        /* \"#utility.yul\":3951:4041   */\n      swap3\n      pop\n        /* \"#utility.yul\":4070:4074   */\n      0x20\n        /* \"#utility.yul\":4065:4068   */\n      dup11\n        /* \"#utility.yul\":4061:4075   */\n      add\n        /* \"#utility.yul\":4054:4075   */\n      swap10\n      pop\n        /* \"#utility.yul\":3719:4085   */\n      pop\n        /* \"#utility.yul\":3706:3707   */\n      0x01\n        /* \"#utility.yul\":3703:3704   */\n      dup2\n        /* \"#utility.yul\":3699:3708   */\n      add\n        /* \"#utility.yul\":3694:3708   */\n      swap1\n      pop\n        /* \"#utility.yul\":3659:4085   */\n      jump(tag_195)\n    tag_197:\n        /* \"#utility.yul\":3663:3677   */\n      pop\n        /* \"#utility.yul\":4101:4105   */\n      dup3\n        /* \"#utility.yul\":4094:4105   */\n      swap8\n      pop\n        /* \"#utility.yul\":4121:4124   */\n      dup8\n        /* \"#utility.yul\":4114:4124   */\n      swap6\n      pop\n        /* \"#utility.yul\":3223:4130   */\n      pop\n      pop\n      pop\n      pop\n      pop\n      swap3\n      swap2\n      pop\n      pop\n      jump\t// out\n        /* \"#utility.yul\":4166:4898   */\n    tag_201:\n      0x00\n        /* \"#utility.yul\":4314:4368   */\n      tag_203\n        /* \"#utility.yul\":4362:4367   */\n      dup3\n        /* \"#utility.yul\":4314:4368   */\n      tag_204\n      jump\t// in\n    tag_203:\n        /* \"#utility.yul\":4384:4470   */\n      tag_205\n        /* \"#utility.yul\":4463:4469   */\n      dup2\n        /* \"#utility.yul\":4458:4461   */\n      dup6\n        /* \"#utility.yul\":4384:4470   */\n      tag_206\n      jump\t// in\n    tag_205:\n        /* \"#utility.yul\":4377:4470   */\n      swap4\n      pop\n        /* \"#utility.yul\":4494:4550   */\n      tag_207\n        /* \"#utility.yul\":4544:4549   */\n      dup4\n        /* \"#utility.yul\":4494:4550   */\n      tag_208\n      jump\t// in\n    tag_207:\n        /* \"#utility.yul\":4573:4580   */\n      dup1\n        /* \"#utility.yul\":4604:4605   */\n      0x00\n        /* \"#utility.yul\":4589:4873   */\n    tag_209:\n        /* \"#utility.yul\":4614:4620   */\n      dup4\n        /* \"#utility.yul\":4611:4612   */\n      dup2\n        /* \"#utility.yul\":4608:4621   */\n      lt\n        /* \"#utility.yul\":4589:4873   */\n      iszero\n      tag_211\n      jumpi\n        /* \"#utility.yul\":4690:4696   */\n      dup2\n        /* \"#utility.yul\":4684:4697   */\n      mload\n        /* \"#utility.yul\":4717:4780   */\n      tag_212\n        /* \"#utility.yul\":4776:4779   */\n      dup9\n        /* \"#utility.yul\":4761:4774   */\n      dup3\n        /* \"#utility.yul\":4717:4780   */\n      tag_183\n      jump\t// in\n    tag_212:\n        /* \"#utility.yul\":4710:4780   */\n      swap8\n      pop\n        /* \"#utility.yul\":4803:4863   */\n      tag_213\n        /* \"#utility.yul\":4856:4862   */\n      dup4\n        /* \"#utility.yul\":4803:4863   */\n      tag_214\n      jump\t// in\n    tag_213:\n        /* \"#utility.yul\":4793:4863   */\n      swap3\n      pop\n        /* \"#utility.yul\":4649:4873   */\n      pop\n        /* \"#utility.yul\":4636:4637   */\n      0x01\n        /* \"#utility.yul\":4633:4634   */\n      dup2\n        /* \"#utility.yul\":4629:4638   */\n      add\n        /* \"#utility.yul\":4624:4638   */\n      swap1\n      pop\n        /* \"#utility.yul\":4589:4873   */\n      jump(tag_209)\n    tag_211:\n        /* \"#utility.yul\":4593:4607   */\n      pop\n        /* \"#utility.yul\":4889:4892   */\n      dup6\n        /* \"#utility.yul\":4882:4892   */\n      swap4\n      pop\n        /* \"#utility.yul\":4290:4898   */\n      pop\n      pop\n      pop\n      swap3\n      swap2\n      pop\n      pop\n      jump\t// out\n        /* \"#utility.yul\":4904:5003   */\n    tag_215:\n        /* \"#utility.yul\":4975:4996   */\n      tag_217\n        /* \"#utility.yul\":4990:4995   */\n      dup2\n        /* \"#utility.yul\":4975:4996   */\n      tag_218\n      jump\t// in\n    tag_217:\n        /* \"#utility.yul\":4970:4973   */\n      dup3\n        /* \"#utility.yul\":4963:4997   */\n      mstore\n        /* \"#utility.yul\":4953:5003   */\n      pop\n      pop\n      jump\t// out\n        /* \"#utility.yul\":5009:5118   */\n    tag_219:\n        /* \"#utility.yul\":5090:5111   */\n      tag_221\n        /* \"#utility.yul\":5105:5110   */\n      dup2\n        /* \"#utility.yul\":5090:5111   */\n      tag_218\n      jump\t// in\n    tag_221:\n        /* \"#utility.yul\":5085:5088   */\n      dup3\n        /* \"#utility.yul\":5078:5112   */\n      mstore\n        /* \"#utility.yul\":5068:5118   */\n      pop\n      pop\n      jump\t// out\n        /* \"#utility.yul\":5124:5265   */\n    tag_222:\n        /* \"#utility.yul\":5211:5258   */\n      tag_224\n        /* \"#utility.yul\":5252:5257   */\n      dup2\n        /* \"#utility.yul\":5211:5258   */\n      tag_225\n      jump\t// in\n    tag_224:\n        /* \"#utility.yul\":5206:5209   */\n      dup3\n        /* \"#utility.yul\":5199:5259   */\n      mstore\n        /* \"#utility.yul\":5189:5265   */\n      pop\n      pop\n      jump\t// out\n        /* \"#utility.yul\":5271:5422   */\n    tag_226:\n        /* \"#utility.yul\":5368:5415   */\n      tag_228\n        /* \"#utility.yul\":5409:5414   */\n      dup2\n        /* \"#utility.yul\":5368:5415   */\n      tag_225\n      jump\t// in\n    tag_228:\n        /* \"#utility.yul\":5363:5366   */\n      dup3\n        /* \"#utility.yul\":5356:5416   */\n      mstore\n        /* \"#utility.yul\":5346:5422   */\n      pop\n      pop\n      jump\t// out\n        /* \"#utility.yul\":5428:5772   */\n    tag_229:\n      0x00\n        /* \"#utility.yul\":5534:5573   */\n      tag_231\n        /* \"#utility.yul\":5567:5572   */\n      dup3\n        /* \"#utility.yul\":5534:5573   */\n      tag_232\n      jump\t// in\n    tag_231:\n        /* \"#utility.yul\":5589:5650   */\n      tag_233\n        /* \"#utility.yul\":5643:5649   */\n      dup2\n        /* \"#utility.yul\":5638:5641   */\n      dup6\n        /* \"#utility.yul\":5589:5650   */\n      tag_234\n      jump\t// in\n    tag_233:\n        /* \"#utility.yul\":5582:5650   */\n      swap4\n      pop\n        /* \"#utility.yul\":5659:5711   */\n      tag_235\n        /* \"#utility.yul\":5704:5710   */\n      dup2\n        /* \"#utility.yul\":5699:5702   */\n      dup6\n        /* \"#utility.yul\":5692:5696   */\n      0x20\n        /* \"#utility.yul\":5685:5690   */\n      dup7\n        /* \"#utility.yul\":5681:5697   */\n      add\n        /* \"#utility.yul\":5659:5711   */\n      tag_236\n      jump\t// in\n    tag_235:\n        /* \"#utility.yul\":5736:5765   */\n      tag_237\n        /* \"#utility.yul\":5758:5764   */\n      dup2\n        /* \"#utility.yul\":5736:5765   */\n      tag_238\n      jump\t// in\n    tag_237:\n        /* \"#utility.yul\":5731:5734   */\n      dup5\n        /* \"#utility.yul\":5727:5766   */\n      add\n        /* \"#utility.yul\":5720:5766   */\n      swap2\n      pop\n        /* \"#utility.yul\":5510:5772   */\n      pop\n      swap3\n      swap2\n      pop\n      pop\n      jump\t// out\n        /* \"#utility.yul\":5778:6142   */\n    tag_239:\n      0x00\n        /* \"#utility.yul\":5894:5933   */\n      tag_241\n        /* \"#utility.yul\":5927:5932   */\n      dup3\n        /* \"#utility.yul\":5894:5933   */\n      tag_232\n      jump\t// in\n    tag_241:\n        /* \"#utility.yul\":5949:6020   */\n      tag_242\n        /* \"#utility.yul\":6013:6019   */\n      dup2\n        /* \"#utility.yul\":6008:6011   */\n      dup6\n        /* \"#utility.yul\":5949:6020   */\n      tag_243\n      jump\t// in\n    tag_242:\n        /* \"#utility.yul\":5942:6020   */\n      swap4\n      pop\n        /* \"#utility.yul\":6029:6081   */\n      tag_244\n        /* \"#utility.yul\":6074:6080   */\n      dup2\n        /* \"#utility.yul\":6069:6072   */\n      dup6\n        /* \"#utility.yul\":6062:6066   */\n      0x20\n        /* \"#utility.yul\":6055:6060   */\n      dup7\n        /* \"#utility.yul\":6051:6067   */\n      add\n        /* \"#utility.yul\":6029:6081   */\n      tag_236\n      jump\t// in\n    tag_244:\n        /* \"#utility.yul\":6106:6135   */\n      tag_245\n        /* \"#utility.yul\":6128:6134   */\n      dup2\n        /* \"#utility.yul\":6106:6135   */\n      tag_238\n      jump\t// in\n    tag_245:\n        /* \"#utility.yul\":6101:6104   */\n      dup5\n        /* \"#utility.yul\":6097:6136   */\n      add\n        /* \"#utility.yul\":6090:6136   */\n      swap2\n      pop\n        /* \"#utility.yul\":5870:6142   */\n      pop\n      swap3\n      swap2\n      pop\n      pop\n      jump\t// out\n        /* \"#utility.yul\":6148:6533   */\n    tag_246:\n      0x00\n        /* \"#utility.yul\":6311:6378   */\n      tag_248\n        /* \"#utility.yul\":6375:6377   */\n      0x35\n        /* \"#utility.yul\":6370:6373   */\n      dup4\n        /* \"#utility.yul\":6311:6378   */\n      tag_243\n      jump\t// in\n    tag_248:\n        /* \"#utility.yul\":6304:6378   */\n      swap2\n      pop\n        /* \"#utility.yul\":6408:6442   */\n      0x546f646f4c6973743a20496e76616c696420746f646f2049442e20446f657320\n        /* \"#utility.yul\":6404:6405   */\n      0x00\n        /* \"#utility.yul\":6399:6402   */\n      dup4\n        /* \"#utility.yul\":6395:6406   */\n      add\n        /* \"#utility.yul\":6388:6443   */\n      mstore\n        /* \"#utility.yul\":6474:6497   */\n      0x74686174207461736b206576656e2065786973743f0000000000000000000000\n        /* \"#utility.yul\":6469:6471   */\n      0x20\n        /* \"#utility.yul\":6464:6467   */\n      dup4\n        /* \"#utility.yul\":6460:6472   */\n      add\n        /* \"#utility.yul\":6453:6498   */\n      mstore\n        /* \"#utility.yul\":6524:6526   */\n      0x40\n        /* \"#utility.yul\":6519:6522   */\n      dup3\n        /* \"#utility.yul\":6515:6527   */\n      add\n        /* \"#utility.yul\":6508:6527   */\n      swap1\n      pop\n        /* \"#utility.yul\":6294:6533   */\n      swap2\n      swap1\n      pop\n      jump\t// out\n        /* \"#utility.yul\":6539:6905   */\n    tag_249:\n      0x00\n        /* \"#utility.yul\":6702:6769   */\n      tag_251\n        /* \"#utility.yul\":6766:6768   */\n      0x22\n        /* \"#utility.yul\":6761:6764   */\n      dup4\n        /* \"#utility.yul\":6702:6769   */\n      tag_243\n      jump\t// in\n    tag_251:\n        /* \"#utility.yul\":6695:6769   */\n      swap2\n      pop\n        /* \"#utility.yul\":6799:6833   */\n      0x546f646f4c6973743a20546f646f20697320616c72656164792064656c657465\n        /* \"#utility.yul\":6795:6796   */\n      0x00\n        /* \"#utility.yul\":6790:6793   */\n      dup4\n        /* \"#utility.yul\":6786:6797   */\n      add\n        /* \"#utility.yul\":6779:6834   */\n      mstore\n        /* \"#utility.yul\":6865:6869   */\n      0x642e000000000000000000000000000000000000000000000000000000000000\n        /* \"#utility.yul\":6860:6862   */\n      0x20\n        /* \"#utility.yul\":6855:6858   */\n      dup4\n        /* \"#utility.yul\":6851:6863   */\n      add\n        /* \"#utility.yul\":6844:6870   */\n      mstore\n        /* \"#utility.yul\":6896:6898   */\n      0x40\n        /* \"#utility.yul\":6891:6894   */\n      dup3\n        /* \"#utility.yul\":6887:6899   */\n      add\n        /* \"#utility.yul\":6880:6899   */\n      swap1\n      pop\n        /* \"#utility.yul\":6685:6905   */\n      swap2\n      swap1\n      pop\n      jump\t// out\n        /* \"#utility.yul\":6911:7277   */\n    tag_252:\n      0x00\n        /* \"#utility.yul\":7074:7141   */\n      tag_254\n        /* \"#utility.yul\":7138:7140   */\n      0x22\n        /* \"#utility.yul\":7133:7136   */\n      dup4\n        /* \"#utility.yul\":7074:7141   */\n      tag_243\n      jump\t// in\n    tag_254:\n        /* \"#utility.yul\":7067:7141   */\n      swap2\n      pop\n        /* \"#utility.yul\":7171:7205   */\n      0x546f646f4c6973743a20436f6e74656e742063616e6e6f7420626520656d7074\n        /* \"#utility.yul\":7167:7168   */\n      0x00\n        /* \"#utility.yul\":7162:7165   */\n      dup4\n        /* \"#utility.yul\":7158:7169   */\n      add\n        /* \"#utility.yul\":7151:7206   */\n      mstore\n        /* \"#utility.yul\":7237:7241   */\n      0x792e000000000000000000000000000000000000000000000000000000000000\n        /* \"#utility.yul\":7232:7234   */\n      0x20\n        /* \"#utility.yul\":7227:7230   */\n      dup4\n        /* \"#utility.yul\":7223:7235   */\n      add\n        /* \"#utility.yul\":7216:7242   */\n      mstore\n        /* \"#utility.yul\":7268:7270   */\n      0x40\n        /* \"#utility.yul\":7263:7266   */\n      dup3\n        /* \"#utility.yul\":7259:7271   */\n      add\n        /* \"#utility.yul\":7252:7271   */\n      swap1\n      pop\n        /* \"#utility.yul\":7057:7277   */\n      swap2\n      swap1\n      pop\n      jump\t// out\n        /* \"#utility.yul\":7283:7667   */\n    tag_255:\n      0x00\n        /* \"#utility.yul\":7446:7513   */\n      tag_257\n        /* \"#utility.yul\":7510:7512   */\n      0x34\n        /* \"#utility.yul\":7505:7508   */\n      dup4\n        /* \"#utility.yul\":7446:7513   */\n      tag_243\n      jump\t// in\n    tag_257:\n        /* \"#utility.yul\":7439:7513   */\n      swap2\n      pop\n        /* \"#utility.yul\":7543:7577   */\n      0x546f646f4c6973743a20496e76616c696420746f646f2049442e20536572696f\n        /* \"#utility.yul\":7539:7540   */\n      0x00\n        /* \"#utility.yul\":7534:7537   */\n      dup4\n        /* \"#utility.yul\":7530:7541   */\n      add\n        /* \"#utility.yul\":7523:7578   */\n      mstore\n        /* \"#utility.yul\":7609:7631   */\n      0x75736c792c20646f65732069742065786973743f000000000000000000000000\n        /* \"#utility.yul\":7604:7606   */\n      0x20\n        /* \"#utility.yul\":7599:7602   */\n      dup4\n        /* \"#utility.yul\":7595:7607   */\n      add\n        /* \"#utility.yul\":7588:7632   */\n      mstore\n        /* \"#utility.yul\":7658:7660   */\n      0x40\n        /* \"#utility.yul\":7653:7656   */\n      dup3\n        /* \"#utility.yul\":7649:7661   */\n      add\n        /* \"#utility.yul\":7642:7661   */\n      swap1\n      pop\n        /* \"#utility.yul\":7429:7667   */\n      swap2\n      swap1\n      pop\n      jump\t// out\n        /* \"#utility.yul\":7673:8059   */\n    tag_258:\n      0x00\n        /* \"#utility.yul\":7836:7903   */\n      tag_260\n        /* \"#utility.yul\":7900:7902   */\n      0x36\n        /* \"#utility.yul\":7895:7898   */\n      dup4\n        /* \"#utility.yul\":7836:7903   */\n      tag_243\n      jump\t// in\n    tag_260:\n        /* \"#utility.yul\":7829:7903   */\n      swap2\n      pop\n        /* \"#utility.yul\":7933:7967   */\n      0x546f646f4c6973743a20496e76616c696420746f646f2049442e20446f657320\n        /* \"#utility.yul\":7929:7930   */\n      0x00\n        /* \"#utility.yul\":7924:7927   */\n      dup4\n        /* \"#utility.yul\":7920:7931   */\n      add\n        /* \"#utility.yul\":7913:7968   */\n      mstore\n        /* \"#utility.yul\":7999:8023   */\n      0x74686174207461736b206576656e2065786973743f2000000000000000000000\n        /* \"#utility.yul\":7994:7996   */\n      0x20\n        /* \"#utility.yul\":7989:7992   */\n      dup4\n        /* \"#utility.yul\":7985:7997   */\n      add\n        /* \"#utility.yul\":7978:8024   */\n      mstore\n        /* \"#utility.yul\":8050:8052   */\n      0x40\n        /* \"#utility.yul\":8045:8048   */\n      dup3\n        /* \"#utility.yul\":8041:8053   */\n      add\n        /* \"#utility.yul\":8034:8053   */\n      swap1\n      pop\n        /* \"#utility.yul\":7819:8059   */\n      swap2\n      swap1\n      pop\n      jump\t// out\n        /* \"#utility.yul\":8065:8435   */\n    tag_261:\n      0x00\n        /* \"#utility.yul\":8228:8295   */\n      tag_263\n        /* \"#utility.yul\":8292:8294   */\n      0x26\n        /* \"#utility.yul\":8287:8290   */\n      dup4\n        /* \"#utility.yul\":8228:8295   */\n      tag_243\n      jump\t// in\n    tag_263:\n        /* \"#utility.yul\":8221:8295   */\n      swap2\n      pop\n        /* \"#utility.yul\":8325:8359   */\n      0x546f646f4c6973743a204e657720636f6e74656e742063616e6e6f7420626520\n        /* \"#utility.yul\":8321:8322   */\n      0x00\n        /* \"#utility.yul\":8316:8319   */\n      dup4\n        /* \"#utility.yul\":8312:8323   */\n      add\n        /* \"#utility.yul\":8305:8360   */\n      mstore\n        /* \"#utility.yul\":8391:8399   */\n      0x656d7074792e0000000000000000000000000000000000000000000000000000\n        /* \"#utility.yul\":8386:8388   */\n      0x20\n        /* \"#utility.yul\":8381:8384   */\n      dup4\n        /* \"#utility.yul\":8377:8389   */\n      add\n        /* \"#utility.yul\":8370:8400   */\n      mstore\n        /* \"#utility.yul\":8426:8428   */\n      0x40\n        /* \"#utility.yul\":8421:8424   */\n      dup3\n        /* \"#utility.yul\":8417:8429   */\n      add\n        /* \"#utility.yul\":8410:8429   */\n      swap1\n      pop\n        /* \"#utility.yul\":8211:8435   */\n      swap2\n      swap1\n      pop\n      jump\t// out\n        /* \"#utility.yul\":8441:8822   */\n    tag_264:\n      0x00\n        /* \"#utility.yul\":8604:8671   */\n      tag_266\n        /* \"#utility.yul\":8668:8670   */\n      0x31\n        /* \"#utility.yul\":8663:8666   */\n      dup4\n        /* \"#utility.yul\":8604:8671   */\n      tag_243\n      jump\t// in\n    tag_266:\n        /* \"#utility.yul\":8597:8671   */\n      swap2\n      pop\n        /* \"#utility.yul\":8701:8735   */\n      0x546f646f4c6973743a2043616e6e6f742075706461746520737461747573206f\n        /* \"#utility.yul\":8697:8698   */\n      0x00\n        /* \"#utility.yul\":8692:8695   */\n      dup4\n        /* \"#utility.yul\":8688:8699   */\n      add\n        /* \"#utility.yul\":8681:8736   */\n      mstore\n        /* \"#utility.yul\":8767:8786   */\n      0x6620612064656c6574656420746f646f2e000000000000000000000000000000\n        /* \"#utility.yul\":8762:8764   */\n      0x20\n        /* \"#utility.yul\":8757:8760   */\n      dup4\n        /* \"#utility.yul\":8753:8765   */\n      add\n        /* \"#utility.yul\":8746:8787   */\n      mstore\n        /* \"#utility.yul\":8813:8815   */\n      0x40\n        /* \"#utility.yul\":8808:8811   */\n      dup3\n        /* \"#utility.yul\":8804:8816   */\n      add\n        /* \"#utility.yul\":8797:8816   */\n      swap1\n      pop\n        /* \"#utility.yul\":8587:8822   */\n      swap2\n      swap1\n      pop\n      jump\t// out\n        /* \"#utility.yul\":8828:9210   */\n    tag_267:\n      0x00\n        /* \"#utility.yul\":8991:9058   */\n      tag_269\n        /* \"#utility.yul\":9055:9057   */\n      0x32\n        /* \"#utility.yul\":9050:9053   */\n      dup4\n        /* \"#utility.yul\":8991:9058   */\n      tag_243\n      jump\t// in\n    tag_269:\n        /* \"#utility.yul\":8984:9058   */\n      swap2\n      pop\n        /* \"#utility.yul\":9088:9122   */\n      0x546f646f4c6973743a2043616e6e6f742075706461746520636f6e74656e7420\n        /* \"#utility.yul\":9084:9085   */\n      0x00\n        /* \"#utility.yul\":9079:9082   */\n      dup4\n        /* \"#utility.yul\":9075:9086   */\n      add\n        /* \"#utility.yul\":9068:9123   */\n      mstore\n        /* \"#utility.yul\":9154:9174   */\n      0x6f6620612064656c6574656420746f646f2e0000000000000000000000000000\n        /* \"#utility.yul\":9149:9151   */\n      0x20\n        /* \"#utility.yul\":9144:9147   */\n      dup4\n        /* \"#utility.yul\":9140:9152   */\n      add\n        /* \"#utility.yul\":9133:9175   */\n      mstore\n        /* \"#utility.yul\":9201:9203   */\n      0x40\n        /* \"#utility.yul\":9196:9199   */\n      dup3\n        /* \"#utility.yul\":9192:9204   */\n      add\n        /* \"#utility.yul\":9185:9204   */\n      swap1\n      pop\n        /* \"#utility.yul\":8974:9210   */\n      swap2\n      swap1\n      pop\n      jump\t// out\n        /* \"#utility.yul\":9268:10214   */\n    tag_182:\n      0x00\n        /* \"#utility.yul\":9403:9407   */\n      0x80\n        /* \"#utility.yul\":9398:9401   */\n      dup4\n        /* \"#utility.yul\":9394:9408   */\n      add\n        /* \"#utility.yul\":9488:9492   */\n      0x00\n        /* \"#utility.yul\":9481:9486   */\n      dup4\n        /* \"#utility.yul\":9477:9493   */\n      add\n        /* \"#utility.yul\":9471:9494   */\n      mload\n        /* \"#utility.yul\":9507:9570   */\n      tag_271\n        /* \"#utility.yul\":9564:9568   */\n      0x00\n        /* \"#utility.yul\":9559:9562   */\n      dup7\n        /* \"#utility.yul\":9555:9569   */\n      add\n        /* \"#utility.yul\":9541:9553   */\n      dup3\n        /* \"#utility.yul\":9507:9570   */\n      tag_186\n      jump\t// in\n    tag_271:\n        /* \"#utility.yul\":9418:9580   */\n      pop\n        /* \"#utility.yul\":9665:9669   */\n      0x20\n        /* \"#utility.yul\":9658:9663   */\n      dup4\n        /* \"#utility.yul\":9654:9670   */\n      add\n        /* \"#utility.yul\":9648:9671   */\n      mload\n        /* \"#utility.yul\":9718:9721   */\n      dup5\n        /* \"#utility.yul\":9712:9716   */\n      dup3\n        /* \"#utility.yul\":9708:9722   */\n      sub\n        /* \"#utility.yul\":9701:9705   */\n      0x20\n        /* \"#utility.yul\":9696:9699   */\n      dup7\n        /* \"#utility.yul\":9692:9706   */\n      add\n        /* \"#utility.yul\":9685:9723   */\n      mstore\n        /* \"#utility.yul\":9744:9817   */\n      tag_272\n        /* \"#utility.yul\":9812:9816   */\n      dup3\n        /* \"#utility.yul\":9798:9810   */\n      dup3\n        /* \"#utility.yul\":9744:9817   */\n      tag_229\n      jump\t// in\n    tag_272:\n        /* \"#utility.yul\":9736:9817   */\n      swap2\n      pop\n        /* \"#utility.yul\":9590:9828   */\n      pop\n        /* \"#utility.yul\":9912:9916   */\n      0x40\n        /* \"#utility.yul\":9905:9910   */\n      dup4\n        /* \"#utility.yul\":9901:9917   */\n      add\n        /* \"#utility.yul\":9895:9918   */\n      mload\n        /* \"#utility.yul\":9931:10004   */\n      tag_273\n        /* \"#utility.yul\":9998:10002   */\n      0x40\n        /* \"#utility.yul\":9993:9996   */\n      dup7\n        /* \"#utility.yul\":9989:10003   */\n      add\n        /* \"#utility.yul\":9975:9987   */\n      dup3\n        /* \"#utility.yul\":9931:10004   */\n      tag_222\n      jump\t// in\n    tag_273:\n        /* \"#utility.yul\":9838:10014   */\n      pop\n        /* \"#utility.yul\":10101:10105   */\n      0x60\n        /* \"#utility.yul\":10094:10099   */\n      dup4\n        /* \"#utility.yul\":10090:10106   */\n      add\n        /* \"#utility.yul\":10084:10107   */\n      mload\n        /* \"#utility.yul\":10120:10177   */\n      tag_274\n        /* \"#utility.yul\":10171:10175   */\n      0x60\n        /* \"#utility.yul\":10166:10169   */\n      dup7\n        /* \"#utility.yul\":10162:10176   */\n      add\n        /* \"#utility.yul\":10148:10160   */\n      dup3\n        /* \"#utility.yul\":10120:10177   */\n      tag_215\n      jump\t// in\n    tag_274:\n        /* \"#utility.yul\":10024:10187   */\n      pop\n        /* \"#utility.yul\":10204:10208   */\n      dup1\n        /* \"#utility.yul\":10197:10208   */\n      swap2\n      pop\n        /* \"#utility.yul\":9372:10214   */\n      pop\n      swap3\n      swap2\n      pop\n      pop\n      jump\t// out\n        /* \"#utility.yul\":10220:10328   */\n    tag_186:\n        /* \"#utility.yul\":10297:10321   */\n      tag_276\n        /* \"#utility.yul\":10315:10320   */\n      dup2\n        /* \"#utility.yul\":10297:10321   */\n      tag_277\n      jump\t// in\n    tag_276:\n        /* \"#utility.yul\":10292:10295   */\n      dup3\n        /* \"#utility.yul\":10285:10322   */\n      mstore\n        /* \"#utility.yul\":10275:10328   */\n      pop\n      pop\n      jump\t// out\n        /* \"#utility.yul\":10334:10452   */\n    tag_278:\n        /* \"#utility.yul\":10421:10445   */\n      tag_280\n        /* \"#utility.yul\":10439:10444   */\n      dup2\n        /* \"#utility.yul\":10421:10445   */\n      tag_277\n      jump\t// in\n    tag_280:\n        /* \"#utility.yul\":10416:10419   */\n      dup3\n        /* \"#utility.yul\":10409:10446   */\n      mstore\n        /* \"#utility.yul\":10399:10452   */\n      pop\n      pop\n      jump\t// out\n        /* \"#utility.yul\":10458:10911   */\n    tag_40:\n      0x00\n        /* \"#utility.yul\":10679:10681   */\n      0x20\n        /* \"#utility.yul\":10668:10677   */\n      dup3\n        /* \"#utility.yul\":10664:10682   */\n      add\n        /* \"#utility.yul\":10656:10682   */\n      swap1\n      pop\n        /* \"#utility.yul\":10728:10737   */\n      dup2\n        /* \"#utility.yul\":10722:10726   */\n      dup2\n        /* \"#utility.yul\":10718:10738   */\n      sub\n        /* \"#utility.yul\":10714:10715   */\n      0x00\n        /* \"#utility.yul\":10703:10712   */\n      dup4\n        /* \"#utility.yul\":10699:10716   */\n      add\n        /* \"#utility.yul\":10692:10739   */\n      mstore\n        /* \"#utility.yul\":10756:10904   */\n      tag_282\n        /* \"#utility.yul\":10899:10903   */\n      dup2\n        /* \"#utility.yul\":10890:10896   */\n      dup5\n        /* \"#utility.yul\":10756:10904   */\n      tag_187\n      jump\t// in\n    tag_282:\n        /* \"#utility.yul\":10748:10904   */\n      swap1\n      pop\n        /* \"#utility.yul\":10646:10911   */\n      swap3\n      swap2\n      pop\n      pop\n      jump\t// out\n        /* \"#utility.yul\":10917:11290   */\n    tag_44:\n      0x00\n        /* \"#utility.yul\":11098:11100   */\n      0x20\n        /* \"#utility.yul\":11087:11096   */\n      dup3\n        /* \"#utility.yul\":11083:11101   */\n      add\n        /* \"#utility.yul\":11075:11101   */\n      swap1\n      pop\n        /* \"#utility.yul\":11147:11156   */\n      dup2\n        /* \"#utility.yul\":11141:11145   */\n      dup2\n        /* \"#utility.yul\":11137:11157   */\n      sub\n        /* \"#utility.yul\":11133:11134   */\n      0x00\n        /* \"#utility.yul\":11122:11131   */\n      dup4\n        /* \"#utility.yul\":11118:11135   */\n      add\n        /* \"#utility.yul\":11111:11158   */\n      mstore\n        /* \"#utility.yul\":11175:11283   */\n      tag_284\n        /* \"#utility.yul\":11278:11282   */\n      dup2\n        /* \"#utility.yul\":11269:11275   */\n      dup5\n        /* \"#utility.yul\":11175:11283   */\n      tag_201\n      jump\t// in\n    tag_284:\n        /* \"#utility.yul\":11167:11283   */\n      swap1\n      pop\n        /* \"#utility.yul\":11065:11290   */\n      swap3\n      swap2\n      pop\n      pop\n      jump\t// out\n        /* \"#utility.yul\":11296:11715   */\n    tag_56:\n      0x00\n        /* \"#utility.yul\":11500:11502   */\n      0x20\n        /* \"#utility.yul\":11489:11498   */\n      dup3\n        /* \"#utility.yul\":11485:11503   */\n      add\n        /* \"#utility.yul\":11477:11503   */\n      swap1\n      pop\n        /* \"#utility.yul\":11549:11558   */\n      dup2\n        /* \"#utility.yul\":11543:11547   */\n      dup2\n        /* \"#utility.yul\":11539:11559   */\n      sub\n        /* \"#utility.yul\":11535:11536   */\n      0x00\n        /* \"#utility.yul\":11524:11533   */\n      dup4\n        /* \"#utility.yul\":11520:11537   */\n      add\n        /* \"#utility.yul\":11513:11560   */\n      mstore\n        /* \"#utility.yul\":11577:11708   */\n      tag_286\n        /* \"#utility.yul\":11703:11707   */\n      dup2\n        /* \"#utility.yul\":11577:11708   */\n      tag_246\n      jump\t// in\n    tag_286:\n        /* \"#utility.yul\":11569:11708   */\n      swap1\n      pop\n        /* \"#utility.yul\":11467:11715   */\n      swap2\n      swap1\n      pop\n      jump\t// out\n        /* \"#utility.yul\":11721:12140   */\n    tag_82:\n      0x00\n        /* \"#utility.yul\":11925:11927   */\n      0x20\n        /* \"#utility.yul\":11914:11923   */\n      dup3\n        /* \"#utility.yul\":11910:11928   */\n      add\n        /* \"#utility.yul\":11902:11928   */\n      swap1\n      pop\n        /* \"#utility.yul\":11974:11983   */\n      dup2\n        /* \"#utility.yul\":11968:11972   */\n      dup2\n        /* \"#utility.yul\":11964:11984   */\n      sub\n        /* \"#utility.yul\":11960:11961   */\n      0x00\n        /* \"#utility.yul\":11949:11958   */\n      dup4\n        /* \"#utility.yul\":11945:11962   */\n      add\n        /* \"#utility.yul\":11938:11985   */\n      mstore\n        /* \"#utility.yul\":12002:12133   */\n      tag_288\n        /* \"#utility.yul\":12128:12132   */\n      dup2\n        /* \"#utility.yul\":12002:12133   */\n      tag_249\n      jump\t// in\n    tag_288:\n        /* \"#utility.yul\":11994:12133   */\n      swap1\n      pop\n        /* \"#utility.yul\":11892:12140   */\n      swap2\n      swap1\n      pop\n      jump\t// out\n        /* \"#utility.yul\":12146:12565   */\n    tag_88:\n      0x00\n        /* \"#utility.yul\":12350:12352   */\n      0x20\n        /* \"#utility.yul\":12339:12348   */\n      dup3\n        /* \"#utility.yul\":12335:12353   */\n      add\n        /* \"#utility.yul\":12327:12353   */\n      swap1\n      pop\n        /* \"#utility.yul\":12399:12408   */\n      dup2\n        /* \"#utility.yul\":12393:12397   */\n      dup2\n        /* \"#utility.yul\":12389:12409   */\n      sub\n        /* \"#utility.yul\":12385:12386   */\n      0x00\n        /* \"#utility.yul\":12374:12383   */\n      dup4\n        /* \"#utility.yul\":12370:12387   */\n      add\n        /* \"#utility.yul\":12363:12410   */\n      mstore\n        /* \"#utility.yul\":12427:12558   */\n      tag_290\n        /* \"#utility.yul\":12553:12557   */\n      dup2\n        /* \"#utility.yul\":12427:12558   */\n      tag_252\n      jump\t// in\n    tag_290:\n        /* \"#utility.yul\":12419:12558   */\n      swap1\n      pop\n        /* \"#utility.yul\":12317:12565   */\n      swap2\n      swap1\n      pop\n      jump\t// out\n        /* \"#utility.yul\":12571:12990   */\n    tag_117:\n      0x00\n        /* \"#utility.yul\":12775:12777   */\n      0x20\n        /* \"#utility.yul\":12764:12773   */\n      dup3\n        /* \"#utility.yul\":12760:12778   */\n      add\n        /* \"#utility.yul\":12752:12778   */\n      swap1\n      pop\n        /* \"#utility.yul\":12824:12833   */\n      dup2\n        /* \"#utility.yul\":12818:12822   */\n      dup2\n        /* \"#utility.yul\":12814:12834   */\n      sub\n        /* \"#utility.yul\":12810:12811   */\n      0x00\n        /* \"#utility.yul\":12799:12808   */\n      dup4\n        /* \"#utility.yul\":12795:12812   */\n      add\n        /* \"#utility.yul\":12788:12835   */\n      mstore\n        /* \"#utility.yul\":12852:12983   */\n      tag_292\n        /* \"#utility.yul\":12978:12982   */\n      dup2\n        /* \"#utility.yul\":12852:12983   */\n      tag_255\n      jump\t// in\n    tag_292:\n        /* \"#utility.yul\":12844:12983   */\n      swap1\n      pop\n        /* \"#utility.yul\":12742:12990   */\n      swap2\n      swap1\n      pop\n      jump\t// out\n        /* \"#utility.yul\":12996:13415   */\n    tag_70:\n      0x00\n        /* \"#utility.yul\":13200:13202   */\n      0x20\n        /* \"#utility.yul\":13189:13198   */\n      dup3\n        /* \"#utility.yul\":13185:13203   */\n      add\n        /* \"#utility.yul\":13177:13203   */\n      swap1\n      pop\n        /* \"#utility.yul\":13249:13258   */\n      dup2\n        /* \"#utility.yul\":13243:13247   */\n      dup2\n        /* \"#utility.yul\":13239:13259   */\n      sub\n        /* \"#utility.yul\":13235:13236   */\n      0x00\n        /* \"#utility.yul\":13224:13233   */\n      dup4\n        /* \"#utility.yul\":13220:13237   */\n      add\n        /* \"#utility.yul\":13213:13260   */\n      mstore\n        /* \"#utility.yul\":13277:13408   */\n      tag_294\n        /* \"#utility.yul\":13403:13407   */\n      dup2\n        /* \"#utility.yul\":13277:13408   */\n      tag_258\n      jump\t// in\n    tag_294:\n        /* \"#utility.yul\":13269:13408   */\n      swap1\n      pop\n        /* \"#utility.yul\":13167:13415   */\n      swap2\n      swap1\n      pop\n      jump\t// out\n        /* \"#utility.yul\":13421:13840   */\n    tag_62:\n      0x00\n        /* \"#utility.yul\":13625:13627   */\n      0x20\n        /* \"#utility.yul\":13614:13623   */\n      dup3\n        /* \"#utility.yul\":13610:13628   */\n      add\n        /* \"#utility.yul\":13602:13628   */\n      swap1\n      pop\n        /* \"#utility.yul\":13674:13683   */\n      dup2\n        /* \"#utility.yul\":13668:13672   */\n      dup2\n        /* \"#utility.yul\":13664:13684   */\n      sub\n        /* \"#utility.yul\":13660:13661   */\n      0x00\n        /* \"#utility.yul\":13649:13658   */\n      dup4\n        /* \"#utility.yul\":13645:13662   */\n      add\n        /* \"#utility.yul\":13638:13685   */\n      mstore\n        /* \"#utility.yul\":13702:13833   */\n      tag_296\n        /* \"#utility.yul\":13828:13832   */\n      dup2\n        /* \"#utility.yul\":13702:13833   */\n      tag_261\n      jump\t// in\n    tag_296:\n        /* \"#utility.yul\":13694:13833   */\n      swap1\n      pop\n        /* \"#utility.yul\":13592:13840   */\n      swap2\n      swap1\n      pop\n      jump\t// out\n        /* \"#utility.yul\":13846:14265   */\n    tag_73:\n      0x00\n        /* \"#utility.yul\":14050:14052   */\n      0x20\n        /* \"#utility.yul\":14039:14048   */\n      dup3\n        /* \"#utility.yul\":14035:14053   */\n      add\n        /* \"#utility.yul\":14027:14053   */\n      swap1\n      pop\n        /* \"#utility.yul\":14099:14108   */\n      dup2\n        /* \"#utility.yul\":14093:14097   */\n      dup2\n        /* \"#utility.yul\":14089:14109   */\n      sub\n        /* \"#utility.yul\":14085:14086   */\n      0x00\n        /* \"#utility.yul\":14074:14083   */\n      dup4\n        /* \"#utility.yul\":14070:14087   */\n      add\n        /* \"#utility.yul\":14063:14110   */\n      mstore\n        /* \"#utility.yul\":14127:14258   */\n      tag_298\n        /* \"#utility.yul\":14253:14257   */\n      dup2\n        /* \"#utility.yul\":14127:14258   */\n      tag_264\n      jump\t// in\n    tag_298:\n        /* \"#utility.yul\":14119:14258   */\n      swap1\n      pop\n        /* \"#utility.yul\":14017:14265   */\n      swap2\n      swap1\n      pop\n      jump\t// out\n        /* \"#utility.yul\":14271:14690   */\n    tag_59:\n      0x00\n        /* \"#utility.yul\":14475:14477   */\n      0x20\n        /* \"#utility.yul\":14464:14473   */\n      dup3\n        /* \"#utility.yul\":14460:14478   */\n      add\n        /* \"#utility.yul\":14452:14478   */\n      swap1\n      pop\n        /* \"#utility.yul\":14524:14533   */\n      dup2\n        /* \"#utility.yul\":14518:14522   */\n      dup2\n        /* \"#utility.yul\":14514:14534   */\n      sub\n        /* \"#utility.yul\":14510:14511   */\n      0x00\n        /* \"#utility.yul\":14499:14508   */\n      dup4\n        /* \"#utility.yul\":14495:14512   */\n      add\n        /* \"#utility.yul\":14488:14535   */\n      mstore\n        /* \"#utility.yul\":14552:14683   */\n      tag_300\n        /* \"#utility.yul\":14678:14682   */\n      dup2\n        /* \"#utility.yul\":14552:14683   */\n      tag_267\n      jump\t// in\n    tag_300:\n        /* \"#utility.yul\":14544:14683   */\n      swap1\n      pop\n        /* \"#utility.yul\":14442:14690   */\n      swap2\n      swap1\n      pop\n      jump\t// out\n        /* \"#utility.yul\":14696:14918   */\n    tag_18:\n      0x00\n        /* \"#utility.yul\":14827:14829   */\n      0x20\n        /* \"#utility.yul\":14816:14825   */\n      dup3\n        /* \"#utility.yul\":14812:14830   */\n      add\n        /* \"#utility.yul\":14804:14830   */\n      swap1\n      pop\n        /* \"#utility.yul\":14840:14911   */\n      tag_302\n        /* \"#utility.yul\":14908:14909   */\n      0x00\n        /* \"#utility.yul\":14897:14906   */\n      dup4\n        /* \"#utility.yul\":14893:14910   */\n      add\n        /* \"#utility.yul\":14884:14890   */\n      dup5\n        /* \"#utility.yul\":14840:14911   */\n      tag_278\n      jump\t// in\n    tag_302:\n        /* \"#utility.yul\":14794:14918   */\n      swap3\n      swap2\n      pop\n      pop\n      jump\t// out\n        /* \"#utility.yul\":14924:15276   */\n    tag_76:\n      0x00\n        /* \"#utility.yul\":15093:15095   */\n      0x40\n        /* \"#utility.yul\":15082:15091   */\n      dup3\n        /* \"#utility.yul\":15078:15096   */\n      add\n        /* \"#utility.yul\":15070:15096   */\n      swap1\n      pop\n        /* \"#utility.yul\":15106:15177   */\n      tag_304\n        /* \"#utility.yul\":15174:15175   */\n      0x00\n        /* \"#utility.yul\":15163:15172   */\n      dup4\n        /* \"#utility.yul\":15159:15176   */\n      add\n        /* \"#utility.yul\":15150:15156   */\n      dup6\n        /* \"#utility.yul\":15106:15177   */\n      tag_278\n      jump\t// in\n    tag_304:\n        /* \"#utility.yul\":15187:15269   */\n      tag_305\n        /* \"#utility.yul\":15265:15267   */\n      0x20\n        /* \"#utility.yul\":15254:15263   */\n      dup4\n        /* \"#utility.yul\":15250:15268   */\n      add\n        /* \"#utility.yul\":15241:15247   */\n      dup5\n        /* \"#utility.yul\":15187:15269   */\n      tag_226\n      jump\t// in\n    tag_305:\n        /* \"#utility.yul\":15060:15276   */\n      swap4\n      swap3\n      pop\n      pop\n      pop\n      jump\t// out\n        /* \"#utility.yul\":15282:15705   */\n    tag_66:\n      0x00\n        /* \"#utility.yul\":15461:15463   */\n      0x40\n        /* \"#utility.yul\":15450:15459   */\n      dup3\n        /* \"#utility.yul\":15446:15464   */\n      add\n        /* \"#utility.yul\":15438:15464   */\n      swap1\n      pop\n        /* \"#utility.yul\":15474:15545   */\n      tag_307\n        /* \"#utility.yul\":15542:15543   */\n      0x00\n        /* \"#utility.yul\":15531:15540   */\n      dup4\n        /* \"#utility.yul\":15527:15544   */\n      add\n        /* \"#utility.yul\":15518:15524   */\n      dup6\n        /* \"#utility.yul\":15474:15545   */\n      tag_278\n      jump\t// in\n    tag_307:\n        /* \"#utility.yul\":15592:15601   */\n      dup2\n        /* \"#utility.yul\":15586:15590   */\n      dup2\n        /* \"#utility.yul\":15582:15602   */\n      sub\n        /* \"#utility.yul\":15577:15579   */\n      0x20\n        /* \"#utility.yul\":15566:15575   */\n      dup4\n        /* \"#utility.yul\":15562:15580   */\n      add\n        /* \"#utility.yul\":15555:15603   */\n      mstore\n        /* \"#utility.yul\":15620:15698   */\n      tag_308\n        /* \"#utility.yul\":15693:15697   */\n      dup2\n        /* \"#utility.yul\":15684:15690   */\n      dup5\n        /* \"#utility.yul\":15620:15698   */\n      tag_239\n      jump\t// in\n    tag_308:\n        /* \"#utility.yul\":15612:15698   */\n      swap1\n      pop\n        /* \"#utility.yul\":15428:15705   */\n      swap4\n      swap3\n      pop\n      pop\n      pop\n      jump\t// out\n        /* \"#utility.yul\":15711:16363   */\n    tag_49:\n      0x00\n        /* \"#utility.yul\":15950:15953   */\n      0x80\n        /* \"#utility.yul\":15939:15948   */\n      dup3\n        /* \"#utility.yul\":15935:15954   */\n      add\n        /* \"#utility.yul\":15927:15954   */\n      swap1\n      pop\n        /* \"#utility.yul\":15964:16035   */\n      tag_310\n        /* \"#utility.yul\":16032:16033   */\n      0x00\n        /* \"#utility.yul\":16021:16030   */\n      dup4\n        /* \"#utility.yul\":16017:16034   */\n      add\n        /* \"#utility.yul\":16008:16014   */\n      dup8\n        /* \"#utility.yul\":15964:16035   */\n      tag_278\n      jump\t// in\n    tag_310:\n        /* \"#utility.yul\":16082:16091   */\n      dup2\n        /* \"#utility.yul\":16076:16080   */\n      dup2\n        /* \"#utility.yul\":16072:16092   */\n      sub\n        /* \"#utility.yul\":16067:16069   */\n      0x20\n        /* \"#utility.yul\":16056:16065   */\n      dup4\n        /* \"#utility.yul\":16052:16070   */\n      add\n        /* \"#utility.yul\":16045:16093   */\n      mstore\n        /* \"#utility.yul\":16110:16188   */\n      tag_311\n        /* \"#utility.yul\":16183:16187   */\n      dup2\n        /* \"#utility.yul\":16174:16180   */\n      dup7\n        /* \"#utility.yul\":16110:16188   */\n      tag_239\n      jump\t// in\n    tag_311:\n        /* \"#utility.yul\":16102:16188   */\n      swap1\n      pop\n        /* \"#utility.yul\":16198:16280   */\n      tag_312\n        /* \"#utility.yul\":16276:16278   */\n      0x40\n        /* \"#utility.yul\":16265:16274   */\n      dup4\n        /* \"#utility.yul\":16261:16279   */\n      add\n        /* \"#utility.yul\":16252:16258   */\n      dup6\n        /* \"#utility.yul\":16198:16280   */\n      tag_226\n      jump\t// in\n    tag_312:\n        /* \"#utility.yul\":16290:16356   */\n      tag_313\n        /* \"#utility.yul\":16352:16354   */\n      0x60\n        /* \"#utility.yul\":16341:16350   */\n      dup4\n        /* \"#utility.yul\":16337:16355   */\n      add\n        /* \"#utility.yul\":16328:16334   */\n      dup5\n        /* \"#utility.yul\":16290:16356   */\n      tag_219\n      jump\t// in\n    tag_313:\n        /* \"#utility.yul\":15917:16363   */\n      swap6\n      swap5\n      pop\n      pop\n      pop\n      pop\n      pop\n      jump\t// out\n        /* \"#utility.yul\":16369:16652   */\n    tag_147:\n      0x00\n        /* \"#utility.yul\":16435:16437   */\n      0x40\n        /* \"#utility.yul\":16429:16438   */\n      mload\n        /* \"#utility.yul\":16419:16438   */\n      swap1\n      pop\n        /* \"#utility.yul\":16477:16481   */\n      dup2\n        /* \"#utility.yul\":16469:16475   */\n      dup2\n        /* \"#utility.yul\":16465:16482   */\n      add\n        /* \"#utility.yul\":16584:16590   */\n      dup2\n        /* \"#utility.yul\":16572:16582   */\n      dup2\n        /* \"#utility.yul\":16569:16591   */\n      lt\n        /* \"#utility.yul\":16548:16566   */\n      0xffffffffffffffff\n        /* \"#utility.yul\":16536:16546   */\n      dup3\n        /* \"#utility.yul\":16533:16567   */\n      gt\n        /* \"#utility.yul\":16530:16592   */\n      or\n        /* \"#utility.yul\":16527:16529   */\n      iszero\n      tag_315\n      jumpi\n        /* \"#utility.yul\":16595:16613   */\n      tag_316\n      tag_317\n      jump\t// in\n    tag_316:\n        /* \"#utility.yul\":16527:16529   */\n    tag_315:\n        /* \"#utility.yul\":16635:16645   */\n      dup1\n        /* \"#utility.yul\":16631:16633   */\n      0x40\n        /* \"#utility.yul\":16624:16646   */\n      mstore\n        /* \"#utility.yul\":16409:16652   */\n      pop\n      swap2\n      swap1\n      pop\n      jump\t// out\n        /* \"#utility.yul\":16658:16990   */\n    tag_146:\n      0x00\n        /* \"#utility.yul\":16810:16828   */\n      0xffffffffffffffff\n        /* \"#utility.yul\":16802:16808   */\n      dup3\n        /* \"#utility.yul\":16799:16829   */\n      gt\n        /* \"#utility.yul\":16796:16798   */\n      iszero\n      tag_319\n      jumpi\n        /* \"#utility.yul\":16832:16850   */\n      tag_320\n      tag_317\n      jump\t// in\n    tag_320:\n        /* \"#utility.yul\":16796:16798   */\n    tag_319:\n        /* \"#utility.yul\":16917:16921   */\n      0x1f\n        /* \"#utility.yul\":16913:16922   */\n      not\n        /* \"#utility.yul\":16906:16910   */\n      0x1f\n        /* \"#utility.yul\":16898:16904   */\n      dup4\n        /* \"#utility.yul\":16894:16911   */\n      add\n        /* \"#utility.yul\":16890:16923   */\n      and\n        /* \"#utility.yul\":16882:16923   */\n      swap1\n      pop\n        /* \"#utility.yul\":16978:16982   */\n      0x20\n        /* \"#utility.yul\":16972:16976   */\n      dup2\n        /* \"#utility.yul\":16968:16983   */\n      add\n        /* \"#utility.yul\":16960:16983   */\n      swap1\n      pop\n        /* \"#utility.yul\":16725:16990   */\n      swap2\n      swap1\n      pop\n      jump\t// out\n        /* \"#utility.yul\":16996:17148   */\n    tag_194:\n      0x00\n        /* \"#utility.yul\":17106:17109   */\n      dup2\n        /* \"#utility.yul\":17098:17109   */\n      swap1\n      pop\n        /* \"#utility.yul\":17136:17140   */\n      0x20\n        /* \"#utility.yul\":17131:17134   */\n      dup3\n        /* \"#utility.yul\":17127:17141   */\n      add\n        /* \"#utility.yul\":17119:17141   */\n      swap1\n      pop\n        /* \"#utility.yul\":17088:17148   */\n      swap2\n      swap1\n      pop\n      jump\t// out\n        /* \"#utility.yul\":17154:17286   */\n    tag_208:\n      0x00\n        /* \"#utility.yul\":17244:17247   */\n      dup2\n        /* \"#utility.yul\":17236:17247   */\n      swap1\n      pop\n        /* \"#utility.yul\":17274:17278   */\n      0x20\n        /* \"#utility.yul\":17269:17272   */\n      dup3\n        /* \"#utility.yul\":17265:17279   */\n      add\n        /* \"#utility.yul\":17257:17279   */\n      swap1\n      pop\n        /* \"#utility.yul\":17226:17286   */\n      swap2\n      swap1\n      pop\n      jump\t// out\n        /* \"#utility.yul\":17292:17426   */\n    tag_190:\n      0x00\n        /* \"#utility.yul\":17413:17418   */\n      dup2\n        /* \"#utility.yul\":17407:17419   */\n      mload\n        /* \"#utility.yul\":17397:17419   */\n      swap1\n      pop\n        /* \"#utility.yul\":17386:17426   */\n      swap2\n      swap1\n      pop\n      jump\t// out\n        /* \"#utility.yul\":17432:17546   */\n    tag_204:\n      0x00\n        /* \"#utility.yul\":17533:17538   */\n      dup2\n        /* \"#utility.yul\":17527:17539   */\n      mload\n        /* \"#utility.yul\":17517:17539   */\n      swap1\n      pop\n        /* \"#utility.yul\":17506:17546   */\n      swap2\n      swap1\n      pop\n      jump\t// out\n        /* \"#utility.yul\":17552:17651   */\n    tag_232:\n      0x00\n        /* \"#utility.yul\":17638:17643   */\n      dup2\n        /* \"#utility.yul\":17632:17644   */\n      mload\n        /* \"#utility.yul\":17622:17644   */\n      swap1\n      pop\n        /* \"#utility.yul\":17611:17651   */\n      swap2\n      swap1\n      pop\n      jump\t// out\n        /* \"#utility.yul\":17657:17790   */\n    tag_200:\n      0x00\n        /* \"#utility.yul\":17779:17783   */\n      0x20\n        /* \"#utility.yul\":17774:17777   */\n      dup3\n        /* \"#utility.yul\":17770:17784   */\n      add\n        /* \"#utility.yul\":17762:17784   */\n      swap1\n      pop\n        /* \"#utility.yul\":17752:17790   */\n      swap2\n      swap1\n      pop\n      jump\t// out\n        /* \"#utility.yul\":17796:17909   */\n    tag_214:\n      0x00\n        /* \"#utility.yul\":17898:17902   */\n      0x20\n        /* \"#utility.yul\":17893:17896   */\n      dup3\n        /* \"#utility.yul\":17889:17903   */\n      add\n        /* \"#utility.yul\":17881:17903   */\n      swap1\n      pop\n        /* \"#utility.yul\":17871:17909   */\n      swap2\n      swap1\n      pop\n      jump\t// out\n        /* \"#utility.yul\":17915:18119   */\n    tag_192:\n      0x00\n        /* \"#utility.yul\":18068:18074   */\n      dup3\n        /* \"#utility.yul\":18063:18066   */\n      dup3\n        /* \"#utility.yul\":18056:18075   */\n      mstore\n        /* \"#utility.yul\":18108:18112   */\n      0x20\n        /* \"#utility.yul\":18103:18106   */\n      dup3\n        /* \"#utility.yul\":18099:18113   */\n      add\n        /* \"#utility.yul\":18084:18113   */\n      swap1\n      pop\n        /* \"#utility.yul\":18046:18119   */\n      swap3\n      swap2\n      pop\n      pop\n      jump\t// out\n        /* \"#utility.yul\":18125:18309   */\n    tag_206:\n      0x00\n        /* \"#utility.yul\":18258:18264   */\n      dup3\n        /* \"#utility.yul\":18253:18256   */\n      dup3\n        /* \"#utility.yul\":18246:18265   */\n      mstore\n        /* \"#utility.yul\":18298:18302   */\n      0x20\n        /* \"#utility.yul\":18293:18296   */\n      dup3\n        /* \"#utility.yul\":18289:18303   */\n      add\n        /* \"#utility.yul\":18274:18303   */\n      swap1\n      pop\n        /* \"#utility.yul\":18236:18309   */\n      swap3\n      swap2\n      pop\n      pop\n      jump\t// out\n        /* \"#utility.yul\":18315:18474   */\n    tag_234:\n      0x00\n        /* \"#utility.yul\":18423:18429   */\n      dup3\n        /* \"#utility.yul\":18418:18421   */\n      dup3\n        /* \"#utility.yul\":18411:18430   */\n      mstore\n        /* \"#utility.yul\":18463:18467   */\n      0x20\n        /* \"#utility.yul\":18458:18461   */\n      dup3\n        /* \"#utility.yul\":18454:18468   */\n      add\n        /* \"#utility.yul\":18439:18468   */\n      swap1\n      pop\n        /* \"#utility.yul\":18401:18474   */\n      swap3\n      swap2\n      pop\n      pop\n      jump\t// out\n        /* \"#utility.yul\":18480:18649   */\n    tag_243:\n      0x00\n        /* \"#utility.yul\":18598:18604   */\n      dup3\n        /* \"#utility.yul\":18593:18596   */\n      dup3\n        /* \"#utility.yul\":18586:18605   */\n      mstore\n        /* \"#utility.yul\":18638:18642   */\n      0x20\n        /* \"#utility.yul\":18633:18636   */\n      dup3\n        /* \"#utility.yul\":18629:18643   */\n      add\n        /* \"#utility.yul\":18614:18643   */\n      swap1\n      pop\n        /* \"#utility.yul\":18576:18649   */\n      swap3\n      swap2\n      pop\n      pop\n      jump\t// out\n        /* \"#utility.yul\":18655:18745   */\n    tag_218:\n      0x00\n        /* \"#utility.yul\":18732:18737   */\n      dup2\n        /* \"#utility.yul\":18725:18738   */\n      iszero\n        /* \"#utility.yul\":18718:18739   */\n      iszero\n        /* \"#utility.yul\":18707:18739   */\n      swap1\n      pop\n        /* \"#utility.yul\":18697:18745   */\n      swap2\n      swap1\n      pop\n      jump\t// out\n        /* \"#utility.yul\":18751:18886   */\n    tag_333:\n      0x00\n        /* \"#utility.yul\":18829:18834   */\n      dup2\n        /* \"#utility.yul\":18818:18834   */\n      swap1\n      pop\n        /* \"#utility.yul\":18835:18880   */\n      tag_335\n        /* \"#utility.yul\":18874:18879   */\n      dup3\n        /* \"#utility.yul\":18835:18880   */\n      tag_336\n      jump\t// in\n    tag_335:\n        /* \"#utility.yul\":18808:18886   */\n      swap2\n      swap1\n      pop\n      jump\t// out\n        /* \"#utility.yul\":18892:18969   */\n    tag_277:\n      0x00\n        /* \"#utility.yul\":18958:18963   */\n      dup2\n        /* \"#utility.yul\":18947:18963   */\n      swap1\n      pop\n        /* \"#utility.yul\":18937:18969   */\n      swap2\n      swap1\n      pop\n      jump\t// out\n        /* \"#utility.yul\":18975:19110   */\n    tag_225:\n      0x00\n        /* \"#utility.yul\":19068:19104   */\n      tag_339\n        /* \"#utility.yul\":19098:19103   */\n      dup3\n        /* \"#utility.yul\":19068:19104   */\n      tag_333\n      jump\t// in\n    tag_339:\n        /* \"#utility.yul\":19055:19104   */\n      swap1\n      pop\n        /* \"#utility.yul\":19045:19110   */\n      swap2\n      swap1\n      pop\n      jump\t// out\n        /* \"#utility.yul\":19116:19270   */\n    tag_150:\n        /* \"#utility.yul\":19200:19206   */\n      dup3\n        /* \"#utility.yul\":19195:19198   */\n      dup2\n        /* \"#utility.yul\":19190:19193   */\n      dup4\n        /* \"#utility.yul\":19177:19207   */\n      calldatacopy\n        /* \"#utility.yul\":19262:19263   */\n      0x00\n        /* \"#utility.yul\":19253:19259   */\n      dup4\n        /* \"#utility.yul\":19248:19251   */\n      dup4\n        /* \"#utility.yul\":19244:19260   */\n      add\n        /* \"#utility.yul\":19237:19264   */\n      mstore\n        /* \"#utility.yul\":19167:19270   */\n      pop\n      pop\n      pop\n      jump\t// out\n        /* \"#utility.yul\":19276:19583   */\n    tag_236:\n        /* \"#utility.yul\":19344:19345   */\n      0x00\n        /* \"#utility.yul\":19354:19467   */\n    tag_342:\n        /* \"#utility.yul\":19368:19374   */\n      dup4\n        /* \"#utility.yul\":19365:19366   */\n      dup2\n        /* \"#utility.yul\":19362:19375   */\n      lt\n        /* \"#utility.yul\":19354:19467   */\n      iszero\n      tag_344\n      jumpi\n        /* \"#utility.yul\":19453:19454   */\n      dup1\n        /* \"#utility.yul\":19448:19451   */\n      dup3\n        /* \"#utility.yul\":19444:19455   */\n      add\n        /* \"#utility.yul\":19438:19456   */\n      mload\n        /* \"#utility.yul\":19434:19435   */\n      dup2\n        /* \"#utility.yul\":19429:19432   */\n      dup5\n        /* \"#utility.yul\":19425:19436   */\n      add\n        /* \"#utility.yul\":19418:19457   */\n      mstore\n        /* \"#utility.yul\":19390:19392   */\n      0x20\n        /* \"#utility.yul\":19387:19388   */\n      dup2\n        /* \"#utility.yul\":19383:19393   */\n      add\n        /* \"#utility.yul\":19378:19393   */\n      swap1\n      pop\n        /* \"#utility.yul\":19354:19467   */\n      jump(tag_342)\n    tag_344:\n        /* \"#utility.yul\":19485:19491   */\n      dup4\n        /* \"#utility.yul\":19482:19483   */\n      dup2\n        /* \"#utility.yul\":19479:19492   */\n      gt\n        /* \"#utility.yul\":19476:19478   */\n      iszero\n      tag_345\n      jumpi\n        /* \"#utility.yul\":19565:19566   */\n      0x00\n        /* \"#utility.yul\":19556:19562   */\n      dup5\n        /* \"#utility.yul\":19551:19554   */\n      dup5\n        /* \"#utility.yul\":19547:19563   */\n      add\n        /* \"#utility.yul\":19540:19567   */\n      mstore\n        /* \"#utility.yul\":19476:19478   */\n    tag_345:\n        /* \"#utility.yul\":19325:19583   */\n      pop\n      pop\n      pop\n      pop\n      jump\t// out\n        /* \"#utility.yul\":19589:19909   */\n    tag_101:\n      0x00\n        /* \"#utility.yul\":19670:19671   */\n      0x02\n        /* \"#utility.yul\":19664:19668   */\n      dup3\n        /* \"#utility.yul\":19660:19672   */\n      div\n        /* \"#utility.yul\":19650:19672   */\n      swap1\n      pop\n        /* \"#utility.yul\":19717:19718   */\n      0x01\n        /* \"#utility.yul\":19711:19715   */\n      dup3\n        /* \"#utility.yul\":19707:19719   */\n      and\n        /* \"#utility.yul\":19738:19756   */\n      dup1\n        /* \"#utility.yul\":19728:19730   */\n      tag_347\n      jumpi\n        /* \"#utility.yul\":19794:19798   */\n      0x7f\n        /* \"#utility.yul\":19786:19792   */\n      dup3\n        /* \"#utility.yul\":19782:19799   */\n      and\n        /* \"#utility.yul\":19772:19799   */\n      swap2\n      pop\n        /* \"#utility.yul\":19728:19730   */\n    tag_347:\n        /* \"#utility.yul\":19856:19858   */\n      0x20\n        /* \"#utility.yul\":19848:19854   */\n      dup3\n        /* \"#utility.yul\":19845:19859   */\n      lt\n        /* \"#utility.yul\":19825:19843   */\n      dup2\n        /* \"#utility.yul\":19822:19860   */\n      eq\n        /* \"#utility.yul\":19819:19821   */\n      iszero\n      tag_348\n      jumpi\n        /* \"#utility.yul\":19875:19893   */\n      tag_349\n      tag_350\n      jump\t// in\n    tag_349:\n        /* \"#utility.yul\":19819:19821   */\n    tag_348:\n        /* \"#utility.yul\":19640:19909   */\n      pop\n      swap2\n      swap1\n      pop\n      jump\t// out\n        /* \"#utility.yul\":19915:20148   */\n    tag_110:\n      0x00\n        /* \"#utility.yul\":19977:20001   */\n      tag_352\n        /* \"#utility.yul\":19995:20000   */\n      dup3\n        /* \"#utility.yul\":19977:20001   */\n      tag_277\n      jump\t// in\n    tag_352:\n        /* \"#utility.yul\":19968:20001   */\n      swap2\n      pop\n        /* \"#utility.yul\":20023:20089   */\n      0xffffffffffffffffffffffffffffffffffffffffffffffffffffffffffffffff\n        /* \"#utility.yul\":20016:20021   */\n      dup3\n        /* \"#utility.yul\":20013:20090   */\n      eq\n        /* \"#utility.yul\":20010:20012   */\n      iszero\n      tag_353\n      jumpi\n        /* \"#utility.yul\":20093:20111   */\n      tag_354\n      tag_355\n      jump\t// in\n    tag_354:\n        /* \"#utility.yul\":20010:20012   */\n    tag_353:\n        /* \"#utility.yul\":20140:20141   */\n      0x01\n        /* \"#utility.yul\":20133:20138   */\n      dup3\n        /* \"#utility.yul\":20129:20142   */\n      add\n        /* \"#utility.yul\":20122:20142   */\n      swap1\n      pop\n        /* \"#utility.yul\":19958:20148   */\n      swap2\n      swap1\n      pop\n      jump\t// out\n        /* \"#utility.yul\":20154:20334   */\n    tag_355:\n        /* \"#utility.yul\":20202:20279   */\n      0x4e487b7100000000000000000000000000000000000000000000000000000000\n        /* \"#utility.yul\":20199:20200   */\n      0x00\n        /* \"#utility.yul\":20192:20280   */\n      mstore\n        /* \"#utility.yul\":20299:20303   */\n      0x11\n        /* \"#utility.yul\":20296:20297   */\n      0x04\n        /* \"#utility.yul\":20289:20304   */\n      mstore\n        /* \"#utility.yul\":20323:20327   */\n      0x24\n        /* \"#utility.yul\":20320:20321   */\n      0x00\n        /* \"#utility.yul\":20313:20328   */\n      revert\n        /* \"#utility.yul\":20340:20520   */\n    tag_357:\n        /* \"#utility.yul\":20388:20465   */\n      0x4e487b7100000000000000000000000000000000000000000000000000000000\n        /* \"#utility.yul\":20385:20386   */\n      0x00\n        /* \"#utility.yul\":20378:20466   */\n      mstore\n        /* \"#utility.yul\":20485:20489   */\n      0x21\n        /* \"#utility.yul\":20482:20483   */\n      0x04\n        /* \"#utility.yul\":20475:20490   */\n      mstore\n        /* \"#utility.yul\":20509:20513   */\n      0x24\n        /* \"#utility.yul\":20506:20507   */\n      0x00\n        /* \"#utility.yul\":20499:20514   */\n      revert\n        /* \"#utility.yul\":20526:20706   */\n    tag_350:\n        /* \"#utility.yul\":20574:20651   */\n      0x4e487b7100000000000000000000000000000000000000000000000000000000\n        /* \"#utility.yul\":20571:20572   */\n      0x00\n        /* \"#utility.yul\":20564:20652   */\n      mstore\n        /* \"#utility.yul\":20671:20675   */\n      0x22\n        /* \"#utility.yul\":20668:20669   */\n      0x04\n        /* \"#utility.yul\":20661:20676   */\n      mstore\n        /* \"#utility.yul\":20695:20699   */\n      0x24\n        /* \"#utility.yul\":20692:20693   */\n      0x00\n        /* \"#utility.yul\":20685:20700   */\n      revert\n        /* \"#utility.yul\":20712:20892   */\n    tag_317:\n        /* \"#utility.yul\":20760:20837   */\n      0x4e487b7100000000000000000000000000000000000000000000000000000000\n        /* \"#utility.yul\":20757:20758   */\n      0x00\n        /* \"#utility.yul\":20750:20838   */\n      mstore\n        /* \"#utility.yul\":20857:20861   */\n      0x41\n        /* \"#utility.yul\":20854:20855   */\n      0x04\n        /* \"#utility.yul\":20847:20862   */\n      mstore\n        /* \"#utility.yul\":20881:20885   */\n      0x24\n        /* \"#utility.yul\":20878:20879   */\n      0x00\n        /* \"#utility.yul\":20871:20886   */\n      revert\n        /* \"#utility.yul\":20898:21000   */\n    tag_238:\n      0x00\n        /* \"#utility.yul\":20990:20992   */\n      0x1f\n        /* \"#utility.yul\":20986:20993   */\n      not\n        /* \"#utility.yul\":20981:20983   */\n      0x1f\n        /* \"#utility.yul\":20974:20979   */\n      dup4\n        /* \"#utility.yul\":20970:20984   */\n      add\n        /* \"#utility.yul\":20966:20994   */\n      and\n        /* \"#utility.yul\":20956:20994   */\n      swap1\n      pop\n        /* \"#utility.yul\":20946:21000   */\n      swap2\n      swap1\n      pop\n      jump\t// out\n        /* \"#utility.yul\":21006:21123   */\n    tag_336:\n        /* \"#utility.yul\":21091:21092   */\n      0x04\n        /* \"#utility.yul\":21084:21089   */\n      dup2\n        /* \"#utility.yul\":21081:21093   */\n      lt\n        /* \"#utility.yul\":21071:21073   */\n      tag_363\n      jumpi\n        /* \"#utility.yul\":21097:21115   */\n      tag_364\n      tag_357\n      jump\t// in\n    tag_364:\n        /* \"#utility.yul\":21071:21073   */\n    tag_363:\n        /* \"#utility.yul\":21061:21123   */\n      pop\n      jump\t// out\n        /* \"#utility.yul\":21129:21240   */\n    tag_154:\n        /* \"#utility.yul\":21214:21215   */\n      0x04\n        /* \"#utility.yul\":21207:21212   */\n      dup2\n        /* \"#utility.yul\":21204:21216   */\n      lt\n        /* \"#utility.yul\":21194:21196   */\n      tag_366\n      jumpi\n        /* \"#utility.yul\":21230:21231   */\n      0x00\n        /* \"#utility.yul\":21227:21228   */\n      dup1\n        /* \"#utility.yul\":21220:21232   */\n      revert\n        /* \"#utility.yul\":21194:21196   */\n    tag_366:\n        /* \"#utility.yul\":21184:21240   */\n      pop\n      jump\t// out\n        /* \"#utility.yul\":21246:21368   */\n    tag_162:\n        /* \"#utility.yul\":21319:21343   */\n      tag_368\n        /* \"#utility.yul\":21337:21342   */\n      dup2\n        /* \"#utility.yul\":21319:21343   */\n      tag_277\n      jump\t// in\n    tag_368:\n        /* \"#utility.yul\":21312:21317   */\n      dup2\n        /* \"#utility.yul\":21309:21344   */\n      eq\n        /* \"#utility.yul\":21299:21301   */\n      tag_369\n      jumpi\n        /* \"#utility.yul\":21358:21359   */\n      0x00\n        /* \"#utility.yul\":21355:21356   */\n      dup1\n        /* \"#utility.yul\":21348:21360   */\n      revert\n        /* \"#utility.yul\":21299:21301   */\n    tag_369:\n        /* \"#utility.yul\":21289:21368   */\n      pop\n      jump\t// out\n\n    auxdata: 0xa2646970667358221220c569a3e9eecc2cae2ce1ec86e689831d17c0ee48567da1d6eb78565a3bb4e9ff64736f6c63430008000033\n}\n",
				"bytecode": {
					"linkReferences": {},
					"object": "60806040523480156200001157600080fd5b50600060028190555062000044604051806080016040528060518152602001620020c560519139620002b260201b60201c565b6200006e60405180608001604052806043815260200162001ff560439139620002b260201b60201c565b620000986040518060600160405280603b815260200162001fba603b9139620002b260201b60201c565b620000c26040518060600160405280604081526020016200203860409139620002b260201b60201c565b620000ec6040518060600160405280603781526020016200221260379139620002b260201b60201c565b620001166040518060600160405280603281526020016200229860329139620002b260201b60201c565b620001406040518060800160405280604981526020016200217960499139620002b260201b60201c565b6200016a6040518060600160405280603f815260200162002361603f9139620002b260201b60201c565b620001946040518060800160405280604d815260200162002078604d9139620002b260201b60201c565b620001be604051806080016040528060508152602001620021c260509139620002b260201b60201c565b620001e86040518060a00160405280606381526020016200211660639139620002b260201b60201c565b620002126040518060800160405280605781526020016200230a60579139620002b260201b60201c565b6200023c6040518060800160405280604f815260200162002249604f9139620002b260201b60201c565b62000266604051806060016040528060408152602001620022ca60409139620002b260201b60201c565b620002ac6040518060400160405280601f81526020017f32333a3330202d20536c6565702e2046696e616c6c792e205a7a7a7a2e2e2e00815250620002b260201b60201c565b620006d3565b604051806080016040528060025481526020018281526020016000600381111562000306577f4e487b7100000000000000000000000000000000000000000000000000000000600052602160045260246000fd5b81526020016000151581525060008060025481526020019081526020016000206000820151816000015560208201518160010190805190602001906200034e9291906200044e565b5060408201518160020160006101000a81548160ff02191690836003811115620003a1577f4e487b7100000000000000000000000000000000000000000000000000000000600052602160045260246000fd5b021790555060608201518160020160016101000a81548160ff021916908315150217905550905050600160025490806001815401808255809150506001900390600052602060002001600090919091909150557f606222d2d9b2ffe82e59c226d772a363312cfce0027119e88e27c4db155e882d600254826040516200042992919062000550565b60405180910390a160026000815480929190620004469062000616565b919050555050565b8280546200045c90620005e0565b90600052602060002090601f016020900481019282620004805760008555620004cc565b82601f106200049b57805160ff1916838001178555620004cc565b82800160010185558215620004cc579182015b82811115620004cb578251825591602001919060010190620004ae565b5b509050620004db9190620004df565b5090565b5b80821115620004fa576000816000905550600101620004e0565b5090565b60006200050b8262000584565b6200051781856200058f565b935062000529818560208601620005aa565b6200053481620006c2565b840191505092915050565b6200054a81620005a0565b82525050565b60006040820190506200056760008301856200053f565b81810360208301526200057b8184620004fe565b90509392505050565b600081519050919050565b600082825260208201905092915050565b6000819050919050565b60005b83811015620005ca578082015181840152602081019050620005ad565b83811115620005da576000848401525b50505050565b60006002820490506001821680620005f957607f821691505b6020821081141562000610576200060f62000693565b5b50919050565b60006200062382620005a0565b91507fffffffffffffffffffffffffffffffffffffffffffffffffffffffffffffffff82141562000659576200065862000664565b5b600182019050919050565b7f4e487b7100000000000000000000000000000000000000000000000000000000600052601160045260246000fd5b7f4e487b7100000000000000000000000000000000000000000000000000000000600052602260045260246000fd5b6000601f19601f8301169050919050565b6118d780620006e36000396000f3fe608060405234801561001057600080fd5b50600436106100935760003560e01c80636e3c6738116100665780636e3c67381461011e57806395ffebf51461013a578063ce2bd5d514610156578063d368ca4d14610174578063dd68afb61461019257610093565b806303c5c31f146100985780631b928946146100c857806325612dc6146100e65780633a1b3d3114610102575b600080fd5b6100b260048036038101906100ad9190610d86565b6101c5565b6040516100bf91906114e1565b60405180910390f35b6100d06101e9565b6040516100dd91906114e1565b60405180910390f35b61010060048036038101906100fb9190610deb565b6101f3565b005b61011c60048036038101906101179190610daf565b610345565b005b61013860048036038101906101339190610d86565b61048c565b005b610154600480360381019061014f9190610d45565b6105ff565b005b61015e61064f565b60405161016b919061139d565b60405180910390f35b61017c610898565b60405161018991906113bf565b60405180910390f35b6101ac60048036038101906101a79190610d86565b6108f0565b6040516101bc9493929190611555565b60405180910390f35b600181815481106101d557600080fd5b906000526020600020016000915090505481565b6000600254905090565b6002548210610237576040517f08c379a000000000000000000000000000000000000000000000000000000000815260040161022e906113e1565b60405180910390fd5b60008083815260200190815260200160002060020160019054906101000a900460ff161561029a576040517f08c379a0000000000000000000000000000000000000000000000000000000008152600401610291906114c1565b60405180910390fd5b60008151116102de576040517f08c379a00000000000000000000000000000000000000000000000000000000081526004016102d590611481565b60405180910390fd5b806000808481526020019081526020016000206001019080519060200190610307929190610bae565b507fc478b8a63a4158def2751d2a6fc5f39261df9570cbe0dc92d17dd079ad14904a8282604051610339929190611525565b60405180910390a15050565b6002548210610389576040517f08c379a000000000000000000000000000000000000000000000000000000000815260040161038090611461565b60405180910390fd5b60008083815260200190815260200160002060020160019054906101000a900460ff16156103ec576040517f08c379a00000000000000000000000000000000000000000000000000000000081526004016103e3906114a1565b60405180910390fd5b8060008084815260200190815260200160002060020160006101000a81548160ff0219169083600381111561044a577f4e487b7100000000000000000000000000000000000000000000000000000000600052602160045260246000fd5b02179055507fa2ac6e13d73f6324f71f35c45e0c9a3e0678b88f564555fb214e1219f073a4d982826040516104809291906114fc565b60405180910390a15050565b60025481106104d0576040517f08c379a00000000000000000000000000000000000000000000000000000000081526004016104c7906113e1565b60405180910390fd5b60008082815260200190815260200160002060020160019054906101000a900460ff1615610533576040517f08c379a000000000000000000000000000000000000000000000000000000000815260040161052a90611401565b60405180910390fd5b600160008083815260200190815260200160002060020160016101000a81548160ff021916908315150217905550600360008083815260200190815260200160002060020160006101000a81548160ff021916908360038111156105c0577f4e487b7100000000000000000000000000000000000000000000000000000000600052602160045260246000fd5b02179055507f1072e4eeea43a52d09f5b6dfc870a079948f706133840ce9239aebc57fabb65f816040516105f491906114e1565b60405180910390a150565b6000815111610643576040517f08c379a000000000000000000000000000000000000000000000000000000000815260040161063a90611421565b60405180910390fd5b61064c81610a1a565b50565b6060600060025467ffffffffffffffff811115610695577f4e487b7100000000000000000000000000000000000000000000000000000000600052604160045260246000fd5b6040519080825280602002602001820160405280156106ce57816020015b6106bb610c34565b8152602001906001900390816106b35790505b50905060005b60025481101561089057600080828152602001908152602001600020604051806080016040529081600082015481526020016001820180546107159061171e565b80601f01602080910402602001604051908101604052809291908181526020018280546107419061171e565b801561078e5780601f106107635761010080835404028352916020019161078e565b820191906000526020600020905b81548152906001019060200180831161077157829003601f168201915b505050505081526020016002820160009054906101000a900460ff1660038111156107e2577f4e487b7100000000000000000000000000000000000000000000000000000000600052602160045260246000fd5b600381111561081a577f4e487b7100000000000000000000000000000000000000000000000000000000600052602160045260246000fd5b81526020016002820160019054906101000a900460ff161515151581525050828281518110610872577f4e487b7100000000000000000000000000000000000000000000000000000000600052603260045260246000fd5b6020026020010181905250808061088890611750565b9150506106d4565b508091505090565b606060018054806020026020016040519081016040528092919081815260200182805480156108e657602002820191906000526020600020905b8154815260200190600101908083116108d2575b5050505050905090565b60006060600080600254851061093b576040517f08c379a000000000000000000000000000000000000000000000000000000000815260040161093290611441565b60405180910390fd5b600080600087815260200190815260200160002090508060000154816001018260020160009054906101000a900460ff168360020160019054906101000a900460ff1682805461098a9061171e565b80601f01602080910402602001604051908101604052809291908181526020018280546109b69061171e565b8015610a035780601f106109d857610100808354040283529160200191610a03565b820191906000526020600020905b8154815290600101906020018083116109e657829003601f168201915b505050505092509450945094509450509193509193565b6040518060800160405280600254815260200182815260200160006003811115610a6d577f4e487b7100000000000000000000000000000000000000000000000000000000600052602160045260246000fd5b8152602001600015158152506000806002548152602001908152602001600020600082015181600001556020820151816001019080519060200190610ab3929190610bae565b5060408201518160020160006101000a81548160ff02191690836003811115610b05577f4e487b7100000000000000000000000000000000000000000000000000000000600052602160045260246000fd5b021790555060608201518160020160016101000a81548160ff021916908315150217905550905050600160025490806001815401808255809150506001900390600052602060002001600090919091909150557f606222d2d9b2ffe82e59c226d772a363312cfce0027119e88e27c4db155e882d60025482604051610b8b929190611525565b60405180910390a160026000815480929190610ba690611750565b919050555050565b828054610bba9061171e565b90600052602060002090601f016020900481019282610bdc5760008555610c23565b82601f10610bf557805160ff1916838001178555610c23565b82800160010185558215610c23579182015b82811115610c22578251825591602001919060010190610c07565b5b509050610c309190610c96565b5090565b6040518060800160405280600081526020016060815260200160006003811115610c87577f4e487b7100000000000000000000000000000000000000000000000000000000600052602160045260246000fd5b81526020016000151581525090565b5b80821115610caf576000816000905550600101610c97565b5090565b6000610cc6610cc1846115d2565b6115a1565b905082815260208101848484011115610cde57600080fd5b610ce98482856116dc565b509392505050565b600081359050610d008161187a565b92915050565b600082601f830112610d1757600080fd5b8135610d27848260208601610cb3565b91505092915050565b600081359050610d3f8161188a565b92915050565b600060208284031215610d5757600080fd5b600082013567ffffffffffffffff811115610d7157600080fd5b610d7d84828501610d06565b91505092915050565b600060208284031215610d9857600080fd5b6000610da684828501610d30565b91505092915050565b60008060408385031215610dc257600080fd5b6000610dd085828601610d30565b9250506020610de185828601610cf1565b9150509250929050565b60008060408385031215610dfe57600080fd5b6000610e0c85828601610d30565b925050602083013567ffffffffffffffff811115610e2957600080fd5b610e3585828601610d06565b9150509250929050565b6000610e4b838361131c565b905092915050565b6000610e5f838361137f565b60208301905092915050565b6000610e7682611622565b610e80818561165d565b935083602082028501610e9285611602565b8060005b85811015610ece5784840389528151610eaf8582610e3f565b9450610eba83611643565b925060208a01995050600181019050610e96565b50829750879550505050505092915050565b6000610eeb8261162d565b610ef5818561166e565b9350610f0083611612565b8060005b83811015610f31578151610f188882610e53565b9750610f2383611650565b925050600181019050610f04565b5085935050505092915050565b610f47816116a1565b82525050565b610f56816116a1565b82525050565b610f65816116ca565b82525050565b610f74816116ca565b82525050565b6000610f8582611638565b610f8f818561167f565b9350610f9f8185602086016116eb565b610fa881611855565b840191505092915050565b6000610fbe82611638565b610fc88185611690565b9350610fd88185602086016116eb565b610fe181611855565b840191505092915050565b6000610ff9603583611690565b91507f546f646f4c6973743a20496e76616c696420746f646f2049442e20446f65732060008301527f74686174207461736b206576656e2065786973743f00000000000000000000006020830152604082019050919050565b600061105f602283611690565b91507f546f646f4c6973743a20546f646f20697320616c72656164792064656c65746560008301527f642e0000000000000000000000000000000000000000000000000000000000006020830152604082019050919050565b60006110c5602283611690565b91507f546f646f4c6973743a20436f6e74656e742063616e6e6f7420626520656d707460008301527f792e0000000000000000000000000000000000000000000000000000000000006020830152604082019050919050565b600061112b603483611690565b91507f546f646f4c6973743a20496e76616c696420746f646f2049442e20536572696f60008301527f75736c792c20646f65732069742065786973743f0000000000000000000000006020830152604082019050919050565b6000611191603683611690565b91507f546f646f4c6973743a20496e76616c696420746f646f2049442e20446f65732060008301527f74686174207461736b206576656e2065786973743f20000000000000000000006020830152604082019050919050565b60006111f7602683611690565b91507f546f646f4c6973743a204e657720636f6e74656e742063616e6e6f742062652060008301527f656d7074792e00000000000000000000000000000000000000000000000000006020830152604082019050919050565b600061125d603183611690565b91507f546f646f4c6973743a2043616e6e6f742075706461746520737461747573206f60008301527f6620612064656c6574656420746f646f2e0000000000000000000000000000006020830152604082019050919050565b60006112c3603283611690565b91507f546f646f4c6973743a2043616e6e6f742075706461746520636f6e74656e742060008301527f6f6620612064656c6574656420746f646f2e00000000000000000000000000006020830152604082019050919050565b6000608083016000830151611334600086018261137f565b506020830151848203602086015261134c8282610f7a565b91505060408301516113616040860182610f5c565b5060608301516113746060860182610f3e565b508091505092915050565b611388816116c0565b82525050565b611397816116c0565b82525050565b600060208201905081810360008301526113b78184610e6b565b905092915050565b600060208201905081810360008301526113d98184610ee0565b905092915050565b600060208201905081810360008301526113fa81610fec565b9050919050565b6000602082019050818103600083015261141a81611052565b9050919050565b6000602082019050818103600083015261143a816110b8565b9050919050565b6000602082019050818103600083015261145a8161111e565b9050919050565b6000602082019050818103600083015261147a81611184565b9050919050565b6000602082019050818103600083015261149a816111ea565b9050919050565b600060208201905081810360008301526114ba81611250565b9050919050565b600060208201905081810360008301526114da816112b6565b9050919050565b60006020820190506114f6600083018461138e565b92915050565b6000604082019050611511600083018561138e565b61151e6020830184610f6b565b9392505050565b600060408201905061153a600083018561138e565b818103602083015261154c8184610fb3565b90509392505050565b600060808201905061156a600083018761138e565b818103602083015261157c8186610fb3565b905061158b6040830185610f6b565b6115986060830184610f4d565b95945050505050565b6000604051905081810181811067ffffffffffffffff821117156115c8576115c7611826565b5b8060405250919050565b600067ffffffffffffffff8211156115ed576115ec611826565b5b601f19601f8301169050602081019050919050565b6000819050602082019050919050565b6000819050602082019050919050565b600081519050919050565b600081519050919050565b600081519050919050565b6000602082019050919050565b6000602082019050919050565b600082825260208201905092915050565b600082825260208201905092915050565b600082825260208201905092915050565b600082825260208201905092915050565b60008115159050919050565b60008190506116bb82611866565b919050565b6000819050919050565b60006116d5826116ad565b9050919050565b82818337600083830152505050565b60005b838110156117095780820151818401526020810190506116ee565b83811115611718576000848401525b50505050565b6000600282049050600182168061173657607f821691505b6020821081141561174a576117496117f7565b5b50919050565b600061175b826116c0565b91507fffffffffffffffffffffffffffffffffffffffffffffffffffffffffffffffff82141561178e5761178d611799565b5b600182019050919050565b7f4e487b7100000000000000000000000000000000000000000000000000000000600052601160045260246000fd5b7f4e487b7100000000000000000000000000000000000000000000000000000000600052602160045260246000fd5b7f4e487b7100000000000000000000000000000000000000000000000000000000600052602260045260246000fd5b7f4e487b7100000000000000000000000000000000000000000000000000000000600052604160045260246000fd5b6000601f19601f8301169050919050565b60048110611877576118766117c8565b5b50565b6004811061188757600080fd5b50565b611893816116c0565b811461189e57600080fd5b5056fea2646970667358221220c569a3e9eecc2cae2ce1ec86e689831d17c0ee48567da1d6eb78565a3bb4e9ff64736f6c6343000800003330383a3030202d20517569636b20627265616b666173742e2043657265616c3f20546f6173743f205768617465766572277320666173746573742e30373a3330202d2053686f7765722074696d652120476f747461206c6f6f6b20667265736820666f722074686520776f726c6420286f72206a757374205a6f6f6d292e30383a3330202d20436f6d6d7574652f47657420726561647920666f72206f6e6c696e6520636c61737365732e205669626520636865636b3a2072656164792e31383a3030202d204c69736b2041667269636120426f6f7463616d7020436c617373212054696d6520746f206c6576656c2075702074686f736520626c6f636b636861696e20736b696c6c732e30373a3135202d204f6b61792c2041435455414c4c5920676574206f7574206f66206265642e204d616b65206974206c6f6f6b2070726573656e7461626c652c206d6f6d206d6967687420636865636b2e32303a3030202d204c6561726e2061204e455720736b696c6c2e20436f756c642062652061206e657720636f64696e6720636f6e636570742c2064726177696e672c206c616e67756167652e2e2e20736f6d657468696e6720646966666572656e742131333a3030202d2044656570206469766520696e746f20636f64696e672e203420686f757273206d696e696d756d206772696e642e204275672068756e74696e6720736561736f6e2131393a3030202d2044696e6e65722074696d652e204d6179626520636f6f6b20736f6d657468696e672c206d61796265206f7264657220696e2e204465636973696f6e732c206465636973696f6e732e30393a3030202d20417474656e64204d6f726e696e6720436c61737365732e20547279206e6f7420746f2066616c6c2061736c6565702e32323a3330202d204f46462053435245454e2074696d652e20507574207468652070686f6e6520415741592e2052656164206120626f6f6b2c206a6f75726e616c2c206a7573742065786973742e2031323a3030202d204c756e636820627265616b212052656675656c2074696d652e2057686174277320636f6f6b696e673f2032333a3030202d2057696e6420646f776e20726f7574696e652e2047657420726561647920666f72206265642e20416e6f746865722064617920646f6e65212032313a3030202d204368696c6c2074696d65202f2053637265656e2074696d652e2042696e676520612073686f772c2067616d652c206f72206a7573742076696265207769746820667269656e6473206f6e6c696e652e31373a3030202d20427265616b2074696d6521205363726f6c6c2054696b546f6b2c20687964726174652c20737472657463682e2052656368617267652e20",
					"opcodes": "PUSH1 0x80 PUSH1 0x40 MSTORE CALLVALUE DUP1 ISZERO PUSH3 0x11 JUMPI PUSH1 0x0 DUP1 REVERT JUMPDEST POP PUSH1 0x0 PUSH1 0x2 DUP2 SWAP1 SSTORE POP PUSH3 0x44 PUSH1 0x40 MLOAD DUP1 PUSH1 0x80 ADD PUSH1 0x40 MSTORE DUP1 PUSH1 0x51 DUP2 MSTORE PUSH1 0x20 ADD PUSH3 0x20C5 PUSH1 0x51 SWAP2 CODECOPY PUSH3 0x2B2 PUSH1 0x20 SHL PUSH1 0x20 SHR JUMP JUMPDEST PUSH3 0x6E PUSH1 0x40 MLOAD DUP1 PUSH1 0x80 ADD PUSH1 0x40 MSTORE DUP1 PUSH1 0x43 DUP2 MSTORE PUSH1 0x20 ADD PUSH3 0x1FF5 PUSH1 0x43 SWAP2 CODECOPY PUSH3 0x2B2 PUSH1 0x20 SHL PUSH1 0x20 SHR JUMP JUMPDEST PUSH3 0x98 PUSH1 0x40 MLOAD DUP1 PUSH1 0x60 ADD PUSH1 0x40 MSTORE DUP1 PUSH1 0x3B DUP2 MSTORE PUSH1 0x20 ADD PUSH3 0x1FBA PUSH1 0x3B SWAP2 CODECOPY PUSH3 0x2B2 PUSH1 0x20 SHL PUSH1 0x20 SHR JUMP JUMPDEST PUSH3 0xC2 PUSH1 0x40 MLOAD DUP1 PUSH1 0x60 ADD PUSH1 0x40 MSTORE DUP1 PUSH1 0x40 DUP2 MSTORE PUSH1 0x20 ADD PUSH3 0x2038 PUSH1 0x40 SWAP2 CODECOPY PUSH3 0x2B2 PUSH1 0x20 SHL PUSH1 0x20 SHR JUMP JUMPDEST PUSH3 0xEC PUSH1 0x40 MLOAD DUP1 PUSH1 0x60 ADD PUSH1 0x40 MSTORE DUP1 PUSH1 0x37 DUP2 MSTORE PUSH1 0x20 ADD PUSH3 0x2212 PUSH1 0x37 SWAP2 CODECOPY PUSH3 0x2B2 PUSH1 0x20 SHL PUSH1 0x20 SHR JUMP JUMPDEST PUSH3 0x116 PUSH1 0x40 MLOAD DUP1 PUSH1 0x60 ADD PUSH1 0x40 MSTORE DUP1 PUSH1 0x32 DUP2 MSTORE PUSH1 0x20 ADD PUSH3 0x2298 PUSH1 0x32 SWAP2 CODECOPY PUSH3 0x2B2 PUSH1 0x20 SHL PUSH1 0x20 SHR JUMP JUMPDEST PUSH3 0x140 PUSH1 0x40 MLOAD DUP1 PUSH1 0x80 ADD PUSH1 0x40 MSTORE DUP1 PUSH1 0x49 DUP2 MSTORE PUSH1 0x20 ADD PUSH3 0x2179 PUSH1 0x49 SWAP2 CODECOPY PUSH3 0x2B2 PUSH1 0x20 SHL PUSH1 0x20 SHR JUMP JUMPDEST PUSH3 0x16A PUSH1 0x40 MLOAD DUP1 PUSH1 0x60 ADD PUSH1 0x40 MSTORE DUP1 PUSH1 0x3F DUP2 MSTORE PUSH1 0x20 ADD PUSH3 0x2361 PUSH1 0x3F SWAP2 CODECOPY PUSH3 0x2B2 PUSH1 0x20 SHL PUSH1 0x20 SHR JUMP JUMPDEST PUSH3 0x194 PUSH1 0x40 MLOAD DUP1 PUSH1 0x80 ADD PUSH1 0x40 MSTORE DUP1 PUSH1 0x4D DUP2 MSTORE PUSH1 0x20 ADD PUSH3 0x2078 PUSH1 0x4D SWAP2 CODECOPY PUSH3 0x2B2 PUSH1 0x20 SHL PUSH1 0x20 SHR JUMP JUMPDEST PUSH3 0x1BE PUSH1 0x40 MLOAD DUP1 PUSH1 0x80 ADD PUSH1 0x40 MSTORE DUP1 PUSH1 0x50 DUP2 MSTORE PUSH1 0x20 ADD PUSH3 0x21C2 PUSH1 0x50 SWAP2 CODECOPY PUSH3 0x2B2 PUSH1 0x20 SHL PUSH1 0x20 SHR JUMP JUMPDEST PUSH3 0x1E8 PUSH1 0x40 MLOAD DUP1 PUSH1 0xA0 ADD PUSH1 0x40 MSTORE DUP1 PUSH1 0x63 DUP2 MSTORE PUSH1 0x20 ADD PUSH3 0x2116 PUSH1 0x63 SWAP2 CODECOPY PUSH3 0x2B2 PUSH1 0x20 SHL PUSH1 0x20 SHR JUMP JUMPDEST PUSH3 0x212 PUSH1 0x40 MLOAD DUP1 PUSH1 0x80 ADD PUSH1 0x40 MSTORE DUP1 PUSH1 0x57 DUP2 MSTORE PUSH1 0x20 ADD PUSH3 0x230A PUSH1 0x57 SWAP2 CODECOPY PUSH3 0x2B2 PUSH1 0x20 SHL PUSH1 0x20 SHR JUMP JUMPDEST PUSH3 0x23C PUSH1 0x40 MLOAD DUP1 PUSH1 0x80 ADD PUSH1 0x40 MSTORE DUP1 PUSH1 0x4F DUP2 MSTORE PUSH1 0x20 ADD PUSH3 0x2249 PUSH1 0x4F SWAP2 CODECOPY PUSH3 0x2B2 PUSH1 0x20 SHL PUSH1 0x20 SHR JUMP JUMPDEST PUSH3 0x266 PUSH1 0x40 MLOAD DUP1 PUSH1 0x60 ADD PUSH1 0x40 MSTORE DUP1 PUSH1 0x40 DUP2 MSTORE PUSH1 0x20 ADD PUSH3 0x22CA PUSH1 0x40 SWAP2 CODECOPY PUSH3 0x2B2 PUSH1 0x20 SHL PUSH1 0x20 SHR JUMP JUMPDEST PUSH3 0x2AC PUSH1 0x40 MLOAD DUP1 PUSH1 0x40 ADD PUSH1 0x40 MSTORE DUP1 PUSH1 0x1F DUP2 MSTORE PUSH1 0x20 ADD PUSH32 0x32333A3330202D20536C6565702E2046696E616C6C792E205A7A7A7A2E2E2E00 DUP2 MSTORE POP PUSH3 0x2B2 PUSH1 0x20 SHL PUSH1 0x20 SHR JUMP JUMPDEST PUSH3 0x6D3 JUMP JUMPDEST PUSH1 0x40 MLOAD DUP1 PUSH1 0x80 ADD PUSH1 0x40 MSTORE DUP1 PUSH1 0x2 SLOAD DUP2 MSTORE PUSH1 0x20 ADD DUP3 DUP2 MSTORE PUSH1 0x20 ADD PUSH1 0x0 PUSH1 0x3 DUP2 GT ISZERO PUSH3 0x306 JUMPI PUSH32 0x4E487B7100000000000000000000000000000000000000000000000000000000 PUSH1 0x0 MSTORE PUSH1 0x21 PUSH1 0x4 MSTORE PUSH1 0x24 PUSH1 0x0 REVERT JUMPDEST DUP2 MSTORE PUSH1 0x20 ADD PUSH1 0x0 ISZERO ISZERO DUP2 MSTORE POP PUSH1 0x0 DUP1 PUSH1 0x2 SLOAD DUP2 MSTORE PUSH1 0x20 ADD SWAP1 DUP2 MSTORE PUSH1 0x20 ADD PUSH1 0x0 KECCAK256 PUSH1 0x0 DUP3 ADD MLOAD DUP2 PUSH1 0x0 ADD SSTORE PUSH1 0x20 DUP3 ADD MLOAD DUP2 PUSH1 0x1 ADD SWAP1 DUP1 MLOAD SWAP1 PUSH1 0x20 ADD SWAP1 PUSH3 0x34E SWAP3 SWAP2 SWAP1 PUSH3 0x44E JUMP JUMPDEST POP PUSH1 0x40 DUP3 ADD MLOAD DUP2 PUSH1 0x2 ADD PUSH1 0x0 PUSH2 0x100 EXP DUP2 SLOAD DUP2 PUSH1 0xFF MUL NOT AND SWAP1 DUP4 PUSH1 0x3 DUP2 GT ISZERO PUSH3 0x3A1 JUMPI PUSH32 0x4E487B7100000000000000000000000000000000000000000000000000000000 PUSH1 0x0 MSTORE PUSH1 0x21 PUSH1 0x4 MSTORE PUSH1 0x24 PUSH1 0x0 REVERT JUMPDEST MUL OR SWAP1 SSTORE POP PUSH1 0x60 DUP3 ADD MLOAD DUP2 PUSH1 0x2 ADD PUSH1 0x1 PUSH2 0x100 EXP DUP2 SLOAD DUP2 PUSH1 0xFF MUL NOT AND SWAP1 DUP4 ISZERO ISZERO MUL OR SWAP1 SSTORE POP SWAP1 POP POP PUSH1 0x1 PUSH1 0x2 SLOAD SWAP1 DUP1 PUSH1 0x1 DUP2 SLOAD ADD DUP1 DUP3 SSTORE DUP1 SWAP2 POP POP PUSH1 0x1 SWAP1 SUB SWAP1 PUSH1 0x0 MSTORE PUSH1 0x20 PUSH1 0x0 KECCAK256 ADD PUSH1 0x0 SWAP1 SWAP2 SWAP1 SWAP2 SWAP1 SWAP2 POP SSTORE PUSH32 0x606222D2D9B2FFE82E59C226D772A363312CFCE0027119E88E27C4DB155E882D PUSH1 0x2 SLOAD DUP3 PUSH1 0x40 MLOAD PUSH3 0x429 SWAP3 SWAP2 SWAP1 PUSH3 0x550 JUMP JUMPDEST PUSH1 0x40 MLOAD DUP1 SWAP2 SUB SWAP1 LOG1 PUSH1 0x2 PUSH1 0x0 DUP2 SLOAD DUP1 SWAP3 SWAP2 SWAP1 PUSH3 0x446 SWAP1 PUSH3 0x616 JUMP JUMPDEST SWAP2 SWAP1 POP SSTORE POP POP JUMP JUMPDEST DUP3 DUP1 SLOAD PUSH3 0x45C SWAP1 PUSH3 0x5E0 JUMP JUMPDEST SWAP1 PUSH1 0x0 MSTORE PUSH1 0x20 PUSH1 0x0 KECCAK256 SWAP1 PUSH1 0x1F ADD PUSH1 0x20 SWAP1 DIV DUP2 ADD SWAP3 DUP3 PUSH3 0x480 JUMPI PUSH1 0x0 DUP6 SSTORE PUSH3 0x4CC JUMP JUMPDEST DUP3 PUSH1 0x1F LT PUSH3 0x49B JUMPI DUP1 MLOAD PUSH1 0xFF NOT AND DUP4 DUP1 ADD OR DUP6 SSTORE PUSH3 0x4CC JUMP JUMPDEST DUP3 DUP1 ADD PUSH1 0x1 ADD DUP6 SSTORE DUP3 ISZERO PUSH3 0x4CC JUMPI SWAP2 DUP3 ADD JUMPDEST DUP3 DUP2 GT ISZERO PUSH3 0x4CB JUMPI DUP3 MLOAD DUP3 SSTORE SWAP2 PUSH1 0x20 ADD SWAP2 SWAP1 PUSH1 0x1 ADD SWAP1 PUSH3 0x4AE JUMP JUMPDEST JUMPDEST POP SWAP1 POP PUSH3 0x4DB SWAP2 SWAP1 PUSH3 0x4DF JUMP JUMPDEST POP SWAP1 JUMP JUMPDEST JUMPDEST DUP1 DUP3 GT ISZERO PUSH3 0x4FA JUMPI PUSH1 0x0 DUP2 PUSH1 0x0 SWAP1 SSTORE POP PUSH1 0x1 ADD PUSH3 0x4E0 JUMP JUMPDEST POP SWAP1 JUMP JUMPDEST PUSH1 0x0 PUSH3 0x50B DUP3 PUSH3 0x584 JUMP JUMPDEST PUSH3 0x517 DUP2 DUP6 PUSH3 0x58F JUMP JUMPDEST SWAP4 POP PUSH3 0x529 DUP2 DUP6 PUSH1 0x20 DUP7 ADD PUSH3 0x5AA JUMP JUMPDEST PUSH3 0x534 DUP2 PUSH3 0x6C2 JUMP JUMPDEST DUP5 ADD SWAP2 POP POP SWAP3 SWAP2 POP POP JUMP JUMPDEST PUSH3 0x54A DUP2 PUSH3 0x5A0 JUMP JUMPDEST DUP3 MSTORE POP POP JUMP JUMPDEST PUSH1 0x0 PUSH1 0x40 DUP3 ADD SWAP1 POP PUSH3 0x567 PUSH1 0x0 DUP4 ADD DUP6 PUSH3 0x53F JUMP JUMPDEST DUP2 DUP2 SUB PUSH1 0x20 DUP4 ADD MSTORE PUSH3 0x57B DUP2 DUP5 PUSH3 0x4FE JUMP JUMPDEST SWAP1 POP SWAP4 SWAP3 POP POP POP JUMP JUMPDEST PUSH1 0x0 DUP2 MLOAD SWAP1 POP SWAP2 SWAP1 POP JUMP JUMPDEST PUSH1 0x0 DUP3 DUP3 MSTORE PUSH1 0x20 DUP3 ADD SWAP1 POP SWAP3 SWAP2 POP POP JUMP JUMPDEST PUSH1 0x0 DUP2 SWAP1 POP SWAP2 SWAP1 POP JUMP JUMPDEST PUSH1 0x0 JUMPDEST DUP4 DUP2 LT ISZERO PUSH3 0x5CA JUMPI DUP1 DUP3 ADD MLOAD DUP2 DUP5 ADD MSTORE PUSH1 0x20 DUP2 ADD SWAP1 POP PUSH3 0x5AD JUMP JUMPDEST DUP4 DUP2 GT ISZERO PUSH3 0x5DA JUMPI PUSH1 0x0 DUP5 DUP5 ADD MSTORE JUMPDEST POP POP POP POP JUMP JUMPDEST PUSH1 0x0 PUSH1 0x2 DUP3 DIV SWAP1 POP PUSH1 0x1 DUP3 AND DUP1 PUSH3 0x5F9 JUMPI PUSH1 0x7F DUP3 AND SWAP2 POP JUMPDEST PUSH1 0x20 DUP3 LT DUP2 EQ ISZERO PUSH3 0x610 JUMPI PUSH3 0x60F PUSH3 0x693 JUMP JUMPDEST JUMPDEST POP SWAP2 SWAP1 POP JUMP JUMPDEST PUSH1 0x0 PUSH3 0x623 DUP3 PUSH3 0x5A0 JUMP JUMPDEST SWAP2 POP PUSH32 0xFFFFFFFFFFFFFFFFFFFFFFFFFFFFFFFFFFFFFFFFFFFFFFFFFFFFFFFFFFFFFFFF DUP3 EQ ISZERO PUSH3 0x659 JUMPI PUSH3 0x658 PUSH3 0x664 JUMP JUMPDEST JUMPDEST PUSH1 0x1 DUP3 ADD SWAP1 POP SWAP2 SWAP1 POP JUMP JUMPDEST PUSH32 0x4E487B7100000000000000000000000000000000000000000000000000000000 PUSH1 0x0 MSTORE PUSH1 0x11 PUSH1 0x4 MSTORE PUSH1 0x24 PUSH1 0x0 REVERT JUMPDEST PUSH32 0x4E487B7100000000000000000000000000000000000000000000000000000000 PUSH1 0x0 MSTORE PUSH1 0x22 PUSH1 0x4 MSTORE PUSH1 0x24 PUSH1 0x0 REVERT JUMPDEST PUSH1 0x0 PUSH1 0x1F NOT PUSH1 0x1F DUP4 ADD AND SWAP1 POP SWAP2 SWAP1 POP JUMP JUMPDEST PUSH2 0x18D7 DUP1 PUSH3 0x6E3 PUSH1 0x0 CODECOPY PUSH1 0x0 RETURN INVALID PUSH1 0x80 PUSH1 0x40 MSTORE CALLVALUE DUP1 ISZERO PUSH2 0x10 JUMPI PUSH1 0x0 DUP1 REVERT JUMPDEST POP PUSH1 0x4 CALLDATASIZE LT PUSH2 0x93 JUMPI PUSH1 0x0 CALLDATALOAD PUSH1 0xE0 SHR DUP1 PUSH4 0x6E3C6738 GT PUSH2 0x66 JUMPI DUP1 PUSH4 0x6E3C6738 EQ PUSH2 0x11E JUMPI DUP1 PUSH4 0x95FFEBF5 EQ PUSH2 0x13A JUMPI DUP1 PUSH4 0xCE2BD5D5 EQ PUSH2 0x156 JUMPI DUP1 PUSH4 0xD368CA4D EQ PUSH2 0x174 JUMPI DUP1 PUSH4 0xDD68AFB6 EQ PUSH2 0x192 JUMPI PUSH2 0x93 JUMP JUMPDEST DUP1 PUSH4 0x3C5C31F EQ PUSH2 0x98 JUMPI DUP1 PUSH4 0x1B928946 EQ PUSH2 0xC8 JUMPI DUP1 PUSH4 0x25612DC6 EQ PUSH2 0xE6 JUMPI DUP1 PUSH4 0x3A1B3D31 EQ PUSH2 0x102 JUMPI JUMPDEST PUSH1 0x0 DUP1 REVERT JUMPDEST PUSH2 0xB2 PUSH1 0x4 DUP1 CALLDATASIZE SUB DUP2 ADD SWAP1 PUSH2 0xAD SWAP2 SWAP1 PUSH2 0xD86 JUMP JUMPDEST PUSH2 0x1C5 JUMP JUMPDEST PUSH1 0x40 MLOAD PUSH2 0xBF SWAP2 SWAP1 PUSH2 0x14E1 JUMP JUMPDEST PUSH1 0x40 MLOAD DUP1 SWAP2 SUB SWAP1 RETURN JUMPDEST PUSH2 0xD0 PUSH2 0x1E9 JUMP JUMPDEST PUSH1 0x40 MLOAD PUSH2 0xDD SWAP2 SWAP1 PUSH2 0x14E1 JUMP JUMPDEST PUSH1 0x40 MLOAD DUP1 SWAP2 SUB SWAP1 RETURN JUMPDEST PUSH2 0x100 PUSH1 0x4 DUP1 CALLDATASIZE SUB DUP2 ADD SWAP1 PUSH2 0xFB SWAP2 SWAP1 PUSH2 0xDEB JUMP JUMPDEST PUSH2 0x1F3 JUMP JUMPDEST STOP JUMPDEST PUSH2 0x11C PUSH1 0x4 DUP1 CALLDATASIZE SUB DUP2 ADD SWAP1 PUSH2 0x117 SWAP2 SWAP1 PUSH2 0xDAF JUMP JUMPDEST PUSH2 0x345 JUMP JUMPDEST STOP JUMPDEST PUSH2 0x138 PUSH1 0x4 DUP1 CALLDATASIZE SUB DUP2 ADD SWAP1 PUSH2 0x133 SWAP2 SWAP1 PUSH2 0xD86 JUMP JUMPDEST PUSH2 0x48C JUMP JUMPDEST STOP JUMPDEST PUSH2 0x154 PUSH1 0x4 DUP1 CALLDATASIZE SUB DUP2 ADD SWAP1 PUSH2 0x14F SWAP2 SWAP1 PUSH2 0xD45 JUMP JUMPDEST PUSH2 0x5FF JUMP JUMPDEST STOP JUMPDEST PUSH2 0x15E PUSH2 0x64F JUMP JUMPDEST PUSH1 0x40 MLOAD PUSH2 0x16B SWAP2 SWAP1 PUSH2 0x139D JUMP JUMPDEST PUSH1 0x40 MLOAD DUP1 SWAP2 SUB SWAP1 RETURN JUMPDEST PUSH2 0x17C PUSH2 0x898 JUMP JUMPDEST PUSH1 0x40 MLOAD PUSH2 0x189 SWAP2 SWAP1 PUSH2 0x13BF JUMP JUMPDEST PUSH1 0x40 MLOAD DUP1 SWAP2 SUB SWAP1 RETURN JUMPDEST PUSH2 0x1AC PUSH1 0x4 DUP1 CALLDATASIZE SUB DUP2 ADD SWAP1 PUSH2 0x1A7 SWAP2 SWAP1 PUSH2 0xD86 JUMP JUMPDEST PUSH2 0x8F0 JUMP JUMPDEST PUSH1 0x40 MLOAD PUSH2 0x1BC SWAP5 SWAP4 SWAP3 SWAP2 SWAP1 PUSH2 0x1555 JUMP JUMPDEST PUSH1 0x40 MLOAD DUP1 SWAP2 SUB SWAP1 RETURN JUMPDEST PUSH1 0x1 DUP2 DUP2 SLOAD DUP2 LT PUSH2 0x1D5 JUMPI PUSH1 0x0 DUP1 REVERT JUMPDEST SWAP1 PUSH1 0x0 MSTORE PUSH1 0x20 PUSH1 0x0 KECCAK256 ADD PUSH1 0x0 SWAP2 POP SWAP1 POP SLOAD DUP2 JUMP JUMPDEST PUSH1 0x0 PUSH1 0x2 SLOAD SWAP1 POP SWAP1 JUMP JUMPDEST PUSH1 0x2 SLOAD DUP3 LT PUSH2 0x237 JUMPI PUSH1 0x40 MLOAD PUSH32 0x8C379A000000000000000000000000000000000000000000000000000000000 DUP2 MSTORE PUSH1 0x4 ADD PUSH2 0x22E SWAP1 PUSH2 0x13E1 JUMP JUMPDEST PUSH1 0x40 MLOAD DUP1 SWAP2 SUB SWAP1 REVERT JUMPDEST PUSH1 0x0 DUP1 DUP4 DUP2 MSTORE PUSH1 0x20 ADD SWAP1 DUP2 MSTORE PUSH1 0x20 ADD PUSH1 0x0 KECCAK256 PUSH1 0x2 ADD PUSH1 0x1 SWAP1 SLOAD SWAP1 PUSH2 0x100 EXP SWAP1 DIV PUSH1 0xFF AND ISZERO PUSH2 0x29A JUMPI PUSH1 0x40 MLOAD PUSH32 0x8C379A000000000000000000000000000000000000000000000000000000000 DUP2 MSTORE PUSH1 0x4 ADD PUSH2 0x291 SWAP1 PUSH2 0x14C1 JUMP JUMPDEST PUSH1 0x40 MLOAD DUP1 SWAP2 SUB SWAP1 REVERT JUMPDEST PUSH1 0x0 DUP2 MLOAD GT PUSH2 0x2DE JUMPI PUSH1 0x40 MLOAD PUSH32 0x8C379A000000000000000000000000000000000000000000000000000000000 DUP2 MSTORE PUSH1 0x4 ADD PUSH2 0x2D5 SWAP1 PUSH2 0x1481 JUMP JUMPDEST PUSH1 0x40 MLOAD DUP1 SWAP2 SUB SWAP1 REVERT JUMPDEST DUP1 PUSH1 0x0 DUP1 DUP5 DUP2 MSTORE PUSH1 0x20 ADD SWAP1 DUP2 MSTORE PUSH1 0x20 ADD PUSH1 0x0 KECCAK256 PUSH1 0x1 ADD SWAP1 DUP1 MLOAD SWAP1 PUSH1 0x20 ADD SWAP1 PUSH2 0x307 SWAP3 SWAP2 SWAP1 PUSH2 0xBAE JUMP JUMPDEST POP PUSH32 0xC478B8A63A4158DEF2751D2A6FC5F39261DF9570CBE0DC92D17DD079AD14904A DUP3 DUP3 PUSH1 0x40 MLOAD PUSH2 0x339 SWAP3 SWAP2 SWAP1 PUSH2 0x1525 JUMP JUMPDEST PUSH1 0x40 MLOAD DUP1 SWAP2 SUB SWAP1 LOG1 POP POP JUMP JUMPDEST PUSH1 0x2 SLOAD DUP3 LT PUSH2 0x389 JUMPI PUSH1 0x40 MLOAD PUSH32 0x8C379A000000000000000000000000000000000000000000000000000000000 DUP2 MSTORE PUSH1 0x4 ADD PUSH2 0x380 SWAP1 PUSH2 0x1461 JUMP JUMPDEST PUSH1 0x40 MLOAD DUP1 SWAP2 SUB SWAP1 REVERT JUMPDEST PUSH1 0x0 DUP1 DUP4 DUP2 MSTORE PUSH1 0x20 ADD SWAP1 DUP2 MSTORE PUSH1 0x20 ADD PUSH1 0x0 KECCAK256 PUSH1 0x2 ADD PUSH1 0x1 SWAP1 SLOAD SWAP1 PUSH2 0x100 EXP SWAP1 DIV PUSH1 0xFF AND ISZERO PUSH2 0x3EC JUMPI PUSH1 0x40 MLOAD PUSH32 0x8C379A000000000000000000000000000000000000000000000000000000000 DUP2 MSTORE PUSH1 0x4 ADD PUSH2 0x3E3 SWAP1 PUSH2 0x14A1 JUMP JUMPDEST PUSH1 0x40 MLOAD DUP1 SWAP2 SUB SWAP1 REVERT JUMPDEST DUP1 PUSH1 0x0 DUP1 DUP5 DUP2 MSTORE PUSH1 0x20 ADD SWAP1 DUP2 MSTORE PUSH1 0x20 ADD PUSH1 0x0 KECCAK256 PUSH1 0x2 ADD PUSH1 0x0 PUSH2 0x100 EXP DUP2 SLOAD DUP2 PUSH1 0xFF MUL NOT AND SWAP1 DUP4 PUSH1 0x3 DUP2 GT ISZERO PUSH2 0x44A JUMPI PUSH32 0x4E487B7100000000000000000000000000000000000000000000000000000000 PUSH1 0x0 MSTORE PUSH1 0x21 PUSH1 0x4 MSTORE PUSH1 0x24 PUSH1 0x0 REVERT JUMPDEST MUL OR SWAP1 SSTORE POP PUSH32 0xA2AC6E13D73F6324F71F35C45E0C9A3E0678B88F564555FB214E1219F073A4D9 DUP3 DUP3 PUSH1 0x40 MLOAD PUSH2 0x480 SWAP3 SWAP2 SWAP1 PUSH2 0x14FC JUMP JUMPDEST PUSH1 0x40 MLOAD DUP1 SWAP2 SUB SWAP1 LOG1 POP POP JUMP JUMPDEST PUSH1 0x2 SLOAD DUP2 LT PUSH2 0x4D0 JUMPI PUSH1 0x40 MLOAD PUSH32 0x8C379A000000000000000000000000000000000000000000000000000000000 DUP2 MSTORE PUSH1 0x4 ADD PUSH2 0x4C7 SWAP1 PUSH2 0x13E1 JUMP JUMPDEST PUSH1 0x40 MLOAD DUP1 SWAP2 SUB SWAP1 REVERT JUMPDEST PUSH1 0x0 DUP1 DUP3 DUP2 MSTORE PUSH1 0x20 ADD SWAP1 DUP2 MSTORE PUSH1 0x20 ADD PUSH1 0x0 KECCAK256 PUSH1 0x2 ADD PUSH1 0x1 SWAP1 SLOAD SWAP1 PUSH2 0x100 EXP SWAP1 DIV PUSH1 0xFF AND ISZERO PUSH2 0x533 JUMPI PUSH1 0x40 MLOAD PUSH32 0x8C379A000000000000000000000000000000000000000000000000000000000 DUP2 MSTORE PUSH1 0x4 ADD PUSH2 0x52A SWAP1 PUSH2 0x1401 JUMP JUMPDEST PUSH1 0x40 MLOAD DUP1 SWAP2 SUB SWAP1 REVERT JUMPDEST PUSH1 0x1 PUSH1 0x0 DUP1 DUP4 DUP2 MSTORE PUSH1 0x20 ADD SWAP1 DUP2 MSTORE PUSH1 0x20 ADD PUSH1 0x0 KECCAK256 PUSH1 0x2 ADD PUSH1 0x1 PUSH2 0x100 EXP DUP2 SLOAD DUP2 PUSH1 0xFF MUL NOT AND SWAP1 DUP4 ISZERO ISZERO MUL OR SWAP1 SSTORE POP PUSH1 0x3 PUSH1 0x0 DUP1 DUP4 DUP2 MSTORE PUSH1 0x20 ADD SWAP1 DUP2 MSTORE PUSH1 0x20 ADD PUSH1 0x0 KECCAK256 PUSH1 0x2 ADD PUSH1 0x0 PUSH2 0x100 EXP DUP2 SLOAD DUP2 PUSH1 0xFF MUL NOT AND SWAP1 DUP4 PUSH1 0x3 DUP2 GT ISZERO PUSH2 0x5C0 JUMPI PUSH32 0x4E487B7100000000000000000000000000000000000000000000000000000000 PUSH1 0x0 MSTORE PUSH1 0x21 PUSH1 0x4 MSTORE PUSH1 0x24 PUSH1 0x0 REVERT JUMPDEST MUL OR SWAP1 SSTORE POP PUSH32 0x1072E4EEEA43A52D09F5B6DFC870A079948F706133840CE9239AEBC57FABB65F DUP2 PUSH1 0x40 MLOAD PUSH2 0x5F4 SWAP2 SWAP1 PUSH2 0x14E1 JUMP JUMPDEST PUSH1 0x40 MLOAD DUP1 SWAP2 SUB SWAP1 LOG1 POP JUMP JUMPDEST PUSH1 0x0 DUP2 MLOAD GT PUSH2 0x643 JUMPI PUSH1 0x40 MLOAD PUSH32 0x8C379A000000000000000000000000000000000000000000000000000000000 DUP2 MSTORE PUSH1 0x4 ADD PUSH2 0x63A SWAP1 PUSH2 0x1421 JUMP JUMPDEST PUSH1 0x40 MLOAD DUP1 SWAP2 SUB SWAP1 REVERT JUMPDEST PUSH2 0x64C DUP2 PUSH2 0xA1A JUMP JUMPDEST POP JUMP JUMPDEST PUSH1 0x60 PUSH1 0x0 PUSH1 0x2 SLOAD PUSH8 0xFFFFFFFFFFFFFFFF DUP2 GT ISZERO PUSH2 0x695 JUMPI PUSH32 0x4E487B7100000000000000000000000000000000000000000000000000000000 PUSH1 0x0 MSTORE PUSH1 0x41 PUSH1 0x4 MSTORE PUSH1 0x24 PUSH1 0x0 REVERT JUMPDEST PUSH1 0x40 MLOAD SWAP1 DUP1 DUP3 MSTORE DUP1 PUSH1 0x20 MUL PUSH1 0x20 ADD DUP3 ADD PUSH1 0x40 MSTORE DUP1 ISZERO PUSH2 0x6CE JUMPI DUP2 PUSH1 0x20 ADD JUMPDEST PUSH2 0x6BB PUSH2 0xC34 JUMP JUMPDEST DUP2 MSTORE PUSH1 0x20 ADD SWAP1 PUSH1 0x1 SWAP1 SUB SWAP1 DUP2 PUSH2 0x6B3 JUMPI SWAP1 POP JUMPDEST POP SWAP1 POP PUSH1 0x0 JUMPDEST PUSH1 0x2 SLOAD DUP2 LT ISZERO PUSH2 0x890 JUMPI PUSH1 0x0 DUP1 DUP3 DUP2 MSTORE PUSH1 0x20 ADD SWAP1 DUP2 MSTORE PUSH1 0x20 ADD PUSH1 0x0 KECCAK256 PUSH1 0x40 MLOAD DUP1 PUSH1 0x80 ADD PUSH1 0x40 MSTORE SWAP1 DUP2 PUSH1 0x0 DUP3 ADD SLOAD DUP2 MSTORE PUSH1 0x20 ADD PUSH1 0x1 DUP3 ADD DUP1 SLOAD PUSH2 0x715 SWAP1 PUSH2 0x171E JUMP JUMPDEST DUP1 PUSH1 0x1F ADD PUSH1 0x20 DUP1 SWAP2 DIV MUL PUSH1 0x20 ADD PUSH1 0x40 MLOAD SWAP1 DUP2 ADD PUSH1 0x40 MSTORE DUP1 SWAP3 SWAP2 SWAP1 DUP2 DUP2 MSTORE PUSH1 0x20 ADD DUP3 DUP1 SLOAD PUSH2 0x741 SWAP1 PUSH2 0x171E JUMP JUMPDEST DUP1 ISZERO PUSH2 0x78E JUMPI DUP1 PUSH1 0x1F LT PUSH2 0x763 JUMPI PUSH2 0x100 DUP1 DUP4 SLOAD DIV MUL DUP4 MSTORE SWAP2 PUSH1 0x20 ADD SWAP2 PUSH2 0x78E JUMP JUMPDEST DUP3 ADD SWAP2 SWAP1 PUSH1 0x0 MSTORE PUSH1 0x20 PUSH1 0x0 KECCAK256 SWAP1 JUMPDEST DUP2 SLOAD DUP2 MSTORE SWAP1 PUSH1 0x1 ADD SWAP1 PUSH1 0x20 ADD DUP1 DUP4 GT PUSH2 0x771 JUMPI DUP3 SWAP1 SUB PUSH1 0x1F AND DUP3 ADD SWAP2 JUMPDEST POP POP POP POP POP DUP2 MSTORE PUSH1 0x20 ADD PUSH1 0x2 DUP3 ADD PUSH1 0x0 SWAP1 SLOAD SWAP1 PUSH2 0x100 EXP SWAP1 DIV PUSH1 0xFF AND PUSH1 0x3 DUP2 GT ISZERO PUSH2 0x7E2 JUMPI PUSH32 0x4E487B7100000000000000000000000000000000000000000000000000000000 PUSH1 0x0 MSTORE PUSH1 0x21 PUSH1 0x4 MSTORE PUSH1 0x24 PUSH1 0x0 REVERT JUMPDEST PUSH1 0x3 DUP2 GT ISZERO PUSH2 0x81A JUMPI PUSH32 0x4E487B7100000000000000000000000000000000000000000000000000000000 PUSH1 0x0 MSTORE PUSH1 0x21 PUSH1 0x4 MSTORE PUSH1 0x24 PUSH1 0x0 REVERT JUMPDEST DUP2 MSTORE PUSH1 0x20 ADD PUSH1 0x2 DUP3 ADD PUSH1 0x1 SWAP1 SLOAD SWAP1 PUSH2 0x100 EXP SWAP1 DIV PUSH1 0xFF AND ISZERO ISZERO ISZERO ISZERO DUP2 MSTORE POP POP DUP3 DUP3 DUP2 MLOAD DUP2 LT PUSH2 0x872 JUMPI PUSH32 0x4E487B7100000000000000000000000000000000000000000000000000000000 PUSH1 0x0 MSTORE PUSH1 0x32 PUSH1 0x4 MSTORE PUSH1 0x24 PUSH1 0x0 REVERT JUMPDEST PUSH1 0x20 MUL PUSH1 0x20 ADD ADD DUP2 SWAP1 MSTORE POP DUP1 DUP1 PUSH2 0x888 SWAP1 PUSH2 0x1750 JUMP JUMPDEST SWAP2 POP POP PUSH2 0x6D4 JUMP JUMPDEST POP DUP1 SWAP2 POP POP SWAP1 JUMP JUMPDEST PUSH1 0x60 PUSH1 0x1 DUP1 SLOAD DUP1 PUSH1 0x20 MUL PUSH1 0x20 ADD PUSH1 0x40 MLOAD SWAP1 DUP2 ADD PUSH1 0x40 MSTORE DUP1 SWAP3 SWAP2 SWAP1 DUP2 DUP2 MSTORE PUSH1 0x20 ADD DUP3 DUP1 SLOAD DUP1 ISZERO PUSH2 0x8E6 JUMPI PUSH1 0x20 MUL DUP3 ADD SWAP2 SWAP1 PUSH1 0x0 MSTORE PUSH1 0x20 PUSH1 0x0 KECCAK256 SWAP1 JUMPDEST DUP2 SLOAD DUP2 MSTORE PUSH1 0x20 ADD SWAP1 PUSH1 0x1 ADD SWAP1 DUP1 DUP4 GT PUSH2 0x8D2 JUMPI JUMPDEST POP POP POP POP POP SWAP1 POP SWAP1 JUMP JUMPDEST PUSH1 0x0 PUSH1 0x60 PUSH1 0x0 DUP1 PUSH1 0x2 SLOAD DUP6 LT PUSH2 0x93B JUMPI PUSH1 0x40 MLOAD PUSH32 0x8C379A000000000000000000000000000000000000000000000000000000000 DUP2 MSTORE PUSH1 0x4 ADD PUSH2 0x932 SWAP1 PUSH2 0x1441 JUMP JUMPDEST PUSH1 0x40 MLOAD DUP1 SWAP2 SUB SWAP1 REVERT JUMPDEST PUSH1 0x0 DUP1 PUSH1 0x0 DUP8 DUP2 MSTORE PUSH1 0x20 ADD SWAP1 DUP2 MSTORE PUSH1 0x20 ADD PUSH1 0x0 KECCAK256 SWAP1 POP DUP1 PUSH1 0x0 ADD SLOAD DUP2 PUSH1 0x1 ADD DUP3 PUSH1 0x2 ADD PUSH1 0x0 SWAP1 SLOAD SWAP1 PUSH2 0x100 EXP SWAP1 DIV PUSH1 0xFF AND DUP4 PUSH1 0x2 ADD PUSH1 0x1 SWAP1 SLOAD SWAP1 PUSH2 0x100 EXP SWAP1 DIV PUSH1 0xFF AND DUP3 DUP1 SLOAD PUSH2 0x98A SWAP1 PUSH2 0x171E JUMP JUMPDEST DUP1 PUSH1 0x1F ADD PUSH1 0x20 DUP1 SWAP2 DIV MUL PUSH1 0x20 ADD PUSH1 0x40 MLOAD SWAP1 DUP2 ADD PUSH1 0x40 MSTORE DUP1 SWAP3 SWAP2 SWAP1 DUP2 DUP2 MSTORE PUSH1 0x20 ADD DUP3 DUP1 SLOAD PUSH2 0x9B6 SWAP1 PUSH2 0x171E JUMP JUMPDEST DUP1 ISZERO PUSH2 0xA03 JUMPI DUP1 PUSH1 0x1F LT PUSH2 0x9D8 JUMPI PUSH2 0x100 DUP1 DUP4 SLOAD DIV MUL DUP4 MSTORE SWAP2 PUSH1 0x20 ADD SWAP2 PUSH2 0xA03 JUMP JUMPDEST DUP3 ADD SWAP2 SWAP1 PUSH1 0x0 MSTORE PUSH1 0x20 PUSH1 0x0 KECCAK256 SWAP1 JUMPDEST DUP2 SLOAD DUP2 MSTORE SWAP1 PUSH1 0x1 ADD SWAP1 PUSH1 0x20 ADD DUP1 DUP4 GT PUSH2 0x9E6 JUMPI DUP3 SWAP1 SUB PUSH1 0x1F AND DUP3 ADD SWAP2 JUMPDEST POP POP POP POP POP SWAP3 POP SWAP5 POP SWAP5 POP SWAP5 POP SWAP5 POP POP SWAP2 SWAP4 POP SWAP2 SWAP4 JUMP JUMPDEST PUSH1 0x40 MLOAD DUP1 PUSH1 0x80 ADD PUSH1 0x40 MSTORE DUP1 PUSH1 0x2 SLOAD DUP2 MSTORE PUSH1 0x20 ADD DUP3 DUP2 MSTORE PUSH1 0x20 ADD PUSH1 0x0 PUSH1 0x3 DUP2 GT ISZERO PUSH2 0xA6D JUMPI PUSH32 0x4E487B7100000000000000000000000000000000000000000000000000000000 PUSH1 0x0 MSTORE PUSH1 0x21 PUSH1 0x4 MSTORE PUSH1 0x24 PUSH1 0x0 REVERT JUMPDEST DUP2 MSTORE PUSH1 0x20 ADD PUSH1 0x0 ISZERO ISZERO DUP2 MSTORE POP PUSH1 0x0 DUP1 PUSH1 0x2 SLOAD DUP2 MSTORE PUSH1 0x20 ADD SWAP1 DUP2 MSTORE PUSH1 0x20 ADD PUSH1 0x0 KECCAK256 PUSH1 0x0 DUP3 ADD MLOAD DUP2 PUSH1 0x0 ADD SSTORE PUSH1 0x20 DUP3 ADD MLOAD DUP2 PUSH1 0x1 ADD SWAP1 DUP1 MLOAD SWAP1 PUSH1 0x20 ADD SWAP1 PUSH2 0xAB3 SWAP3 SWAP2 SWAP1 PUSH2 0xBAE JUMP JUMPDEST POP PUSH1 0x40 DUP3 ADD MLOAD DUP2 PUSH1 0x2 ADD PUSH1 0x0 PUSH2 0x100 EXP DUP2 SLOAD DUP2 PUSH1 0xFF MUL NOT AND SWAP1 DUP4 PUSH1 0x3 DUP2 GT ISZERO PUSH2 0xB05 JUMPI PUSH32 0x4E487B7100000000000000000000000000000000000000000000000000000000 PUSH1 0x0 MSTORE PUSH1 0x21 PUSH1 0x4 MSTORE PUSH1 0x24 PUSH1 0x0 REVERT JUMPDEST MUL OR SWAP1 SSTORE POP PUSH1 0x60 DUP3 ADD MLOAD DUP2 PUSH1 0x2 ADD PUSH1 0x1 PUSH2 0x100 EXP DUP2 SLOAD DUP2 PUSH1 0xFF MUL NOT AND SWAP1 DUP4 ISZERO ISZERO MUL OR SWAP1 SSTORE POP SWAP1 POP POP PUSH1 0x1 PUSH1 0x2 SLOAD SWAP1 DUP1 PUSH1 0x1 DUP2 SLOAD ADD DUP1 DUP3 SSTORE DUP1 SWAP2 POP POP PUSH1 0x1 SWAP1 SUB SWAP1 PUSH1 0x0 MSTORE PUSH1 0x20 PUSH1 0x0 KECCAK256 ADD PUSH1 0x0 SWAP1 SWAP2 SWAP1 SWAP2 SWAP1 SWAP2 POP SSTORE PUSH32 0x606222D2D9B2FFE82E59C226D772A363312CFCE0027119E88E27C4DB155E882D PUSH1 0x2 SLOAD DUP3 PUSH1 0x40 MLOAD PUSH2 0xB8B SWAP3 SWAP2 SWAP1 PUSH2 0x1525 JUMP JUMPDEST PUSH1 0x40 MLOAD DUP1 SWAP2 SUB SWAP1 LOG1 PUSH1 0x2 PUSH1 0x0 DUP2 SLOAD DUP1 SWAP3 SWAP2 SWAP1 PUSH2 0xBA6 SWAP1 PUSH2 0x1750 JUMP JUMPDEST SWAP2 SWAP1 POP SSTORE POP POP JUMP JUMPDEST DUP3 DUP1 SLOAD PUSH2 0xBBA SWAP1 PUSH2 0x171E JUMP JUMPDEST SWAP1 PUSH1 0x0 MSTORE PUSH1 0x20 PUSH1 0x0 KECCAK256 SWAP1 PUSH1 0x1F ADD PUSH1 0x20 SWAP1 DIV DUP2 ADD SWAP3 DUP3 PUSH2 0xBDC JUMPI PUSH1 0x0 DUP6 SSTORE PUSH2 0xC23 JUMP JUMPDEST DUP3 PUSH1 0x1F LT PUSH2 0xBF5 JUMPI DUP1 MLOAD PUSH1 0xFF NOT AND DUP4 DUP1 ADD OR DUP6 SSTORE PUSH2 0xC23 JUMP JUMPDEST DUP3 DUP1 ADD PUSH1 0x1 ADD DUP6 SSTORE DUP3 ISZERO PUSH2 0xC23 JUMPI SWAP2 DUP3 ADD JUMPDEST DUP3 DUP2 GT ISZERO PUSH2 0xC22 JUMPI DUP3 MLOAD DUP3 SSTORE SWAP2 PUSH1 0x20 ADD SWAP2 SWAP1 PUSH1 0x1 ADD SWAP1 PUSH2 0xC07 JUMP JUMPDEST JUMPDEST POP SWAP1 POP PUSH2 0xC30 SWAP2 SWAP1 PUSH2 0xC96 JUMP JUMPDEST POP SWAP1 JUMP JUMPDEST PUSH1 0x40 MLOAD DUP1 PUSH1 0x80 ADD PUSH1 0x40 MSTORE DUP1 PUSH1 0x0 DUP2 MSTORE PUSH1 0x20 ADD PUSH1 0x60 DUP2 MSTORE PUSH1 0x20 ADD PUSH1 0x0 PUSH1 0x3 DUP2 GT ISZERO PUSH2 0xC87 JUMPI PUSH32 0x4E487B7100000000000000000000000000000000000000000000000000000000 PUSH1 0x0 MSTORE PUSH1 0x21 PUSH1 0x4 MSTORE PUSH1 0x24 PUSH1 0x0 REVERT JUMPDEST DUP2 MSTORE PUSH1 0x20 ADD PUSH1 0x0 ISZERO ISZERO DUP2 MSTORE POP SWAP1 JUMP JUMPDEST JUMPDEST DUP1 DUP3 GT ISZERO PUSH2 0xCAF JUMPI PUSH1 0x0 DUP2 PUSH1 0x0 SWAP1 SSTORE POP PUSH1 0x1 ADD PUSH2 0xC97 JUMP JUMPDEST POP SWAP1 JUMP JUMPDEST PUSH1 0x0 PUSH2 0xCC6 PUSH2 0xCC1 DUP5 PUSH2 0x15D2 JUMP JUMPDEST PUSH2 0x15A1 JUMP JUMPDEST SWAP1 POP DUP3 DUP2 MSTORE PUSH1 0x20 DUP2 ADD DUP5 DUP5 DUP5 ADD GT ISZERO PUSH2 0xCDE JUMPI PUSH1 0x0 DUP1 REVERT JUMPDEST PUSH2 0xCE9 DUP5 DUP3 DUP6 PUSH2 0x16DC JUMP JUMPDEST POP SWAP4 SWAP3 POP POP POP JUMP JUMPDEST PUSH1 0x0 DUP2 CALLDATALOAD SWAP1 POP PUSH2 0xD00 DUP2 PUSH2 0x187A JUMP JUMPDEST SWAP3 SWAP2 POP POP JUMP JUMPDEST PUSH1 0x0 DUP3 PUSH1 0x1F DUP4 ADD SLT PUSH2 0xD17 JUMPI PUSH1 0x0 DUP1 REVERT JUMPDEST DUP2 CALLDATALOAD PUSH2 0xD27 DUP5 DUP3 PUSH1 0x20 DUP7 ADD PUSH2 0xCB3 JUMP JUMPDEST SWAP2 POP POP SWAP3 SWAP2 POP POP JUMP JUMPDEST PUSH1 0x0 DUP2 CALLDATALOAD SWAP1 POP PUSH2 0xD3F DUP2 PUSH2 0x188A JUMP JUMPDEST SWAP3 SWAP2 POP POP JUMP JUMPDEST PUSH1 0x0 PUSH1 0x20 DUP3 DUP5 SUB SLT ISZERO PUSH2 0xD57 JUMPI PUSH1 0x0 DUP1 REVERT JUMPDEST PUSH1 0x0 DUP3 ADD CALLDATALOAD PUSH8 0xFFFFFFFFFFFFFFFF DUP2 GT ISZERO PUSH2 0xD71 JUMPI PUSH1 0x0 DUP1 REVERT JUMPDEST PUSH2 0xD7D DUP5 DUP3 DUP6 ADD PUSH2 0xD06 JUMP JUMPDEST SWAP2 POP POP SWAP3 SWAP2 POP POP JUMP JUMPDEST PUSH1 0x0 PUSH1 0x20 DUP3 DUP5 SUB SLT ISZERO PUSH2 0xD98 JUMPI PUSH1 0x0 DUP1 REVERT JUMPDEST PUSH1 0x0 PUSH2 0xDA6 DUP5 DUP3 DUP6 ADD PUSH2 0xD30 JUMP JUMPDEST SWAP2 POP POP SWAP3 SWAP2 POP POP JUMP JUMPDEST PUSH1 0x0 DUP1 PUSH1 0x40 DUP4 DUP6 SUB SLT ISZERO PUSH2 0xDC2 JUMPI PUSH1 0x0 DUP1 REVERT JUMPDEST PUSH1 0x0 PUSH2 0xDD0 DUP6 DUP3 DUP7 ADD PUSH2 0xD30 JUMP JUMPDEST SWAP3 POP POP PUSH1 0x20 PUSH2 0xDE1 DUP6 DUP3 DUP7 ADD PUSH2 0xCF1 JUMP JUMPDEST SWAP2 POP POP SWAP3 POP SWAP3 SWAP1 POP JUMP JUMPDEST PUSH1 0x0 DUP1 PUSH1 0x40 DUP4 DUP6 SUB SLT ISZERO PUSH2 0xDFE JUMPI PUSH1 0x0 DUP1 REVERT JUMPDEST PUSH1 0x0 PUSH2 0xE0C DUP6 DUP3 DUP7 ADD PUSH2 0xD30 JUMP JUMPDEST SWAP3 POP POP PUSH1 0x20 DUP4 ADD CALLDATALOAD PUSH8 0xFFFFFFFFFFFFFFFF DUP2 GT ISZERO PUSH2 0xE29 JUMPI PUSH1 0x0 DUP1 REVERT JUMPDEST PUSH2 0xE35 DUP6 DUP3 DUP7 ADD PUSH2 0xD06 JUMP JUMPDEST SWAP2 POP POP SWAP3 POP SWAP3 SWAP1 POP JUMP JUMPDEST PUSH1 0x0 PUSH2 0xE4B DUP4 DUP4 PUSH2 0x131C JUMP JUMPDEST SWAP1 POP SWAP3 SWAP2 POP POP JUMP JUMPDEST PUSH1 0x0 PUSH2 0xE5F DUP4 DUP4 PUSH2 0x137F JUMP JUMPDEST PUSH1 0x20 DUP4 ADD SWAP1 POP SWAP3 SWAP2 POP POP JUMP JUMPDEST PUSH1 0x0 PUSH2 0xE76 DUP3 PUSH2 0x1622 JUMP JUMPDEST PUSH2 0xE80 DUP2 DUP6 PUSH2 0x165D JUMP JUMPDEST SWAP4 POP DUP4 PUSH1 0x20 DUP3 MUL DUP6 ADD PUSH2 0xE92 DUP6 PUSH2 0x1602 JUMP JUMPDEST DUP1 PUSH1 0x0 JUMPDEST DUP6 DUP2 LT ISZERO PUSH2 0xECE JUMPI DUP5 DUP5 SUB DUP10 MSTORE DUP2 MLOAD PUSH2 0xEAF DUP6 DUP3 PUSH2 0xE3F JUMP JUMPDEST SWAP5 POP PUSH2 0xEBA DUP4 PUSH2 0x1643 JUMP JUMPDEST SWAP3 POP PUSH1 0x20 DUP11 ADD SWAP10 POP POP PUSH1 0x1 DUP2 ADD SWAP1 POP PUSH2 0xE96 JUMP JUMPDEST POP DUP3 SWAP8 POP DUP8 SWAP6 POP POP POP POP POP POP SWAP3 SWAP2 POP POP JUMP JUMPDEST PUSH1 0x0 PUSH2 0xEEB DUP3 PUSH2 0x162D JUMP JUMPDEST PUSH2 0xEF5 DUP2 DUP6 PUSH2 0x166E JUMP JUMPDEST SWAP4 POP PUSH2 0xF00 DUP4 PUSH2 0x1612 JUMP JUMPDEST DUP1 PUSH1 0x0 JUMPDEST DUP4 DUP2 LT ISZERO PUSH2 0xF31 JUMPI DUP2 MLOAD PUSH2 0xF18 DUP9 DUP3 PUSH2 0xE53 JUMP JUMPDEST SWAP8 POP PUSH2 0xF23 DUP4 PUSH2 0x1650 JUMP JUMPDEST SWAP3 POP POP PUSH1 0x1 DUP2 ADD SWAP1 POP PUSH2 0xF04 JUMP JUMPDEST POP DUP6 SWAP4 POP POP POP POP SWAP3 SWAP2 POP POP JUMP JUMPDEST PUSH2 0xF47 DUP2 PUSH2 0x16A1 JUMP JUMPDEST DUP3 MSTORE POP POP JUMP JUMPDEST PUSH2 0xF56 DUP2 PUSH2 0x16A1 JUMP JUMPDEST DUP3 MSTORE POP POP JUMP JUMPDEST PUSH2 0xF65 DUP2 PUSH2 0x16CA JUMP JUMPDEST DUP3 MSTORE POP POP JUMP JUMPDEST PUSH2 0xF74 DUP2 PUSH2 0x16CA JUMP JUMPDEST DUP3 MSTORE POP POP JUMP JUMPDEST PUSH1 0x0 PUSH2 0xF85 DUP3 PUSH2 0x1638 JUMP JUMPDEST PUSH2 0xF8F DUP2 DUP6 PUSH2 0x167F JUMP JUMPDEST SWAP4 POP PUSH2 0xF9F DUP2 DUP6 PUSH1 0x20 DUP7 ADD PUSH2 0x16EB JUMP JUMPDEST PUSH2 0xFA8 DUP2 PUSH2 0x1855 JUMP JUMPDEST DUP5 ADD SWAP2 POP POP SWAP3 SWAP2 POP POP JUMP JUMPDEST PUSH1 0x0 PUSH2 0xFBE DUP3 PUSH2 0x1638 JUMP JUMPDEST PUSH2 0xFC8 DUP2 DUP6 PUSH2 0x1690 JUMP JUMPDEST SWAP4 POP PUSH2 0xFD8 DUP2 DUP6 PUSH1 0x20 DUP7 ADD PUSH2 0x16EB JUMP JUMPDEST PUSH2 0xFE1 DUP2 PUSH2 0x1855 JUMP JUMPDEST DUP5 ADD SWAP2 POP POP SWAP3 SWAP2 POP POP JUMP JUMPDEST PUSH1 0x0 PUSH2 0xFF9 PUSH1 0x35 DUP4 PUSH2 0x1690 JUMP JUMPDEST SWAP2 POP PUSH32 0x546F646F4C6973743A20496E76616C696420746F646F2049442E20446F657320 PUSH1 0x0 DUP4 ADD MSTORE PUSH32 0x74686174207461736B206576656E2065786973743F0000000000000000000000 PUSH1 0x20 DUP4 ADD MSTORE PUSH1 0x40 DUP3 ADD SWAP1 POP SWAP2 SWAP1 POP JUMP JUMPDEST PUSH1 0x0 PUSH2 0x105F PUSH1 0x22 DUP4 PUSH2 0x1690 JUMP JUMPDEST SWAP2 POP PUSH32 0x546F646F4C6973743A20546F646F20697320616C72656164792064656C657465 PUSH1 0x0 DUP4 ADD MSTORE PUSH32 0x642E000000000000000000000000000000000000000000000000000000000000 PUSH1 0x20 DUP4 ADD MSTORE PUSH1 0x40 DUP3 ADD SWAP1 POP SWAP2 SWAP1 POP JUMP JUMPDEST PUSH1 0x0 PUSH2 0x10C5 PUSH1 0x22 DUP4 PUSH2 0x1690 JUMP JUMPDEST SWAP2 POP PUSH32 0x546F646F4C6973743A20436F6E74656E742063616E6E6F7420626520656D7074 PUSH1 0x0 DUP4 ADD MSTORE PUSH32 0x792E000000000000000000000000000000000000000000000000000000000000 PUSH1 0x20 DUP4 ADD MSTORE PUSH1 0x40 DUP3 ADD SWAP1 POP SWAP2 SWAP1 POP JUMP JUMPDEST PUSH1 0x0 PUSH2 0x112B PUSH1 0x34 DUP4 PUSH2 0x1690 JUMP JUMPDEST SWAP2 POP PUSH32 0x546F646F4C6973743A20496E76616C696420746F646F2049442E20536572696F PUSH1 0x0 DUP4 ADD MSTORE PUSH32 0x75736C792C20646F65732069742065786973743F000000000000000000000000 PUSH1 0x20 DUP4 ADD MSTORE PUSH1 0x40 DUP3 ADD SWAP1 POP SWAP2 SWAP1 POP JUMP JUMPDEST PUSH1 0x0 PUSH2 0x1191 PUSH1 0x36 DUP4 PUSH2 0x1690 JUMP JUMPDEST SWAP2 POP PUSH32 0x546F646F4C6973743A20496E76616C696420746F646F2049442E20446F657320 PUSH1 0x0 DUP4 ADD MSTORE PUSH32 0x74686174207461736B206576656E2065786973743F2000000000000000000000 PUSH1 0x20 DUP4 ADD MSTORE PUSH1 0x40 DUP3 ADD SWAP1 POP SWAP2 SWAP1 POP JUMP JUMPDEST PUSH1 0x0 PUSH2 0x11F7 PUSH1 0x26 DUP4 PUSH2 0x1690 JUMP JUMPDEST SWAP2 POP PUSH32 0x546F646F4C6973743A204E657720636F6E74656E742063616E6E6F7420626520 PUSH1 0x0 DUP4 ADD MSTORE PUSH32 0x656D7074792E0000000000000000000000000000000000000000000000000000 PUSH1 0x20 DUP4 ADD MSTORE PUSH1 0x40 DUP3 ADD SWAP1 POP SWAP2 SWAP1 POP JUMP JUMPDEST PUSH1 0x0 PUSH2 0x125D PUSH1 0x31 DUP4 PUSH2 0x1690 JUMP JUMPDEST SWAP2 POP PUSH32 0x546F646F4C6973743A2043616E6E6F742075706461746520737461747573206F PUSH1 0x0 DUP4 ADD MSTORE PUSH32 0x6620612064656C6574656420746F646F2E000000000000000000000000000000 PUSH1 0x20 DUP4 ADD MSTORE PUSH1 0x40 DUP3 ADD SWAP1 POP SWAP2 SWAP1 POP JUMP JUMPDEST PUSH1 0x0 PUSH2 0x12C3 PUSH1 0x32 DUP4 PUSH2 0x1690 JUMP JUMPDEST SWAP2 POP PUSH32 0x546F646F4C6973743A2043616E6E6F742075706461746520636F6E74656E7420 PUSH1 0x0 DUP4 ADD MSTORE PUSH32 0x6F6620612064656C6574656420746F646F2E0000000000000000000000000000 PUSH1 0x20 DUP4 ADD MSTORE PUSH1 0x40 DUP3 ADD SWAP1 POP SWAP2 SWAP1 POP JUMP JUMPDEST PUSH1 0x0 PUSH1 0x80 DUP4 ADD PUSH1 0x0 DUP4 ADD MLOAD PUSH2 0x1334 PUSH1 0x0 DUP7 ADD DUP3 PUSH2 0x137F JUMP JUMPDEST POP PUSH1 0x20 DUP4 ADD MLOAD DUP5 DUP3 SUB PUSH1 0x20 DUP7 ADD MSTORE PUSH2 0x134C DUP3 DUP3 PUSH2 0xF7A JUMP JUMPDEST SWAP2 POP POP PUSH1 0x40 DUP4 ADD MLOAD PUSH2 0x1361 PUSH1 0x40 DUP7 ADD DUP3 PUSH2 0xF5C JUMP JUMPDEST POP PUSH1 0x60 DUP4 ADD MLOAD PUSH2 0x1374 PUSH1 0x60 DUP7 ADD DUP3 PUSH2 0xF3E JUMP JUMPDEST POP DUP1 SWAP2 POP POP SWAP3 SWAP2 POP POP JUMP JUMPDEST PUSH2 0x1388 DUP2 PUSH2 0x16C0 JUMP JUMPDEST DUP3 MSTORE POP POP JUMP JUMPDEST PUSH2 0x1397 DUP2 PUSH2 0x16C0 JUMP JUMPDEST DUP3 MSTORE POP POP JUMP JUMPDEST PUSH1 0x0 PUSH1 0x20 DUP3 ADD SWAP1 POP DUP2 DUP2 SUB PUSH1 0x0 DUP4 ADD MSTORE PUSH2 0x13B7 DUP2 DUP5 PUSH2 0xE6B JUMP JUMPDEST SWAP1 POP SWAP3 SWAP2 POP POP JUMP JUMPDEST PUSH1 0x0 PUSH1 0x20 DUP3 ADD SWAP1 POP DUP2 DUP2 SUB PUSH1 0x0 DUP4 ADD MSTORE PUSH2 0x13D9 DUP2 DUP5 PUSH2 0xEE0 JUMP JUMPDEST SWAP1 POP SWAP3 SWAP2 POP POP JUMP JUMPDEST PUSH1 0x0 PUSH1 0x20 DUP3 ADD SWAP1 POP DUP2 DUP2 SUB PUSH1 0x0 DUP4 ADD MSTORE PUSH2 0x13FA DUP2 PUSH2 0xFEC JUMP JUMPDEST SWAP1 POP SWAP2 SWAP1 POP JUMP JUMPDEST PUSH1 0x0 PUSH1 0x20 DUP3 ADD SWAP1 POP DUP2 DUP2 SUB PUSH1 0x0 DUP4 ADD MSTORE PUSH2 0x141A DUP2 PUSH2 0x1052 JUMP JUMPDEST SWAP1 POP SWAP2 SWAP1 POP JUMP JUMPDEST PUSH1 0x0 PUSH1 0x20 DUP3 ADD SWAP1 POP DUP2 DUP2 SUB PUSH1 0x0 DUP4 ADD MSTORE PUSH2 0x143A DUP2 PUSH2 0x10B8 JUMP JUMPDEST SWAP1 POP SWAP2 SWAP1 POP JUMP JUMPDEST PUSH1 0x0 PUSH1 0x20 DUP3 ADD SWAP1 POP DUP2 DUP2 SUB PUSH1 0x0 DUP4 ADD MSTORE PUSH2 0x145A DUP2 PUSH2 0x111E JUMP JUMPDEST SWAP1 POP SWAP2 SWAP1 POP JUMP JUMPDEST PUSH1 0x0 PUSH1 0x20 DUP3 ADD SWAP1 POP DUP2 DUP2 SUB PUSH1 0x0 DUP4 ADD MSTORE PUSH2 0x147A DUP2 PUSH2 0x1184 JUMP JUMPDEST SWAP1 POP SWAP2 SWAP1 POP JUMP JUMPDEST PUSH1 0x0 PUSH1 0x20 DUP3 ADD SWAP1 POP DUP2 DUP2 SUB PUSH1 0x0 DUP4 ADD MSTORE PUSH2 0x149A DUP2 PUSH2 0x11EA JUMP JUMPDEST SWAP1 POP SWAP2 SWAP1 POP JUMP JUMPDEST PUSH1 0x0 PUSH1 0x20 DUP3 ADD SWAP1 POP DUP2 DUP2 SUB PUSH1 0x0 DUP4 ADD MSTORE PUSH2 0x14BA DUP2 PUSH2 0x1250 JUMP JUMPDEST SWAP1 POP SWAP2 SWAP1 POP JUMP JUMPDEST PUSH1 0x0 PUSH1 0x20 DUP3 ADD SWAP1 POP DUP2 DUP2 SUB PUSH1 0x0 DUP4 ADD MSTORE PUSH2 0x14DA DUP2 PUSH2 0x12B6 JUMP JUMPDEST SWAP1 POP SWAP2 SWAP1 POP JUMP JUMPDEST PUSH1 0x0 PUSH1 0x20 DUP3 ADD SWAP1 POP PUSH2 0x14F6 PUSH1 0x0 DUP4 ADD DUP5 PUSH2 0x138E JUMP JUMPDEST SWAP3 SWAP2 POP POP JUMP JUMPDEST PUSH1 0x0 PUSH1 0x40 DUP3 ADD SWAP1 POP PUSH2 0x1511 PUSH1 0x0 DUP4 ADD DUP6 PUSH2 0x138E JUMP JUMPDEST PUSH2 0x151E PUSH1 0x20 DUP4 ADD DUP5 PUSH2 0xF6B JUMP JUMPDEST SWAP4 SWAP3 POP POP POP JUMP JUMPDEST PUSH1 0x0 PUSH1 0x40 DUP3 ADD SWAP1 POP PUSH2 0x153A PUSH1 0x0 DUP4 ADD DUP6 PUSH2 0x138E JUMP JUMPDEST DUP2 DUP2 SUB PUSH1 0x20 DUP4 ADD MSTORE PUSH2 0x154C DUP2 DUP5 PUSH2 0xFB3 JUMP JUMPDEST SWAP1 POP SWAP4 SWAP3 POP POP POP JUMP JUMPDEST PUSH1 0x0 PUSH1 0x80 DUP3 ADD SWAP1 POP PUSH2 0x156A PUSH1 0x0 DUP4 ADD DUP8 PUSH2 0x138E JUMP JUMPDEST DUP2 DUP2 SUB PUSH1 0x20 DUP4 ADD MSTORE PUSH2 0x157C DUP2 DUP7 PUSH2 0xFB3 JUMP JUMPDEST SWAP1 POP PUSH2 0x158B PUSH1 0x40 DUP4 ADD DUP6 PUSH2 0xF6B JUMP JUMPDEST PUSH2 0x1598 PUSH1 0x60 DUP4 ADD DUP5 PUSH2 0xF4D JUMP JUMPDEST SWAP6 SWAP5 POP POP POP POP POP JUMP JUMPDEST PUSH1 0x0 PUSH1 0x40 MLOAD SWAP1 POP DUP2 DUP2 ADD DUP2 DUP2 LT PUSH8 0xFFFFFFFFFFFFFFFF DUP3 GT OR ISZERO PUSH2 0x15C8 JUMPI PUSH2 0x15C7 PUSH2 0x1826 JUMP JUMPDEST JUMPDEST DUP1 PUSH1 0x40 MSTORE POP SWAP2 SWAP1 POP JUMP JUMPDEST PUSH1 0x0 PUSH8 0xFFFFFFFFFFFFFFFF DUP3 GT ISZERO PUSH2 0x15ED JUMPI PUSH2 0x15EC PUSH2 0x1826 JUMP JUMPDEST JUMPDEST PUSH1 0x1F NOT PUSH1 0x1F DUP4 ADD AND SWAP1 POP PUSH1 0x20 DUP2 ADD SWAP1 POP SWAP2 SWAP1 POP JUMP JUMPDEST PUSH1 0x0 DUP2 SWAP1 POP PUSH1 0x20 DUP3 ADD SWAP1 POP SWAP2 SWAP1 POP JUMP JUMPDEST PUSH1 0x0 DUP2 SWAP1 POP PUSH1 0x20 DUP3 ADD SWAP1 POP SWAP2 SWAP1 POP JUMP JUMPDEST PUSH1 0x0 DUP2 MLOAD SWAP1 POP SWAP2 SWAP1 POP JUMP JUMPDEST PUSH1 0x0 DUP2 MLOAD SWAP1 POP SWAP2 SWAP1 POP JUMP JUMPDEST PUSH1 0x0 DUP2 MLOAD SWAP1 POP SWAP2 SWAP1 POP JUMP JUMPDEST PUSH1 0x0 PUSH1 0x20 DUP3 ADD SWAP1 POP SWAP2 SWAP1 POP JUMP JUMPDEST PUSH1 0x0 PUSH1 0x20 DUP3 ADD SWAP1 POP SWAP2 SWAP1 POP JUMP JUMPDEST PUSH1 0x0 DUP3 DUP3 MSTORE PUSH1 0x20 DUP3 ADD SWAP1 POP SWAP3 SWAP2 POP POP JUMP JUMPDEST PUSH1 0x0 DUP3 DUP3 MSTORE PUSH1 0x20 DUP3 ADD SWAP1 POP SWAP3 SWAP2 POP POP JUMP JUMPDEST PUSH1 0x0 DUP3 DUP3 MSTORE PUSH1 0x20 DUP3 ADD SWAP1 POP SWAP3 SWAP2 POP POP JUMP JUMPDEST PUSH1 0x0 DUP3 DUP3 MSTORE PUSH1 0x20 DUP3 ADD SWAP1 POP SWAP3 SWAP2 POP POP JUMP JUMPDEST PUSH1 0x0 DUP2 ISZERO ISZERO SWAP1 POP SWAP2 SWAP1 POP JUMP JUMPDEST PUSH1 0x0 DUP2 SWAP1 POP PUSH2 0x16BB DUP3 PUSH2 0x1866 JUMP JUMPDEST SWAP2 SWAP1 POP JUMP JUMPDEST PUSH1 0x0 DUP2 SWAP1 POP SWAP2 SWAP1 POP JUMP JUMPDEST PUSH1 0x0 PUSH2 0x16D5 DUP3 PUSH2 0x16AD JUMP JUMPDEST SWAP1 POP SWAP2 SWAP1 POP JUMP JUMPDEST DUP3 DUP2 DUP4 CALLDATACOPY PUSH1 0x0 DUP4 DUP4 ADD MSTORE POP POP POP JUMP JUMPDEST PUSH1 0x0 JUMPDEST DUP4 DUP2 LT ISZERO PUSH2 0x1709 JUMPI DUP1 DUP3 ADD MLOAD DUP2 DUP5 ADD MSTORE PUSH1 0x20 DUP2 ADD SWAP1 POP PUSH2 0x16EE JUMP JUMPDEST DUP4 DUP2 GT ISZERO PUSH2 0x1718 JUMPI PUSH1 0x0 DUP5 DUP5 ADD MSTORE JUMPDEST POP POP POP POP JUMP JUMPDEST PUSH1 0x0 PUSH1 0x2 DUP3 DIV SWAP1 POP PUSH1 0x1 DUP3 AND DUP1 PUSH2 0x1736 JUMPI PUSH1 0x7F DUP3 AND SWAP2 POP JUMPDEST PUSH1 0x20 DUP3 LT DUP2 EQ ISZERO PUSH2 0x174A JUMPI PUSH2 0x1749 PUSH2 0x17F7 JUMP JUMPDEST JUMPDEST POP SWAP2 SWAP1 POP JUMP JUMPDEST PUSH1 0x0 PUSH2 0x175B DUP3 PUSH2 0x16C0 JUMP JUMPDEST SWAP2 POP PUSH32 0xFFFFFFFFFFFFFFFFFFFFFFFFFFFFFFFFFFFFFFFFFFFFFFFFFFFFFFFFFFFFFFFF DUP3 EQ ISZERO PUSH2 0x178E JUMPI PUSH2 0x178D PUSH2 0x1799 JUMP JUMPDEST JUMPDEST PUSH1 0x1 DUP3 ADD SWAP1 POP SWAP2 SWAP1 POP JUMP JUMPDEST PUSH32 0x4E487B7100000000000000000000000000000000000000000000000000000000 PUSH1 0x0 MSTORE PUSH1 0x11 PUSH1 0x4 MSTORE PUSH1 0x24 PUSH1 0x0 REVERT JUMPDEST PUSH32 0x4E487B7100000000000000000000000000000000000000000000000000000000 PUSH1 0x0 MSTORE PUSH1 0x21 PUSH1 0x4 MSTORE PUSH1 0x24 PUSH1 0x0 REVERT JUMPDEST PUSH32 0x4E487B7100000000000000000000000000000000000000000000000000000000 PUSH1 0x0 MSTORE PUSH1 0x22 PUSH1 0x4 MSTORE PUSH1 0x24 PUSH1 0x0 REVERT JUMPDEST PUSH32 0x4E487B7100000000000000000000000000000000000000000000000000000000 PUSH1 0x0 MSTORE PUSH1 0x41 PUSH1 0x4 MSTORE PUSH1 0x24 PUSH1 0x0 REVERT JUMPDEST PUSH1 0x0 PUSH1 0x1F NOT PUSH1 0x1F DUP4 ADD AND SWAP1 POP SWAP2 SWAP1 POP JUMP JUMPDEST PUSH1 0x4 DUP2 LT PUSH2 0x1877 JUMPI PUSH2 0x1876 PUSH2 0x17C8 JUMP JUMPDEST JUMPDEST POP JUMP JUMPDEST PUSH1 0x4 DUP2 LT PUSH2 0x1887 JUMPI PUSH1 0x0 DUP1 REVERT JUMPDEST POP JUMP JUMPDEST PUSH2 0x1893 DUP2 PUSH2 0x16C0 JUMP JUMPDEST DUP2 EQ PUSH2 0x189E JUMPI PUSH1 0x0 DUP1 REVERT JUMPDEST POP JUMP INVALID LOG2 PUSH5 0x6970667358 0x22 SLT KECCAK256 0xC5 PUSH10 0xA3E9EECC2CAE2CE1EC86 0xE6 DUP10 DUP4 SAR OR 0xC0 0xEE 0x48 JUMP PUSH30 0xA1D6EB78565A3BB4E9FF64736F6C6343000800003330383A3030202D2051 PUSH22 0x69636B20627265616B666173742E2043657265616C3F KECCAK256 SLOAD PUSH16 0x6173743F205768617465766572277320 PUSH7 0x6173746573742E ADDRESS CALLDATACOPY GASPRICE CALLER ADDRESS KECCAK256 0x2D KECCAK256 MSTORE8 PUSH9 0x6F7765722074696D65 0x21 KECCAK256 SELFBALANCE PUSH16 0x747461206C6F6F6B2066726573682066 PUSH16 0x722074686520776F726C6420286F7220 PUSH11 0x757374205A6F6F6D292E30 CODESIZE GASPRICE CALLER ADDRESS KECCAK256 0x2D KECCAK256 NUMBER PUSH16 0x6D6D7574652F47657420726561647920 PUSH7 0x6F72206F6E6C69 PUSH15 0x6520636C61737365732E2056696265 KECCAK256 PUSH4 0x6865636B GASPRICE KECCAK256 PUSH19 0x656164792E31383A3030202D204C69736B2041 PUSH7 0x7269636120426F PUSH16 0x7463616D7020436C617373212054696D PUSH6 0x20746F206C65 PUSH23 0x656C2075702074686F736520626C6F636B636861696E20 PUSH20 0x6B696C6C732E30373A3135202D204F6B61792C20 COINBASE NUMBER SLOAD SSTORE COINBASE 0x4C 0x4C MSIZE KECCAK256 PUSH8 0x6574206F7574206F PUSH7 0x206265642E204D PUSH2 0x6B65 KECCAK256 PUSH10 0x74206C6F6F6B20707265 PUSH20 0x656E7461626C652C206D6F6D206D696768742063 PUSH9 0x65636B2E32303A3030 KECCAK256 0x2D KECCAK256 0x4C PUSH6 0x61726E206120 0x4E GASLIMIT JUMPI KECCAK256 PUSH20 0x6B696C6C2E20436F756C642062652061206E6577 KECCAK256 PUSH4 0x6F64696E PUSH8 0x20636F6E63657074 0x2C KECCAK256 PUSH5 0x726177696E PUSH8 0x2C206C616E677561 PUSH8 0x652E2E2E20736F6D PUSH6 0x7468696E6720 PUSH5 0x6966666572 PUSH6 0x6E742131333A ADDRESS ADDRESS KECCAK256 0x2D KECCAK256 DIFFICULTY PUSH6 0x657020646976 PUSH6 0x20696E746F20 PUSH4 0x6F64696E PUSH8 0x2E203420686F7572 PUSH20 0x206D696E696D756D206772696E642E2042756720 PUSH9 0x756E74696E67207365 PUSH2 0x736F PUSH15 0x2131393A3030202D2044696E6E6572 KECCAK256 PUSH21 0x696D652E204D6179626520636F6F6B20736F6D6574 PUSH9 0x696E672C206D617962 PUSH6 0x206F72646572 KECCAK256 PUSH10 0x6E2E204465636973696F PUSH15 0x732C206465636973696F6E732E3039 GASPRICE ADDRESS ADDRESS KECCAK256 0x2D KECCAK256 COINBASE PUSH21 0x74656E64204D6F726E696E6720436C61737365732E KECCAK256 SLOAD PUSH19 0x79206E6F7420746F2066616C6C2061736C6565 PUSH17 0x2E32323A3330202D204F46462053435245 GASLIMIT 0x4E KECCAK256 PUSH21 0x696D652E20507574207468652070686F6E65204157 COINBASE MSIZE 0x2E KECCAK256 MSTORE PUSH6 0x616420612062 PUSH16 0x6F6B2C206A6F75726E616C2C206A7573 PUSH21 0x2065786973742E2031323A3030202D204C756E6368 KECCAK256 PUSH3 0x726561 PUSH12 0x212052656675656C2074696D PUSH6 0x2E2057686174 0x27 PUSH20 0x20636F6F6B696E673F2032333A3030202D205769 PUSH15 0x6420646F776E20726F7574696E652E KECCAK256 SELFBALANCE PUSH6 0x742072656164 PUSH26 0x20666F72206265642E20416E6F746865722064617920646F6E65 0x21 KECCAK256 ORIGIN BALANCE GASPRICE ADDRESS ADDRESS KECCAK256 0x2D KECCAK256 NUMBER PUSH9 0x696C6C2074696D6520 0x2F KECCAK256 MSTORE8 PUSH4 0x7265656E KECCAK256 PUSH21 0x696D652E2042696E676520612073686F772C206761 PUSH14 0x652C206F72206A75737420766962 PUSH6 0x207769746820 PUSH7 0x7269656E647320 PUSH16 0x6E6C696E652E31373A3030202D204272 PUSH6 0x616B2074696D PUSH6 0x21205363726F PUSH13 0x6C2054696B546F6B2C20687964 PUSH19 0x6174652C20737472657463682E205265636861 PUSH19 0x67652E20000000000000000000000000000000 "
				},
				"gasEstimates": {
					"creation": {
						"codeDepositCost": "1271800",
						"executionCost": "infinite",
						"totalCost": "infinite"
					},
					"external": {
						"addTodo(string)": "infinite",
						"deleteTodo(uint256)": "infinite",
						"getAllTodoIds()": "infinite",
						"getAllTodos()": "infinite",
						"getTodo(uint256)": "infinite",
						"getTotalTodos()": "1160",
						"todoIds(uint256)": "infinite",
						"updateContent(uint256,string)": "infinite",
						"updateStatus(uint256,uint8)": "infinite"
					},
					"internal": {
						"_addTodoInternal(string memory)": "infinite"
					}
				},
				"methodIdentifiers": {
					"addTodo(string)": "95ffebf5",
					"deleteTodo(uint256)": "6e3c6738",
					"getAllTodoIds()": "d368ca4d",
					"getAllTodos()": "ce2bd5d5",
					"getTodo(uint256)": "dd68afb6",
					"getTotalTodos()": "1b928946",
					"todoIds(uint256)": "03c5c31f",
					"updateContent(uint256,string)": "25612dc6",
					"updateStatus(uint256,uint8)": "3a1b3d31"
				}
			},
			"storageLayout": {
				"storage": [
					{
						"astId": 22,
						"contract": "contracts/TodoList.sol:TodoList",
						"label": "todos",
						"offset": 0,
						"slot": "0",
						"type": "t_mapping(t_uint256,t_struct(Todo)17_storage)"
					},
					{
						"astId": 25,
						"contract": "contracts/TodoList.sol:TodoList",
						"label": "todoIds",
						"offset": 0,
						"slot": "1",
						"type": "t_array(t_uint256)dyn_storage"
					},
					{
						"astId": 27,
						"contract": "contracts/TodoList.sol:TodoList",
						"label": "nextTodoId",
						"offset": 0,
						"slot": "2",
						"type": "t_uint256"
					}
				],
				"types": {
					"t_array(t_uint256)dyn_storage": {
						"base": "t_uint256",
						"encoding": "dynamic_array",
						"label": "uint256[]",
						"numberOfBytes": "32"
					},
					"t_bool": {
						"encoding": "inplace",
						"label": "bool",
						"numberOfBytes": "1"
					},
					"t_enum(TodoStatus)7": {
						"encoding": "inplace",
						"label": "enum TodoList.TodoStatus",
						"numberOfBytes": "1"
					},
					"t_mapping(t_uint256,t_struct(Todo)17_storage)": {
						"encoding": "mapping",
						"key": "t_uint256",
						"label": "mapping(uint256 => struct TodoList.Todo)",
						"numberOfBytes": "32",
						"value": "t_struct(Todo)17_storage"
					},
					"t_string_storage": {
						"encoding": "bytes",
						"label": "string",
						"numberOfBytes": "32"
					},
					"t_struct(Todo)17_storage": {
						"encoding": "inplace",
						"label": "struct TodoList.Todo",
						"members": [
							{
								"astId": 9,
								"contract": "contracts/TodoList.sol:TodoList",
								"label": "id",
								"offset": 0,
								"slot": "0",
								"type": "t_uint256"
							},
							{
								"astId": 11,
								"contract": "contracts/TodoList.sol:TodoList",
								"label": "content",
								"offset": 0,
								"slot": "1",
								"type": "t_string_storage"
							},
							{
								"astId": 14,
								"contract": "contracts/TodoList.sol:TodoList",
								"label": "status",
								"offset": 0,
								"slot": "2",
								"type": "t_enum(TodoStatus)7"
							},
							{
								"astId": 16,
								"contract": "contracts/TodoList.sol:TodoList",
								"label": "isDeleted",
								"offset": 1,
								"slot": "2",
								"type": "t_bool"
							}
						],
						"numberOfBytes": "96"
					},
					"t_uint256": {
						"encoding": "inplace",
						"label": "uint256",
						"numberOfBytes": "32"
					}
				}
			},
			"userdoc": {
				"kind": "user",
				"methods": {},
				"version": 1
			}
		}
	}
}